:060000000A128A11122809
:10000800FE00030EF6000408F7000A08F800831241
:1000180003137F08F9000A128A11932A0A128A1117
:10002800A42C27307B06031D1B2810307A06031DDD
:100038001E281F282B28013083120313CD0703180D
:10004800CE0A0030CE076130E129E129E1293A30B2
:100058007B06031D312898307A06031D342835287D
:100068004128013083120313CD070318CE0A00304C
:10007800CE076230E129E129E1294E307B06031DD4
:10008800472820307A06031D4A284B285728013074
:1000980083120313CD070318CE0A0030CE0763304E
:1000A800E129E129E12961307B06031D5D28A8309B
:1000B8007A06031D602861286D2801308312031316
:1000C800CD070318CE0A0030CE076430E129E129B4
:1000D800E12975307B06031D732830307A06031D2D
:1000E800762877288328013083120313CD07031855
:1000F800CE0A0030CE076530E129E129E1298830B0
:100108007B06031D8928B8307A06031D8C288D28A4
:100118009928013083120313CD070318CE0A003043
:10012800CE076630E129E129E1299C307B06031DD1
:100138009F2840307A06031DA228A328AF28013043
:1001480083120313CD070318CE0A0030CE07673099
:10015800E129E129E129AF307B06031DB528C83024
:100168007A06031DB828B928C5280130831203135D
:10017800CD070318CE0A0030CE076830E129E129FF
:10018800E129C3307B06031DCB2850307A06031DB6
:10019800CE28CF28DB28013083120313CD0703189C
:1001A800CE0A0030CE076930E129E129E129D630AD
:1001B8007B06031DE128D8307A06031DE428E528CC
:1001C800F128013083120313CD070318CE0A00303B
:1001D800CE076A30E129E129E129EA307B06031DCF
:1001E800F72860307A06031DFA28FB280729013012
:1001F80083120313CD070318CE0A0030CE076B30E5
:10020800E129E129E129FD307B06031D0D29E830AC
:100218007A06031D10291129E129013083120313DD
:10022800CD070318CE0A0030CE076C30E129E1294A
:10023800E129E1290130CD070318CE0A0030CE07A5
:100248006D30E129E129E129E1290130CD070318C1
:10025800CE0A0030CE076E30E129E129E129E129F3
:100268000130CD070318CE0A0030CE076F30E129E0
:10027800E129E129E1290130CD070318CE0A003030
:10028800CE077030E129E129E129E1290130CD07C4
:100298000318CE0A0030CE077130E129E129E1299F
:1002A800E1290130CD070318CE0A0030CE0772309D
:1002B800E129E129E129E1290130CD070318CE0A16
:1002C8000030CE077330E129E129E129E129013025
:1002D800CD070318CE0A0030CE077430E129E12992
:1002E800E129E1290130CD070318CE0A0030CE07F5
:1002F8007530E129E129E129E1290130CD07031809
:10030800CE0A0030CE077630E129E129E129E1293A
:100318000130CD070318CE0A0030CE077730E12927
:10032800E129E129E1290130CD070318CE0A00307F
:10033800CE077830E129E129E129E1290130CD070B
:100348000318CE0A0030CE077930E129E129E129E6
:10035800E1290130CD070318CE0A0030CE077A30E4
:10036800E129E129E129E1290130D1070318D20A5D
:100378000030D2072030E129E129E129E1292E3096
:10038800E129E129E129E129E129E129E129E12915
:10039800E129E129E129E129E129E129E129E12905
:1003A800E129E129E129E129E129E129E129E129F5
:1003B800E129E129E129E129E12908000A128A1144
:1003C800FC220A128A11E8290A128A1115200A1237
:1003D8008A1183120313E5006508E60020305906E8
:1003E8005A04031DF829F9290A2AFC29FC29FC29A1
:1003F800480847040319012A022AFC29032AC701CD
:10040800C801D901DA01C301C4010A2A4408803AA3
:10041800FF0080307F02031D132A10304302031CA3
:10042800162A172A432A831203134308303E0A1256
:100438008A11D1240A128A11013083120313C307C7
:100448000318C40A0030C4076608E5004B08203EBC
:1004580084006508831380000130CB070318CC0A99
:100468000030CC0766080A128A11F1230A128A1191
:10047800F4300A128A1160240A128A116E2A831231
:10048800031343080A128A11D1240A128A1101306F
:1004980083120313C3070318C40A0030C40766088D
:1004A800E5004B08203E8400650883138000013076
:1004B800CB070318CC0A0030CC0766080A128A1149
:1004C800F1230A128A11F4300A128A1160240A12DE
:1004D8008A116E2A013083120313D9070318DA0A26
:1004E8000030DA0766082E3A031D7B2A7C2AE829A1
:1004F8000A128A11C1240A128A1100300A128A11BA
:10050800D1240A128A1140300A128A11D1240A12FF
:100518008A11E829E829E8290A128A1112280D1CEB
:10052800962A972AC72A0D106808670403199D2A76
:100538009E2AA52A1C08D601D6071B08D501D5076F
:10054800B52A5509F4005609F500F40A0319F50A05
:100558001B087407FA001C0803181C0A7507FB001F
:10056800B52A68086704003003190130F400F50162
:100578007408E7007508E800F4300A128A11832429
:100588000A128A11C72A831203130C1CCC2ACD2AFB
:10059800D12A0C108F018E01D12A8B1CD42AD52A7E
:1005A800E22A8B108B010130CF070318D00A0030E4
:1005B800D00701308B008B170B16E22A8B1EE52A19
:1005C800E62AF12A0B1DE92AEA2AF12A0B118101F0
:1005D800CF01D001C901CA01F12A7908FF007808C2
:1005E8008A0077088400760E8300FE0E7E0E0900CE
:1005F80083160313811388018901FF308600831253
:1006080003139F018230831603139F00FF30850078
:100618008701831203138701091190100C108F01B1
:100628008E01101290121011831603130C148312EA
:10063800031310140A128A1159230A128A110A1272
:100648008A11C1240A128A11013083120313E000AF
:100658000030E1000A128A113C240A128A118B1711
:100668008B160B178B150B10831603130D1483129F
:1006780003130D1042308316031392003C3083128B
:10068800031397000430920095010230D300003024
:10069800D400C301C401D901DA01873083160313DA
:1006A80081008312031381010800831203130910C8
:1006B8000F300A128A1160240A128A11303083120C
:1006C800031388008914891005300A128A116024DE
:1006D8000A128A1183120313891489102130E00049
:1006E8006008E100782B782B0130E102031D7D2B97
:1006F8007E2B782B8914891005300A128A11602400
:100708000A128A1120308312031388008914891071
:100718000D30E0006008E200922B922B0130E202DB
:10072800031D972B982B922B992B28300A128A118C
:1007380017240A128A1108300A128A1117240A1279
:100748008A110F300A128A1117240A128A110630E8
:100758000A128A1117240A128A11080003308A0023
:100768000408840A82070034003480343F34723429
:1007780031343F34FE3475343E34583463343D34B8
:1007880095341D343C34C534AE343A34793421348C
:1007980039349434803437349334A7343534563468
:1007A80015343434003400340034003480343F3499
:1007B800F034FF34BE34E234A9343E348334763422
:1007C800BE34AE342B343E343C34C334BD34D2341E
:1007D80013343D347834D334BB3483120313DE002E
:1007E800091408080F395E048800891489105E0806
:1007F800DC0004300310DC0DFF3E031DFE2B08084F
:100808000F395C048800891489100D30DC005C08FD
:10081800DD000F2C0F2C0130DD02031D142C152CCC
:100828000F2C162C080083120313DE0008080F395A
:100838005E048800891489105E08DC000430031007
:10084800DC0DFF3E031D232C08080F395C048800CB
:10085800891489100D30DC005C08DD00342C342C40
:100868000130DD02031D392C3A2C342C3B2C0800B6
:1008780083120313E301E401502CE8300A128A11B1
:1008880060240A128A11013083120313E307031844
:10089800E40A0030E407502C6408803AE20061085A
:1008A800803A6202031D5A2C60086302031C5D2C07
:1008B8005E2C412C5F2C080083120313DD000430EA
:1008C800DC005C08DE005330DC005C08DF006D2CC7
:1008D8006D2C0130DF02031D722C732C6D2C742CCF
:1008E8000130DE02031D792C7A2C672C7B2C013019
:1008F800DD02031D802C812C632C822C0800F10062
:100908000430F0007008F2005330F0007008F30073
:100918008E2C8E2C0130F302031D932C942C8E2CDC
:10092800952C0130F202031D9A2C9B2C882C9C2CB0
:100938000130F102031DA12CA22C842CA32C080049
:10094800FA01FB01FC01FD018313203084005C30B7
:100958000A128A11DD240A128A110A128A11E52460
:100968000A128A11E7000A128A11E6240A128A1169
:10097800E80083010A128A11E2298312031309107D
:1009880001300A128A1117240A128A1102300A1237
:100998008A1160240A128A11080083120313DF00E7
:1009A80009105F08803E0A128A1117240A128A1158
:1009B800080064008001840A040603190034040650
:0609C800DE2C01340034B6
:02400E007AFF37
:00000001FF
