:100000000A128A11E72B00308A000408840A82074A
:10001000003449346E34763461346C346934643479
:0800200020344934643400343B
:10079200FC340C34F3008312031309107308803EF7
:1007A2000A128A114A240A128A11080083120313B8
:1007B200091001300A128A114A240A128A110230DF
:1007C2000A128A1105240A128A110800A001A10145
:1007D200A201A301A401A501A601A701A801A901E3
:1007E200AA01AB01AC01AD010A128A11C9230A1296
:1007F2008A11BC000A128A11CA230A128A11BD0088
:1008020083010A128A11552EF1000430F00070089B
:10081200F2005330F0007008F300102C102C01305D
:10082200F302031D152C162C102C172C0130F2028A
:10083200031D1C2C1D2C0A2C1E2C0130F102031D41
:10084200232C242C062C252C0800F40083120313DD
:1008520009143C2C740884000A128A1103200A121B
:100862008A110A128A114A240A128A110130F300EB
:100872007308F4073C2C740884000A128A110320BE
:100882000A128A110038031D472C482C2B2C492CA4
:100892000800F2008312031308080F39720488005B
:1008A200891489107208F00004300310F00DFF3E25
:1008B200031D562C08080F3970048800891489100A
:1008C2000D30F0007008F100672C672C0130F10246
:1008D200031D6C2C6D2C672C6E2C0800F400831207
:1008E2000313091431307406F0000030F10071086E
:1008F2007004003003190130F20072078700080803
:100902000F3974048800891489107408F0000430C7
:100912000310F00DFF3E031D892C08080F397004E7
:100922008800891489100D30F0007008F3009A2CA9
:100932009A2C0130F302031D9F2CA02C9A2CA12C7F
:1009420008007A0883120313B101B1077908B001D4
:10095200B007AE01AF01CB2C0130AE070318AF0ACE
:100962000030AF070A30F0000030F1003108F30127
:10097200F3073008F201F2070A128A11E1250A127E
:100982008A11710883120313B101B1077008B00113
:10099200B007CB2C31083004031DD02CD12CAD2C48
:1009A200D22C2F08FA01FA072E08F901F907D92CDF
:1009B20008007A0883120313B101B1077908B00164
:1009C200B0070130AE000030AF00072D0A30F00052
:1009D2000030F100831203133108F301F3073008EA
:1009E200F201F2070A128A11E1250A128A1171082C
:1009F20083120313B101B1077008B001B0070130CF
:100A0200AE070318AF0A0030AF07072D2F08803A50
:100A1200FD007C08803A7D02031D112D7B082E0209
:100A2200031C142D152DE72C162D831203133108E8
:100A3200FA01FA073008F901F9071F2D080083129D
:100A4200031309100F300A128A1105240A128A119F
:100A520030308312031388008914891005300A127A
:100A62008A1105240A128A11831203138914891028
:100A72002130F4007408F5003F2D3F2D0130F502BE
:100A8200031D442D452D3F2D831203138914891014
:100A920005300A128A1105240A128A1120308312A3
:100AA20003138800891489100D30F4007408F600CD
:100AB2005B2D5B2D0130F602031D602D612D5B2D38
:100AC200622D28300A128A114A240A128A11083029
:100AD2000A128A114A240A128A110F300A128A1142
:100AE2004A240A128A1106300A128A114A240A1268
:100AF2008A110800F601F31F7F2D802D892DF2093E
:100B0200F309F20A0319F30AF6010314F60D892D0B
:100B1200F11F8C2D8D2D932DF009F109F00A031987
:100B2200F10A932D710870040319982D992DCF2D78
:100B3200F5010314F50DA92D01300310F00DF10D8F
:100B4200FF3E031D9E2D0130F4007408F507A92D08
:100B5200F11FAC2DAD2D9D2DAF2DAF2D7108730260
:100B6200031DB52D70087202031CB82DB92DC02DBE
:100B72007008F2027108031CF303F302C02D013066
:100B82000310F10CF00CFF3E031DC12D0130F502E4
:100B9200031DCC2DCD2DAF2DCF2DCF2D7608031DCE
:100BA200D32DD92DF209F309F20A0319F30AD92D2B
:100BB2007308F101F1077208F001F007E02D080057
:100BC200F601F11FE52DE62DEF2DF009F109F00AEE
:100BD2000319F10AF6010314F60DEF2DF31FF22D9E
:100BE200F32DFD2DF209F309F20A0319F30A01307C
:100BF200F4007408F606FD2DF701F801710870047F
:100C02000319042E052E432EF5010314F50D152E9E
:100C120001300310F00DF10DFF3E031D0A2E0130CD
:100C2200F4007408F507152EF11F182E192E092E3F
:100C32001B2E1B2E01300310F70DF80DFF3E031D76
:100C42001C2E71087302031D282E70087202031CE9
:100C52002B2E2C2E342E7008F2027108031CF30383
:100C6200F3027714342E01300310F10CF00CFF3E26
:100C7200031D352E0130F502031D402E412E1B2E81
:100C8200432E432E7608031D472E4D2EF709F809F1
:100C9200F70A0319F80A4D2E7808F101F1077708CF
:100CA200F001F007542E0800831603138113890103
:100CB2008701880107309F008312031309116430F2
:100CC2000A128A1105240A128A110A128A1120258F
:100CD2000A128A110A128A11D7230A128A112E3095
:100CE20083120313B2003208AD00B601B701370810
:100CF200803AFF0080307F02031D812E03303602CE
:100D0200031C842E852E872EC02EC02E8312031321
:100D12003D08FA01FA073C08F901F9073609B20061
:100D22003709B300B20A0319B30A3208073EFB00BF
:100D320033080318013E003EFC000A128A11DA242D
:100D42000A128A117908303E0A128A116F240A1295
:100D52008A11013083120313B6070318B70A003051
:100D6200B7073708803AFF0080307F02031DBB2E91
:100D720003303602031CBE2EBF2E872EC02E8312D6
:100D820003133D08FA01FA073C08F901F9070A12B0
:100D92008A11A2240A128A11073079067A040319E9
:100DA200D32ED42EE12E43300A128A11CB230A12FB
:100DB2008A1101300A128A1126240A128A117E2F00
:100DC20040300A128A11CB230A128A1183120313AA
:100DD200BA01BB01B801B9013908803AFF0080307D
:100DE2007F02031DF62E03303802031CF92EFA2E61
:100DF200FC2E342F342F831203133D08FA01FA0715
:100E02003C08F901F9073809B2003909B300B20AFE
:100E12000319B30A3208073EFB0033080318013EE8
:100E2200003EFC000A128A11DA240A128A11790899
:100E320083120313BA070318BB0A7A08BB070130EF
:100E4200B8070318B90A0030B9073908803AFF0019
:100E520080307F02031D2F2F03303802031C322FF4
:100E6200332FFC2E342F831203133B08803AFF00EA
:100E720080307F02031D3F2F0A303A02031C422FAB
:100E8200432F742F0A30F0000030F1008312031355
:100E92003B08F301F3073A08F201F2070A128A113A
:100EA200E1250A128A117008303E0A128A116F2453
:100EB2000A128A110A30F0000030F1008312031383
:100EC2003B08F301F3073A08F201F2070A128A110A
:100ED2007B250A128A117008303E0A128A116F2489
:100EE2000A128A117E2F831203133A08303E0A1225
:100EF2008A116F240A128A117E2F831203133D086E
:100F0200FA01FA073C08F901F9070430FB00003046
:100F1200FC000A128A11DA240A128A117908831251
:100F22000313B2007A08B3003D08FA01FA073C083D
:100F3200F901F9070330FB000030FC000A128A11A4
:100F4200DA240A128A117908831203133207B400D1
:100F52007A0803187A0A3307B500341CB12FB22F6E
:100F6200B62F871687130717BA2F87168713071707
:100F7200BA2F3D08FA01FA073C08F901F9070130D6
:100F8200FB000030FC000A128A11DA240A128A11CC
:100F9200790883120313B2007A08B3003D08FA01FC
:100FA200FA073C08F901F9070030FB000030FC00A9
:100FB2000A128A11DA240A128A1179088312031397
:100FC2003207B4007A0803187A0A3307B5003508E5
:100FD200803AFF0080307F02031DF12F0B30340274
:100FE200031CF42FF52FF92F831203138714FD2FFF
:0E0FF200831203138710FD2F0A128A110028A4
:02400E007AFF37
:00000001FF
