:060000000A128A117B2F99
:100EF60083010A128A11C02FF701F8018F2FE830FB
:100F06000A128A119F270A128A110130F70703185D
:100F1600F80A0030F8078F2F7808803AF60075082F
:100F2600803A7602031D992F74087702031C9C2FC2
:100F36009D2F822F9E2F0800F1000430F0007008CC
:100F4600F2005330F0007008F300AA2FAA2F0130E8
:100F5600F302031DAF2FB02FAA2FB12F0130F202DB
:100F6600031DB62FB72FA42FB82F0130F102031D92
:100F7600BD2FBE2FA02FBF2F080083160313860197
:100F8600831203138601C72F0130831203138600D1
:100F96000130F4000030F5000A128A117F270A1288
:100FA6008A1102308312031386000130F4000030E8
:100FB600F5000A128A117F270A128A110430831259
:100FC600031386000130F4000030F5000A128A117E
:100FD6007F270A128A110830831203138600013014
:100FE600F4000030F5000A128A117F270A128A11CE
:0A0FF600C72FC72F0A128A11002826
:02400E007AFF37
:00000001FF
