:020000040000FA
:10000000000083160313F030870088018312031366
:10001000FF30870088010C2850208030F4104020E9
:100020000301030103016B20B008031D18281328E6
:100030003008B700323036206B20B008031D1C2872
:10004000E420B60A3608820700002A2813282D2843
:10005000E82845294008B10013284008B2001328B9
:10006000F930F0000000F00B32280800F1003020D9
:10007000F10B37280800081530200811302008003F
:10008000F500F0398800F41888143B203020F50E74
:100090007508F0398800F41888143B2030200800D7
:1000A00064303620F030F400303088003B200530DA
:1000B00036203B2030203B2008123B2028304020B7
:1000C0000830402001304020063040208030402061
:1000D0000C30402008000F30870007103020071A2E
:1000E00076283730B0000730C0000800871A7D2816
:1000F0003830B0000830C0000800071B84283930B1
:10010000B0000930C0000800871B8A282F30B000DB
:10011000B4000800071487103020071A94283430E0
:10012000B0000430C0000800871A9B283530B000AA
:100130000530C0000800071BA2283630B00006308A
:10014000C0000800871BA8287830B000B400080061
:10015000871407113020071AB2283130B00001305F
:10016000C0000800871AB9283230B0000230C00041
:100170000800071BC0283330B0000330C00008005F
:10018000871BC6282D30B000B40008000715871162
:100190003020071ACF286330B000B4000800871A57
:1001A000D6283030B0000030C0000800071BDB2824
:1001B0003D30B0000800871BE1282B30B000B400B0
:1001C00008008715B00108003708F4144020080023
:1001D0003408B5002B30B502031901293408B500E5
:1001E0002D30B502031905293408B5007830B50261
:1001F000031912293408B5002F30B5020319182944
:10020000132831083207B3002F29031432083102B2
:10021000B300031C0C292F292D30F4144020B309FE
:10022000B30A2F293108B301B307B20B14292F29C0
:10023000B30132080310B30AB102031D20292F298C
:1002400003181B29B3033208B1073308303EF414F6
:100250004020723040203108303E402013283308BF
:10026000B900B80103140A30B902B80A03183429D6
:10027000B907B803380803194029303EF414402068
:100280003908303EF414402013280130F410402087
:04029000B601132878
:02400E00313748
:00000001FF
