:060000000A128A11CB2A4E
:1005760083120313091001300A128A11FC220A128F
:100586008A1102300A128A11DB220A128A11080025
:10059600FD01A001A101A201A301A401A501A601DB
:1005A600A701A801A901AA0183010A128A117E2BBB
:1005B600F1000430F0007008F2005330F0007008CB
:1005C600F300E62AE62A0130F302031DEB2AEC2AA1
:1005D600E62AED2A0130F202031DF22AF32AE02A66
:1005E600F42A0130F102031DF92AFA2ADC2AFB2A31
:1005F6000800F2008312031308080F3972048800FA
:10060600891489107208F00004300310F00DFF3EC3
:10061600031D082B08080F397004880089148910F7
:100626000D30F0007008F100192B192B0130F10282
:10063600031D1E2B1F2B192B202B0800F401F5017F
:10064600242B701C272B282B2E2B7208F40703183B
:10065600F50A7308F50701300310F20DF30DFF3E9E
:10066600031D2F2B01300310F10CF00CFF3E031D70
:10067600362B71087004031D412B422B242B432B70
:100686007508F101F1077408F001F0074A2B08001C
:10069600F40083120313091431307406F00000309D
:1006A600F10071087004003003190130F20072077E
:1006B600870008080F3974048800891489107408A3
:1006C600F00004300310F00DFF3E031D652B0808F3
:1006D6000F3970048800891489100D30F0007008F5
:1006E600F300762B762B0130F302031D7B2B7C2B3C
:1006F600762B7D2B0800831603138113890187014E
:10070600880107309F0083120313091164300A120F
:100716008A11DB220A128A110A128A11B8230A12D6
:100726008A110A128A11BB220A128A112E30FC0083
:100736007C08FD009E2B0A128A1187240A128A1150
:10074600831203132208FC007C08AA003030FC0048
:100756007C08AA072A080A128A11BA250A128A11DF
:100766009E2B9E2B0A128A1100288312031309104E
:100776000F300A128A11DB220A128A1130308312D4
:10078600031388008914891005300A128A11DB22A6
:100796000A128A1183120313891489102130F40076
:1007A6007408F500D72BD72B0130F502031DDC2B7F
:1007B600DD2BD72B831203138914891005300A12F7
:1007C6008A11DB220A128A11203083120313880051
:1007D600891489100D30F4007408F600F32BF32BFE
:1007E6000130F602031DF82BF92BF32BFA2B2830D8
:1007F6000A128A11FC220A128A1108300A128A1178
:10080600FC220A128A110F300A128A11FC220A12DD
:100816008A1106300A128A11FC220A128A1108006D
:10082600F601F11F172C182C212CF009F109F00AFA
:100836000319F10AF6010314F60D212CF31F242CDB
:10084600252C2F2CF209F309F20A0319F30A0130B9
:10085600F4007408F6062F2CF701F80171087004ED
:100866000319362C372C752CF5010314F50D472C7E
:1008760001300310F00DF10DFF3E031D3C2C01303D
:10088600F4007408F507472CF11F4A2C4B2C3B2C1F
:100896004D2C4D2C01300310F70DF80DFF3E031DB6
:1008A6004E2C71087302031D5A2C70087202031C29
:1008B6005D2C5E2C662C7008F2027108031CF30393
:1008C600F3027714662C01300310F10CF00CFF3E96
:1008D600031D672C0130F502031D722C732C4D2C61
:1008E600752C752C7608031D792C7F2CF709F809D1
:1008F600F70A0319F80A7F2C7808F101F10777083F
:10090600F001F007862C080083120313AB01AC013B
:1009160032300A128A11DB220A128A11922C8312B1
:1009260003138601F0308316031386008312031324
:100936000608F90004300310F90CFF3E031D9E2C37
:1009460079080F3A031DA82CA92C922CAA2C323018
:100956000A128A11DB220A128A11B12C0130831283
:1009660003132B062C04031DB92CBA2CBC2C302DDA
:10097600302DA001A1012108803AFF0080307F02BE
:10098600031DC72C04302002031CCA2CCB2CCD2CF3
:10099600B12CB12C83120313860121082004031DF8
:1009A600D52CD62CDA2CAD010314AD0DF92C013063
:1009B60020062104031DE02CE12CE62C0230F90070
:1009C6007908AD00F92C023020062104031DEC2C19
:1009D600ED2CF22C0430F9007908AD00F92C083022
:1009E600F9007908AD00F92CF92CF92C2D0983169C
:1009F60003138600831203130608F900043003105C
:100A0600F90CFF3E031D022D7908FA00FB017A0856
:100A1600A4007B08A5000F30240625040319142D15
:100A2600152D1A2D0130AB000030AC00B12C013071
:100A3600A0070318A10A0030A1072108803AFF0089
:100A460080307F02031D292D04302002031C2C2D2B
:100A56002D2DCD2CB12CB12CB12C831203132408CF
:100A66000F3AF9007908AE000830F0000030F100C6
:100A76002E08F900FA017908F2007A08F3000A1242
:100A86008A1113240A128A11013070067104031D9B
:100A96004D2D4E2D552D0430F90079088312031380
:100AA600AE00A62D0430F0000030F10083120313CF
:100AB6002E08F900FA017908F2007A08F3000A1202
:100AC6008A1113240A128A11013070067104031D5B
:100AD6006D2D6E2D752D0330F900790883120313E1
:100AE600AE00A62D0230F0000030F1008312031391
:100AF6002E08F900FA017908F2007A08F3000A12C2
:100B06008A1113240A128A11013070067104031D1A
:100B16008D2D8E2D952D0230F90079088312031341
:100B2600AE00A62D831203132E08013A031D9C2D39
:100B36009D2DA12DAE010314AE0DA62DAE01A62D41
:100B4600A62DA62DA62D2108FA002008F9000230B0
:100B5600FF000310F90DFA0DFF0BAC2D2E087907D7
:100B6600A2000030031801307A07A3000800FA003B
:100B76007A08313A031DC02DC12DC72D0A128A11DC
:100B8600BB220A128A11FF2F7A08323A031DCC2D96
:100B9600CD2DE82D7D082E3A031DD22DD32DDA2D2D
:100BA600013083120313A6000030A700E12D0130A7
:100BB60083120313A8000030A900E12D31300A1278
:100BC6008A114B230A128A11FF2F7A08333A031D22
:100BD600ED2DEE2D092E7D082E3A031DF32DF42D55
:100BE600FB2D043083120313A6000030A700022E4B
:100BF600043083120313A8000030A900022E3430FB
:100C06000A128A114B230A128A11FF2F7A08343AE4
:100C1600031D0E2E0F2E2A2E7D082E3A031D142E8E
:100C2600152E1C2E073083120313A6000030A700D2
:100C3600232E073083120313A8000030A900232EA9
:100C460037300A128A114B230A128A11FF2F7A08AB
:100C5600353A031D2F2E302E472E7D082E3A031DC2
:100C6600352E362E3B2E83120313A601A701402EE6
:100C760083120313A801A901402E30300A128A11EB
:100C86004B230A128A11FF2F7A08363A031D4C2E7F
:100C96004D2E682E7D082E3A031D522E532E5A2EA7
:100CA600023083120313A6000030A700612E023023
:100CB60083120313A8000030A900612E32300A12F5
:100CC6008A114B230A128A11FF2F7A08373A031D1D
:100CD6006D2E6E2E892E7D082E3A031D732E742ED0
:100CE6007B2E063083120313A6000030A700822E47
:100CF600063083120313A8000030A900822E353077
:100D06000A128A114B230A128A11FF2F7A08383ADF
:100D1600031D8E2E8F2EAA2E7D082E3A031D942E8D
:100D2600952E9C2E083083120313A6000030A700D0
:100D3600A32E083083120313A8000030A900A32EA7
:100D460038300A128A114B230A128A11FF2F7A08A9
:100D5600393A031DAF2EB02E422F3D300A128A11AA
:100D66004B230A128A11332F831203132808A6076E
:100D76000318A70A2908A7073030A6070318A70AE9
:100D86000030A70726080A128A11BA250A128A1104
:100D9600FF2F831203132808A6022908031CA703A2
:100DA600A7023030A6070318A70A0030A7072608AF
:100DB6000A128A11BA250A128A11FF2F8312031307
:100DC6002908F101F1072808F001F0072708F301C7
:100DD600F3072608F201F2070A128A1121230A12E2
:100DE6008A11710883120313A701A7077008A601C9
:100DF600A6073030A6070318A70A0030A70726085B
:100E06000A128A11BA250A128A11FF2F83120313B6
:100E16002908F101F1072808F001F0072708F30176
:100E2600F3072608F201F2070A128A1113240A129E
:100E36008A11710883120313A701A7077008A60178
:100E4600A6073030A6070318A70A0030A70726080A
:100E56000A128A11BA250A128A11FF2FFF2FFF2FB5
:100E66007D082B3A0319B72E063A0319CC2E023AFF
:100E76000319092F573A0319E12EFF2FFF2F7A087E
:100E86003A3A031D472F482F632F7D082E3A031D3C
:100E96004D2F4E2F552F033083120313A60000301B
:100EA600A7005C2F033083120313A8000030A900AB
:100EB6005C2F33300A128A114B230A128A11FF2F34
:100EC6007A083B3A031D682F692F842F7D082E3A36
:100ED600031D6E2F6F2F762F063083120313A60085
:100EE6000030A7007D2F063083120313A8000030C0
:100EF600A9007D2F36300A128A114B230A128A1155
:100F0600FF2F7A083C3A031D892F8A2FA52F7D08CB
:100F16002E3A031D8F2F902F972F0930831203131C
:100F2600A6000030A7009E2F093083120313A800E5
:100F36000030A9009E2F39300A128A114B230A125B
:100F46008A11FF2F7A083D3A031DAA2FAB2FB62F21
:100F56002B30F9007908FD002B300A128A114B2339
:100F66000A128A11FF2F7A083E3A031DBB2FBC2FA7
:100F7600C72F2D30F9007908FD002D300A128A118D
:100F86004B230A128A11FF2F7A083F3A031DCC2FF2
:100F9600CD2FD82F7830F9007908FD0078300A1265
:100FA6008A114B230A128A11FF2F7A08403A031D31
:100FB600DD2FDE2FE92F2F30F9007908FD002F30C5
:100FC6000A128A114B230A128A11FF2F7A080A1273
:100FD6008A114B230A128A11FF2FFF2FFF2FFF2F93
:100FE600FF2FFF2FFF2FFF2FFF2FFF2FFF2FFF2F8B
:0A0FF600FF2FFF2FFF2FFF2F080031
:02400E007AFF37
:00000001FF
