:060000000A168A11542FBC
:10000C00F3008312031309107308803E0A128A1539
:10001C0077200A128A11080083120313A7000730F5
:10002C00FC007C08A70541309F000E30831603139B
:10003C009F000A300A168A11DF270A128A118312CE
:10004C0003132708FC0002300310FC0DFF3E031DB8
:10005C002A2803107C0DFD007D089F041F153628EF
:10006C001F1939283A2836283B281E080A168A11E7
:10007C0081270A128A11780883120313A4007908C5
:10008C00A5007A08A6004A28080083120313540816
:10009C00F0005508F1005608F2000030F300003073
:1000AC00F4000030F5000A128A15C8220A128A11CF
:1000BC000318612862287028213083120313EE0084
:1000CC000030EF000030D4000030D5000030D600F6
:1000DC001D291D2983120313560855045404031DAE
:1000EC007828792885282230EE000030EF00003087
:1000FC00D4000030D5000030D6001D291D29003059
:10010C00B3008030B400BF30B5000030A300003025
:10011C00A4004030A5005830D7005708F30054080D
:10012C00F0005508F1005608F2000A128A15232136
:10013C000A128A11700883120313A6007108A70013
:10014C007208A8000A128A1104220A128A11831258
:10015C0003132308B6002408B7002508B8000A12B8
:10016C008A1153250A128A11831203133308D400FF
:10017C003408D5003508D600FF30D8070318D90A43
:10018C00FF30D9075408CA005508CB005608CC00DC
:10019C001F30D7005708CD000830CE000030CF00FC
:1001AC000A128A1523240A128A11831203134A088D
:1001BC00D4004B08D5004C08D6005408B3005508A1
:1001CC00B4005608B5007230A3003130A4003F30A3
:1001DC00A5005908FC01FC075808FB01FB070A1293
:1001EC008A159C200A128A117B0883120313A6001D
:1001FC007C08A7007D08A8000A128A1104220A12A2
:10020C008A11831203132308B6002408B7002508AB
:10021C00B8000A128A1153250A128A118312031389
:10022C003308D4003408D5003508D6001D29080041
:10023C008316031388018901860103309F00FF3068
:10024C008500871707130130F4000030F5000A16FB
:10025C008A11BF270A128A110A128A1507220A125A
:10026C008A110A168A1144270A128A114830F3009F
:10027C008030F4000A128A15C6200A128A11E8305E
:10028C000A168A11DF270A128A11831603138113A7
:10029C000A168A112C270A128A11F4300A168A11AE
:1002AC00DF270A128A110A168A1144270A128A11A8
:1002BC008B13602964300A168A11DF270A128A11FF
:1002CC0000300A128A1106200A128A1100300A1212
:1002DC008A1112200A128A1183120313240883161E
:1002EC000313B80083120313250883160313B900F4
:1002FC0083120313260883160313BA000030F80088
:10030C004C30F9004230FA003808FB003908FC0088
:10031C003A08FD000A128A153A270A128A1178083F
:10032C0083160313B8007908B9007A08BA003808A4
:10033C00A8003908A9003A08AA00BB30831203139D
:10034C00ED006D0883160313AB000230AC000030D7
:10035C00AD000A128A1119240A128A11BB30F3005B
:10036C000030F4000A128A15C6200A128A110030D5
:10037C00F0000030F1004030F2008316031338080F
:10038C00F3003908F4003A08F5000A128A15C8225D
:10039C000A128A110318D329D429EC290A168A11B6
:1003AC0044270A128A115430F3008030F4000A12E8
:1003BC008A15C6200A128A11E8300A168A11DF271C
:1003CC000A128A1183120313861460293A30F3003F
:1003DC008030F4000A128A15C6200A128A11643081
:1003EC000A168A11DF270A128A1183120313861048
:1003FC006029602960290A128A11002883120313CC
:10040C002308A9002408AA002508AB0003102A0D14
:10041C002B0DAC002C08AD00AD08031D162A172AB5
:10042C001F2A0030A3000030A4000030A500F12AE0
:10043C00F12A2608A9002708AA002808AB000310F7
:10044C002A0D2B0DAC002C08B200B208031D2F2A6C
:10045C00302A382A0030A3000030A4000030A50058
:10046C00F12AF12A32087B3EA9002908AD0723089E
:10047C00A9002408AA002508AB0010300310AB0C0F
:10048C00AA0CA90CFF3E031D442A2908AC002C0819
:10049C00B2002608A9002708AA002808AB001030D3
:1004AC000310AB0CAA0CA90CFF3E031D562A2908FD
:1004BC00AC002C08B2068030A9002908B205A4179C
:1004CC00A717FF30A605FF30A7050030A8050030A0
:1004DC00AE000030AF000030B0000730A900290892
:1004EC00B100782A231C7B2A7C2A8D2A2608AE0789
:1004FC00270803110318270A0319852AAF072808B0
:10050C0003110318280A03198C2AB0078D2A01300D
:10051C000310A50CA40CA30CFF3E031D8E2A013066
:10052C000310A60DA70DA80DFF3E031D962A013042
:10053C00B102031DA22AA32A782AA42A0930A900F1
:10054C002908B100A92A231CAC2AAD2ABE2A2608E8
:10055C00AE07270803110318270A0319B62AAF0799
:10056C00280803110318280A0319BD2AB007BE2A4C
:10057C0001300310A50CA40CA30CFF3E031DBF2AD5
:10058C0001300310B00CAF0CAE0CFF3E031DC72A9C
:10059C000130B102031DD32AD42AA92AD52A2E0848
:1005AC00F0002F08F1003008F2002D08A9002908EE
:1005BC00F3003208AA002A08F4000A128A15A823AC
:1005CC000A128A11700883120313A3007108A40085
:1005DC007208A500F12A080083160313A3018312E5
:1005EC000313660865046404031DFD2AFE2A232BED
:1005FC000030F0000030F1000030F2006708F3002A
:10060C006808F4006908F5000A128A15C8220A1253
:10061C008A11031C122B132B192B21308312031359
:10062C00EE000030EF00003083120313E4000030C2
:10063C00E5000030E600182C182C690868046704E3
:10064C00031D292B2A2B322B0030E4008030E500CF
:10065C003F30E600182C182C6408F0006508F100F7
:10066C006608F2000030F3000030F4000030F500B2
:10067C000A128A15C8220A128A110318462B472B14
:10068C00A82B831203136708F0006808F1006908AF
:10069C00F2000A128A152A250A128A117308831687
:1006AC000313A7007208A6007108A5007008A40027
:1006BC002708FB002608FA002508F9002408F80092
:1006CC000A128A15F1200A128A118312031369087F
:1006DC007A06031D772B68087906031D772B6708AC
:1006EC00780603197A2B7B2B872B2130EE000030F8
:1006FC00EF000030E4000030E5000030E600182C7C
:10070C00182C831603132408013983120313EA00EF
:10071C006A0883160313A300831203136408F800FA
:10072C006508F9006608FA000A168A1138270A12B9
:10073C008A11780883120313E4007908E5007A081B
:10074C00E600A82B831203136408D4006508D500B7
:10075C006608D6000A128A114B200A128A118312DB
:10076C000313540883160313A000831203135508B4
:10077C0083160313A1008312031356088316031365
:10078C00A200831203136708A3006808A400690879
:10079C00A50083160313200883120313A6008316E7
:1007AC000313210883120313A700831603132208D3
:1007BC0083120313A8000A128A1104220A128A1146
:1007CC00831203132308DA002408DB002508DC005D
:1007DC000A128A1199260A128A11831203135A08D3
:1007EC00E4005B08E5005C08E600831603132308AD
:1007FC00031D012C182C831203136408F8006508E0
:10080C00F9006608FA000A168A1138270A128A11AA
:10081C00780883120313E4007908E5007A08E600EF
:10082C00182C182C0800831603132808F00029082C
:10083C00F1002A08F2000A128A152A250A128A11D6
:10084C00710883160313B201B2077008B101B10726
:10085C00280883120313B300831603132908831289
:10086C000313B400831603132A0883120313B50071
:10087C00831603133208FC01FC073108FB01FB074C
:10088C000A128A159C200A128A117B08F8007C082F
:10089C00F9007D08FA000A168A1138270A128A1103
:1008AC00780883120313B6007908B7007A08B800E9
:1008BC000A128A1153250A128A1183120313330860
:1008CC0083160313B5008312031334088316031322
:1008DC00B60083120313350883160313B7003208CE
:1008EC0083120313A101A10783160313310883128A
:1008FC000313A001A007831603132B088312031301
:10090C00EB006B08A2000030A3000030A4000A1218
:10091C008A15A2240A128A11831203132108831642
:10092C000313B401B40783120313200883160313B3
:10093C00B301B3072D082C040319A52CA62C522D9A
:10094C002E3083120313EB008316031333082B078B
:10095C0083120313EC006C0884006B088313800073
:10096C00831603132D08FC01FC072C08FB01FB0765
:10097C000A128A159C200A128A117B08831203130F
:10098C00E7007C08E8007D08E9000030E400203036
:10099C00E5004130E6000A128A11F2220A128A118D
:1009AC0083120313640883160313AE00831203131C
:1009BC00650883160313AF008312031366088316AE
:1009CC000313B000350883120313A300831603131B
:1009DC00360883120313A4008316031337088312FB
:1009EC000313A500831603132E0883120313A6000A
:1009FC00831603132F0883120313A7008316031304
:100A0C00300883120313A8000A128A1104220A1256
:100A1C008A1183120313230883160313B500831260
:100A2C000313240883160313B6008312031325083B
:100A3C0083160313B7003508F0003608F1003708A9
:100A4C00F2000A128A152A250A128A1171088312D9
:100A5C000313A101A1077008A001A00783160313BB
:100A6C0033082B07013E83120313EB006B08A20023
:100A7C00831603132D0883120313A401A4078316F2
:100A8C0003132C0883120313A301A3070A128A155C
:100A9C00A2240A128A11522D080083120313330860
:100AAC00B9003408BA003508BB0003103A0D3B0DF1
:100ABC00BC003C08BF003608B9003708BA0038083B
:100ACC00BB0003103A0D3B0DBC003C08BE003F08B8
:100ADC00031D712D822D3E083F020318762D772DB4
:100AEC008A2D3F03FF3A3E07B90019303902031C27
:100AFC00802D812D8A2D822D3608B3003708B40045
:100B0C003808B500982E982E3E08031D8E2D9E2D6C
:100B1C003F083E020318932D942D9F2D3E03FF3A60
:100B2C003F07B90019303902031C9D2D9E2D9F2DB6
:100B3C00982E0630B9003908BD00B51FA62DA72D7B
:100B4C00A82DBD17B81FAB2DAC2DAD2D3D17B4176F
:100B5C00FF30B305FF30B4050030B505B717FF30D3
:100B6C00B605FF30B7050030B8053E083F02031844
:100B7C00C02DC12DF22DC22D01300310B60DB70DB5
:100B8C00B80DFF3E031DC32D0130BE023E083F06CB
:100B9C000319D12DD22DEA2D0130BD023D080739A4
:100BAC00031DD92DDA2DC22DEA2DEA2DEA2D0130A7
:100BBC000310B50CB40CB30CFF3E031DDE2D01303D
:100BCC00B9003908BF07EA2D3F083E06031DEF2D7B
:100BDC00F02DDD2D292E292E3F083E020318F72D6E
:100BEC00F82D292EF92D01300310B30DB40DB50DD0
:100BFC00FF3E031DFA2D0130BF023E083F060319CC
:100C0C00082E092E212E0130BD023D080739031D87
:100C1C00102E112EF92D212E212E212E01300310F4
:100C2C00B80CB70CB60CFF3E031D152E0130B900E5
:100C3C003908BE07212E3F083E06031D262E272EFF
:100C4C00142E292E292EBD1F2C2E2D2E3E2EFF307C
:100C5C00B306FF30B406FF30B5060130B3070030E1
:100C6C0003180130B407003003180130B5073E2ECD
:100C7C003D1F412E422E532EFF30B606FF30B706D5
:100C8C00FF30B8060130B607003003180130B70743
:100C9C00003003180130B807532EBD013308B607D6
:100CAC00340803110318340A03195D2EB7073508ED
:100CBC0003110318350A0319642EB807B81F672EE1
:100CCC00682E7C2EFF30B606FF30B706FF30B80614
:100CDC000130B607003003180130B7070030031895
:100CEC000130B807BD010314BD0D7C2E3608F00091
:100CFC003708F1003808F2003F08B9003908F30052
:100D0C003D08BA003A08F4000A128A15A8230A1200
:100D1C008A11700883120313B3007108B4007208AF
:100D2C00B500982E0800831203135C085B045A0468
:100D3C00031DA12EA22EAA2E0030DA008030DB007B
:100D4C003F30DC00FF2FFF2F7230F0003130F1000C
:100D5C004430F2005A08F3005B08F4005C08F5001C
:100D6C000A128A15C8220A128A110318BE2EBF2E27
:100D7C00D62E223083120313EE000030EF00CD2E5E
:100D8C000030DA008030DB007F30DC00FF2FFF30DA
:100D9C00DA007F30DB007F30DC00FF2FFF2FFF2FCE
:100DAC00831203135A08F0005B08F1005C08F20090
:100DBC004930F3003A30F400C430F5000A128A15B9
:100DCC00C8220A128A110318EC2EED2EFB2E2230AB
:100DDC0083120313EE000030EF000030DA00003015
:100DEC00DB000030DC00FF2FFF2F831203135A08A7
:100DFC00F0005B08F1005C08F2000030F3000030FA
:100E0C00F4000030F5000A128A15C8220A128A1161
:100E1C000030031C013083120313DD005D08E30076
:100E2C006308031D1A2F2E2F5A08F8005B08F900CF
:100E3C005C08FA000A168A1138270A128A117808F7
:100E4C0083120313DA007908DB007A08DC002E2FFA
:100E5C00AA30A300B830A4003F30A5005A08A60061
:100E6C005B08A7005C08A8000A128A1104220A1267
:100E7C008A11831203132308DA002408DB002508E7
:100E8C00DC005A08C0005B08C1005C08C2000A12F2
:100E9C008A15CE250A128A11831203134008F0001A
:100EAC004108F1004208F2000A128A152A250A129A
:100EBC008A11710883120313E201E2077008E10141
:100ECC00E1076208FC01FC076108FB01FB070A1241
:100EDC008A159C200A128A117B0883120313C00006
:100EEC007C08C1007D08C2005A08C3005B08C4001E
:100EFC005C08C5000A168A11A0270A128A118312EF
:100F0C0003134008DA004108DB004208DC005A08F1
:100F1C00CA005B08CB005C08CC000130DD005D082A
:100F2C00CD000930CE000030CF000A128A152324E0
:100F3C000A128A11831203134A08C0004B08C1001D
:100F4C004C08C2006208C401C4076108C301C3078E
:100F5C000A128A1576260A128A1183120313400884
:100F6C00DA004108DB004208DC006308031DBF2FD8
:100F7C00FF2FC82FC82F0030DE008030DF007F30FD
:100F8C00E000CE2FFF30DE007F30DF007F30E0004E
:100F9C005C086006031DD82F5B085F06031DD82F65
:100FAC005A085E06031DDB2FDC2FE42F0030DA001D
:100FBC000030DB000030DC00FF2FFF2F5A08F80058
:100FCC005B08F9005C08FA000030FB008030FC0084
:100FDC003F30FD000A128A153A270A128A11780846
:100FEC0083120313DA007908DB007A08DC00FF2F88
:100FFC00FF2F0800FF1B0A2883137F188317000894
:10100C00840A0319FF0A080008308A000408840ABD
:10101C0082070034003480343F34723431343F342E
:10102C00FE3475343E34583463343D3495341D34B9
:10103C003C34C534AE343A347934213439349434B4
:10104C00803437349334A73435345634153434342F
:10105C00003400340034003480343F34F034FF3436
:10106C00BE34E234A9343E3483347634BE34AE34E8
:10107C002B343E343C34C334BD34D23413343D347D
:10108C007834D334BB346C346534733473342034D7
:10109C007434683461346E34203432342E34303449
:1010AC0000345334743461347234743469346E34AF
:1010BC0067342E342E342E34003462346934673461
:1010CC00673465347234203432342E343034003486
:1010EE00F2008312031308080F3972048800891462
:1010FE0089107208F00004300310F00DFF3E031D3E
:10110E00832808080F3970048800891489100D305F
:10111E00F0007008F100942894280130F102031DAC
:10112E0099289A2894289B28080083120313A20159
:10113E00FC1FA228A328AC28FB09FC09FB0A0319F3
:10114E00FC0AA2010314A20DAC287B08F0007C0857
:10115E00F100F2018E30A0002008F3002208A10059
:10116E002108F4000A128A15A8230A128A1570089B
:10117E00FB007108FC007208FD00C52808008312F0
:10118E0003130914DF287408FF00730884000A1281
:10119E008A1500200A128A150A128A1577200A1259
:1011AE008A150130F3070318F40A0030F407DF281C
:1011BE00740883120313FF00730884000A128A1541
:1011CE0000200A128A150038031DEE28EF28CA28BF
:1011DE00F02808008E30FC007C08FD000429013048
:1011EE000310FB0CFA0CF90CF80CFF3E031DF7284C
:1011FE000130FC007C08FD070429FF307B05031D30
:10120E0009290A29F6280B297808F0007908F10037
:10121E007A08F2007D08FC007C08F300F4010A1243
:10122E008A15A8230A128A157008F8007108F900A9
:10123E007208FA0022290800720871047004031D56
:10124E0029292A293A297308840000308313800043
:10125E00840A003080000030F0000030F1000030D1
:10126E00F2006C296C2972087F39F400F501013007
:10127E00FF000310F40DF50DFF0B402973088400D9
:10128E00740883138000840A75088000710D710D37
:10129E000139F400F5017308840074088004840A8F
:1012AE00750880047308840082308007840F00085C
:1012BE000318000AFF00FF307F07800084037208C6
:1012CE0080393F38F200F1136C290800FB00F7015A
:1012DE00F8017008FF3EF90071080318013EFF3E49
:1012EE00FA00AA2977087B07F2007208840083139C
:1012FE000008F300F4017308F5007408F60079088D
:10130E007B07F200720884000008F30077087B0761
:10131E00F40074088400730880007508F2007908E0
:10132E007B07F30073088400720880000130F70712
:10133E000318F80A0030F807FF30F9070318FA0A05
:10134E00FF30FA07AA297808803AF2007A08803A24
:10135E007202031DB42979087702031CB729B82934
:10136E007929B929080083120313A7018E30A4002E
:10137E002408A600A31FC429C529E329A009A10991
:10138E00A209A309A00A0319A10A0319A20A0319A3
:10139E00A30AA7010314A70DE329E32901300310C3
:1013AE00A30CA20CA10CA00CFF3E031DD6290130EC
:1013BE00A4002408A607E329FF302305031DE8290E
:1013CE00E929D529EA292008F0002108F100220890
:1013DE00F2002608A4002408F3002708A50025081B
:1013EE00F4000A128A15A8230A128A1570088312AD
:1013FE000313A0007108A1007208A200062A0800BB
:10140E008312031309100F300A168A11DF270A12EE
:10141E008A15303083120313880089148910053021
:10142E000A168A11DF270A128A15831203138914EA
:10143E0089102130F4007408F500262A262A01307E
:10144E00F502031D2B2A2C2A262A83120313891434
:10145E00891005300A168A11DF270A128A152030E4
:10146E00831203138800891489100D30F400740858
:10147E00F600422A422A0130F602031D472A482A64
:10148E00422A492A28300A128A1577200A128A150A
:10149E0008300A128A1577200A128A150F300A129E
:1014AE008A1577200A128A1506300A128A157720B5
:1014BE000A128A150800F601F31F662A672A702A97
:1014CE00F209F309F20A0319F30AF6010314F60DF1
:1014DE00702AF11F732A742A7A2AF009F109F00A88
:1014EE000319F10A7A2A7108700403197F2A802AD7
:1014FE00B62AF5010314F50D902A01300310F00DF4
:10150E00F10DFF3E031D852A0130F4007408F50726
:10151E00902AF11F932A942A842A962A962A7108D1
:10152E007302031D9C2A70087202031C9F2AA02AB4
:10153E00A72A7008F2027108031CF303F302A72A0C
:10154E0001300310F10CF00CFF3E031DA82A0130F0
:10155E00F502031DB32AB42A962AB62AB62A7608AD
:10156E00031DBA2AC02AF209F309F20A0319F30A73
:10157E00C02A7308F101F1077208F001F007C72ABB
:10158E000800F21FCB2ACC2AF22A0030F6000030D7
:10159E00F7008030F8007009F9007109FA0072093D
:1015AE00FB00F90A0319FA0A0319FB0A7908F60770
:1015BE007A0803187A0FE42AE52AF7077B0803183E
:1015CE007B0FEA2AEB2AF8077608F0007708F1007D
:1015DE007808F200F22AF51FF52AF62A1C2B0030A5
:1015EE00F6000030F7008030F8007309F900740936
:1015FE00FA007509FB00F90A0319FA0A0319FB0A26
:10160E007908F6077A0803187A0F0E2B0F2BF707B7
:10161E007B0803187B0F142B152BF8077608F300A5
:10162E007708F4007808F5001C2B8030F206803025
:10163E00F50675087202031D2A2B74087102031D2C
:10164E002A2B7308700203182D2B2E2B302B031010
:10165E00332B0314332B332B0800F601F11F382BD9
:10166E00392B422BF009F109F00A0319F10AF601A0
:10167E000314F60D422BF31F452B462B502BF2096C
:10168E00F309F20A0319F30A0130F4007408F6069E
:10169E00502BF701F801710870040319572B582BC2
:1016AE00962BF5010314F50D682B01300310F00D88
:1016BE00F10DFF3E031D5D2B0130F4007408F5079C
:1016CE00682BF11F6B2B6C2B5C2B6E2B6E2B013052
:1016DE000310F70DF80DFF3E031D6F2B71087302FB
:1016EE00031D7B2B70087202031C7E2B7F2B872B16
:1016FE007008F2027108031CF303F3027714872BB0
:10170E0001300310F10CF00CFF3E031D882B01304D
:10171E00F502031D932B942B6E2B962B962B76088E
:10172E00031D9A2BA02BF709F809F70A0319F80ADB
:10173E00A02B7808F101F1077708F001F007A72B2D
:10174E0008007308031DAC2BB42B720871047004CF
:10175E00031DB22BB32BCA2BB42B0030F00000307C
:10176E00F1000030F200222C222CCA2B0130F500A1
:10177E007508F30701300310F20CF10CF00CFF3E6C
:10178E00031DC22BCA2BFE307205031DCF2BD02B8F
:10179E00BD2BE82BE82B0130F5007508F30701305F
:1017AE00F007003003180130F10700300318013044
:1017BE00F20701300310F20CF10CF00CFF3E031D8A
:1017CE00E12BFF307205031DED2BEE2BD22BFB2BE5
:1017DE00FB2B0130F30201300310F00DF10DF20D71
:1017EE00FF3E031DF32BFB2BF11FFE2BFF2BF02BCC
:1017FE007318022C032C092CFF30F0057F30F105F5
:10180E00FF30F2050310F30C7308F500F601F70133
:10181E0010300310F50DF60DF70DFF3E031D102CC5
:10182E007508F0047608F1047708F2047408031DB5
:10183E00212C222CF2170800033083120313D00040
:10184E005008F0004E080A168A1169270A128A15E6
:10185E00831203134D0784000A128A150A200A12F6
:10186E008A15D1000A128A150A200A128A15D20088
:10187E000A128A150A200A128A15D300932C0330F5
:10188E00D0005008F000FF30CE070318CF0AFF300B
:10189E00CF074E080A168A1169270A128A15831273
:1018AE0003134D0784000A128A150A200A128A159C
:1018BE00B3000A128A150A200A128A15B4000A12F7
:1018CE008A150A200A128A15B5005108A30052087B
:1018DE00A4005308A5004A08A6004B08A7004C0810
:1018EE00A8000A128A1104220A128A1583120313FF
:1018FE002308B6002408B7002508B8000A128A117A
:10190E0053250A128A15831203133308D1003408A3
:10191E00D2003508D300932C4F084E04031D982C8B
:10192E00992C462C9A2C5108CA005208CB00530809
:10193E00CC00A12C080083120313A701A801E12CEF
:10194E000A30F0000030F1002108F301F3072008FF
:10195E00F201F2070A128A1562220A128A1570081B
:10196E00303E83120313A50027082207A60026087F
:10197E0084002508831380000130A7070318A80AE6
:10198E000030A8070A30F0000030F1002108F30102
:10199E00F3072008F201F2070A128A1534230A12FD
:1019AE008A15710883120313A101A1077008A00103
:1019BE00A007E12C21082004031DE62CE72CA72C00
:1019CE00FC2CFC2C303083120313A50027082207B1
:1019DE00A600260884002508831380000130A7077F
:1019EE000318A80A0030A807FC2C2808803AA50086
:1019FE002408803A2502031D062D23082702031C06
:101A0E00092D0A2DE92C0B2D831203132808F10141
:101A1E00F1072708F001F00722080A128A156D2136
:101A2E000A128A158312031327082207A500250818
:101A3E008400831380012808A101A1072708A001B3
:101A4E00A007292D08007008F4007108F50072082F
:101A5E00F6000310750D760DF7007708FD00FD08F2
:101A6E00031D3A2D3B2D452D0030F3000030F200C2
:101A7E000030F1000030F000CD2DCD2D7008F400B7
:101A8E007108F5007208F60017300310F60CF50C0D
:101A9E00F40CFF3E031D4C2D7408F7007708F80078
:101AAE00F117FF30F005FF30F1050030F205700838
:101ABE00F9007108FA007208FB00FC018E30FD027D
:101ACE00FD1F6A2D6B2D902D7D08803A8F3E0318D9
:101ADE00712D722D7D2D0030F3000030F20000309C
:101AEE00F1000030F000CD2DCD2D7D2D01300310F5
:101AFE00FC0CFB0CFA0CF90CFF3E031D7E2D013085
:101B0E00F4007408FD07031D8D2D8E2D7D2DB42D33
:101B1E00B42D18307D02031C952D962DAD2D003061
:101B2E00F3000030F2000030F1000030F000CD2D57
:101B3E00CD2DAD2D0130F4000310F90DFA0DFB0D76
:101B4E00FC0DF40BA32D0130FD02AD2DFD08031D80
:101B5E00B12DB22DA12DB42DB42D7808031DB82DA5
:101B6E00C42DF909FA09FB09FC09F90A0319FA0A45
:101B7E000319FB0A0319FC0AC42D7C08F3007B0829
:101B8E00F2007A08F1007908F000CD2D08008312DA
:101B9E0003134008F0004108F1004208F2004730FC
:101BAE00C3004308F3000A128A1523210A128A156C
:101BBE0083120313C81FE42DE52D0E2E4008F000EE
:101BCE004108F1004208F2000030F3000030F4004A
:101BDE000030F5000A128A15C8220A128A15031857
:101BEE00F92DFA2D042E003083120313C00080301D
:101BFE00C100BF30C200752E752E00308312031344
:101C0E00C0000030C1000030C200752E752E0030AD
:101C1E004802153003194702031C162E172E182ED4
:101C2E00752E4008F0004108F1004208F2000A1239
:101C3E008A152A250A128A15730883120313A30024
:101C4E007208A2007108A1007008A0000A128A157D
:101C5E00BA210A128A15831203132008C400210820
:101C6E00C5002208C6004008F0004108F1004208F5
:101C7E00F2004408F3004508F4004608F5000A1285
:101C8E008A15C8220A128A1503184E2E4F2E6C2E54
:101C9E00003083120313B3008030B400BF30B500A0
:101CAE004408B6004508B7004608B8000A128A1163
:101CBE0053250A128A15831203133308C000340801
:101CCE00C1003508C200752E752E83120313440809
:101CDE00C0004508C1004608C200752E08008312D8
:101CEE000313420841044004031D7E2E7F2E872ECF
:101CFE000030C0000030C1000030C200392F392F33
:101D0E0042087F39C500C6010130FF000310C50D22
:101D1E00C60DFF0B8D2E4508C3070318C40A4608CF
:101D2E00C407410D410D0139C500C6014508C30761
:101D3E000318C40A4608C407C41FA62EA72EB42E25
:101D4E002230EE000030EF000030C0000030C10045
:101D5E000030C200392F392F382F4408803AFF0047
:101D6E0081307F02031DBD2E00304302031CC02EA6
:101D7E00C12E1A2F223083120313EE000030EF0013
:101D8E004008F0004108F1004208F2000030F30074
:101D9E000030F4000030F5000A128A15C8220A122B
:101DAE008A150318DB2EDC2E0E2FE72EE72E0030C1
:101DBE0083120313C7008030C8007F30C900F02E95
:101DCE00FF3083120313C7007F30C8007F30C90075
:101DDE00F02E4708F8004808F9004908FA000A16DC
:101DEE008A1138270A128A15780883120313C00045
:101DFE007908C1007A08C200392F392F382F0E2FDB
:101E0E000030C0008030C1007F30C200392FFF305B
:101E1E0083120313C0007F30C1007F30C200392F00
:101E2E00392F392F382F831203134408C600430865
:101E3E00C5000130FF00460DC60CC50CFF0B222F4E
:101E4E004208450680394506C20043080139C500DF
:101E5E00C50CC50C410845067F394506C100382F13
:101E6E00382F392F08007B0883120313A0007C083B
:101E7E00A1007D08A2000310210D220DA30023084E
:101E8E00A800A808031D4C2F4D2F552F0030F80029
:101E9E000030F9000030FA00FF2FFF2F7808A00065
:101EAE007908A1007A08A2000310210D220DA300CB
:101EBE002308A900A908031D652F662F6E2F003079
:101ECE00F8000030F9000030FA00FF2FFF2F00302D
:101EDE00A5000030A6000030A70089302907A00019
:101EEE002008A8027B08A0007C08A1007D08A200A3
:101EFE0010300310A20CA10CA00CFF3E031D802F6E
:101F0E002008A3002308A9007808A0007908A100E2
:101F1E007A08A20010300310A20CA10CA00CFF3EF8
:101F2E00031D922F2008A3002308A9068030A000CD
:101F3E002008A905FC17FF30FB05FF30FC0500301B
:101F4E00FD05F917FF30F805FF30F9050030FA05E9
:101F5E001830A0002008A400B42F01300310A50DE6
:101F6E00A60DA70DFF3E031DB52F7A087D02031D9A
:101F7E00C62F79087C02031DC62F78087B02031C2E
:101F8E00C92FCA2FD62F7808FB027908031C790FA8
:101F9E00FC027A08031C7A0AFD022514D62F0130A2
:101FAE000310FB0DFC0DFD0DFF3E031DD72F013061
:101FBE00A402031DE32FE42FB42FE52F2508F00014
:101FCE002608F1002708F2002808A0002008F300D8
:101FDE002908A1002108F4000A128A15A8230A1262
:101FEE008A157008F8007108F9007208FA00FF2FC0
:021FFE000800D9
:102E58004130831203139F000E30831603139F0023
:102E6800831203131F1408007A08790478040319DD
:102E78003E2F3F2F422F8030FA06422F432F080063
:102E880083120313091001300A128A1577200A16D3
:102E98008A1102300A168A11DF270A168A110800D9
:102EA800EE01EF0183160313B801B901BA01BB01A2
:102EB800BC01BD01BE01BF01C001C101C201C30106
:102EC800C40183010A128A111E29F300F201731C3E
:102ED8006E2F6F2F742F7008F1007108F207742F8E
:102EE8000310F00D0310F30CF308031D7C2F7D2F46
:102EF8006B2F7E2F7208802F0800FB007B0883123F
:102F08000313A000A101A2012008F0002108F1008C
:102F18002208F2008E30A3002308F300F4010A12FD
:102F28008A15A8230A168A117008F8007108F90092
:102F38007208FA009F2F0800803083120313C2061C
:102F48004308B3004408B4004508B5004008B6007B
:102F58004108B7004208B8000A128A1153250A1618
:102F68008A11831203133308C0003408C1003508DE
:102F7800C200BE2F0800F701F801CF2FE8300A166B
:102F88008A11DF270A168A110130F7070318F80A91
:102F98000030F807CF2F7808803AF6007508803A95
:102FA8007602031DD92F74087702031CDC2FDD2F4E
:102FB800C22FDE2F0800F1000430F0007008F20084
:102FC8005330F0007008F300EA2FEA2F0130F302C3
:102FD800031DEF2FF02FEA2FF12F0130F202031D0E
:102FE800F62FF72FE42FF82F0130F102031DFD2FE4
:082FF800FE2FE02FFF2F08005F
:02400E007AFF37
:00000001FF
