:060000000A168A11652FAB
:1000120001340034831203134008F0004108F10058
:100022004208F2004730C3004308F3000A128A155F
:10003200EC200A128A1183120313C81F21282228D6
:100042004B284008F0004108F1004208F20000305D
:10005200F3000030F4000030F5000A128A159122F4
:100062000A128A11031836283728412800308312D1
:100072000313C0008030C100BF30C200B228B228D2
:10008200003083120313C0000030C1000030C200F0
:10009200B228B22800304802153003194702031C67
:1000A200532854285528B2284008F0004108F1008E
:1000B2004208F2000A128A15F3240A128A117308FE
:1000C20083120313A3007208A2007108A100700832
:1000D200A0000A128A1583210A128A1183120313BD
:1000E2002008C4002108C5002208C6004008F0000C
:1000F2004108F1004208F2004408F3004508F40008
:100102004608F5000A128A1591220A128A1103186A
:100112008B288C28A928003083120313B300803067
:10012200B400BF30B5004408B6004508B700460821
:10013200B8000A128A1106240A128A1183120313C2
:100142003308C0003408C1003508C200B228B22802
:10015200831203134408C0004508C1004608C200C8
:10016200B2280800831203132308A9002408AA0056
:100172002508AB0003102A0D2B0DAC002C08AD0096
:10018200AD08031DC528C628CE280030A3000030C4
:10019200A4000030A500A029A0292608A90027084C
:1001A200AA002808AB0003102A0D2B0DAC002C0866
:1001B200B200B208031DDE28DF28E7280030A300C2
:1001C2000030A4000030A500A029A02932087B3EFF
:1001D200A9002908AD072308A9002408AA002508B8
:1001E200AB0010300310AB0CAA0CA90CFF3E031D90
:1001F200F3282908AC002C08B2002608A900270819
:10020200AA002808AB0010300310AB0CAA0CA90CF2
:10021200FF3E031D05292908AC002C08B2068030D8
:10022200A9002908B205A417A717FF30A605FF30B9
:10023200A7050030A8050030AE000030AF00003046
:10024200B0000730A9002908B1002729231C2A2958
:100252002B293C292608AE07270803110318270A71
:1002620003193429AF07280803110318280A0319B0
:100272003B29B0073C2901300310A50CA40CA30CA8
:10028200FF3E031D3D2901300310A60DA70DA80D49
:10029200FF3E031D45290130B102031D5129522998
:1002A200272953290930A9002908B1005829231CFC
:1002B2005B295C296D292608AE072708031103185C
:1002C200270A03196529AF07280803110318280A0A
:1002D20003196C29B0076D2901300310A50CA40C79
:1002E200A30CFF3E031D6E2901300310B00CAF0CAE
:1002F200AE0CFF3E031D76290130B102031D822997
:100302008329582984292E08F0002F08F10030088B
:10031200F2002D08A9002908F3003208AA002A08D1
:10032200F4000A128A1571230A128A1170088312C4
:100332000313A3007108A4007208A500A0290800F5
:1003420083160313A301831203136608650464046E
:10035200031DAC29AD29D2290030F0000030F10094
:100362000030F2006708F3006808F4006908F5003D
:100372000A128A1591220A128A11031CC129C22962
:10038200C829213083160313BB000030BC000030A3
:1003920083120313E4000030E5000030E600CB2AAC
:1003A200CB2A690868046704031DD829D929E129E1
:1003B2000030E4008030E5003F30E600CB2ACB2A53
:1003C2006408F0006508F1006608F2000030F300EE
:1003D2000030F4000030F5000A128A1591220A1248
:1003E2008A110318F529F6295B2A83120313670879
:1003F200F0006808F1006908F2000A128A15F32475
:100402000A128A11730883160313A7007208A60042
:100412007108A5007008A4002708FB002608FA004E
:100422002508F9002408F8000A128A1581200A1208
:100432008A118312031369087A06031D262A6808A3
:100442007906031D262A670878060319292A2A2A0B
:100452003A2A213083160313BB000030BC0000305F
:1004620083120313E4000030E5000030E600CB2ADB
:10047200CB2A831603132408013983120313EA00DB
:100482006A0883160313A300831203136408F80097
:100492006508F9006608FA000A168A11B0260A12DF
:1004A2008A11780883120313E4007908E5007A08B8
:1004B200E6005B2A831203136408D4006508D500A2
:1004C2006608D6000A128A1527270A128A11831291
:1004D2000313540883160313A00083120313550851
:1004E20083160313A1008312031356088316031302
:1004F200A200831203136708A3006808A400690816
:10050200A50083160313200883120313A600831683
:100512000313210883120313A7008316031322086F
:1005220083120313A8000A128A11B3200A128A1135
:10053200831203132308DA002408DB002508DC00F9
:100542000A128A1194260A128A11831203135A0874
:10055200E4005B08E5005C08E60083160313230849
:10056200031DB42ACB2A831203136408F80065081A
:10057200F9006608FA000A168A11B0260A128A11D0
:10058200780883120313E4007908E5007A08E6008C
:10059200CB2ACB2A0800831603132808F000290867
:1005A200F1002A08F2000A128A15F3240A128A11AB
:1005B200710883160313B201B2077008B101B107C3
:1005C200280883120313B300831603132908831226
:1005D2000313B400831603132A0883120313B5000E
:1005E200831603133208FC01FC073108FB01FB07E9
:1005F2000A168A11AB270A128A117B08F8007C08B6
:10060200F9007D08FA000A168A11B0260A128A1128
:10061200780883120313B6007908B7007A08B80085
:100622000A128A1106240A128A118312031333084A
:1006320083160313B50083120313340883160313BE
:10064200B60083120313350883160313B70032086A
:1006520083120313A101A107831603133108831226
:100662000313A001A007831603132B08831203139D
:10067200EB006B08A2000030A3000030A4000A12B5
:100682008A156B240A128A11831203132108831616
:100692000313B401B4078312031320088316031350
:1006A200B301B3072D082C040319582B592B052C21
:1006B2002E3083120313EB008316031333082B0728
:1006C20083120313EC006C0884006B088313800010
:1006D200831603132D08FC01FC072C08FB01FB0702
:1006E2000A168A11AB270A128A117B088312031396
:1006F200E7007C08E8007D08E9000030E4002030D3
:10070200E5004130E6000A128A11A1210A128A117B
:1007120083120313640883160313AE0083120313B8
:10072200650883160313AF0083120313660883164A
:100732000313B000350883120313A30083160313B7
:10074200360883120313A400831603133708831297
:100752000313A500831603132E0883120313A600A6
:10076200831603132F0883120313A70083160313A0
:10077200300883120313A8000A128A11B3200A1246
:100782008A1183120313230883160313B5008312FD
:100792000313240883160313B600831203132508D8
:1007A20083160313B7003508F0003608F100370846
:1007B200F2000A128A15F3240A128A1171088312AE
:1007C2000313A101A1077008A001A0078316031358
:1007D20033082B07013E83120313EB006B08A200C0
:1007E200831603132D0883120313A401A40783168F
:1007F20003132C0883120313A301A3070A128A15F9
:100802006B240A128A11052C080083120313330881
:10081200B9003408BA003508BB0003103A0D3B0D8D
:10082200BC003C08BF003608B9003708BA003808D7
:10083200BB0003103A0D3B0DBC003C08BE003F0854
:10084200031D242C352C3E083F020318292C2A2C88
:100852003D2C3F03FF3A3E07B90019303902031C11
:10086200332C342C3D2C352C3608B3003708B40019
:100872003808B5004B2D4B2D3E08031D412C512C41
:100882003F083E020318462C472C522C3E03FF3AE7
:100892003F07B90019303902031C502C512C522C3D
:1008A2004B2D0630B9003908BD00B51F592C5A2C02
:1008B2005B2CBD17B81F5E2C5F2C602C3D17B41744
:1008C200FF30B305FF30B4050030B505B717FF3070
:1008D200B605FF30B7050030B8053E083F020318E1
:1008E200732C742CA52C752C01300310B60DB70D8A
:1008F200B80DFF3E031D762C0130BE023E083F06B6
:100902000319842C852C9D2C0130BD023D0807392A
:10091200031D8C2C8D2C752C9D2C9D2C9D2C013017
:100922000310B50CB40CB30CFF3E031D912C013027
:10093200B9003908BF079D2C3F083E06031DA22CB3
:10094200A32C902CDC2CDC2C3F083E020318AA2C92
:10095200AB2CDC2CAC2C01300310B30DB40DB50D57
:10096200FF3E031DAD2C0130BF023E083F060319B6
:10097200BB2CBC2CD42C0130BD023D080739031D11
:10098200C32CC42CAC2CD42CD42CD42C013003106A
:10099200B80CB70CB60CFF3E031DC82C0130B900D1
:1009A2003908BE07D42C3F083E06031DD92CDA2C89
:1009B200C72CDC2CDC2CBD1FDF2CE02CF12CFF30F3
:1009C200B306FF30B406FF30B5060130B30700307E
:1009D20003180130B407003003180130B507F12CB9
:1009E2003D1FF42CF52C062DFF30B606FF30B7065E
:1009F200FF30B8060130B607003003180130B707E0
:100A0200003003180130B807062DBD013308B607C0
:100A1200340803110318340A0319102DB7073508D7
:100A220003110318350A0319172DB807B81F1A2D19
:100A32001B2D2F2DFF30B606FF30B706FF30B8064C
:100A42000130B607003003180130B7070030031831
:100A52000130B807BD010314BD0D2F2D3608F0007B
:100A62003708F1003808F2003F08B9003908F300EE
:100A72003D08BA003A08F4000A128A1571230A12D4
:100A82008A11700883120313B3007108B40072084C
:100A9200B5004B2D080083160313880189018601D6
:100AA20003309F00FF308500871707130130F400E1
:100AB2000030F5000A168A1124270A128A110A1236
:100AC2008A15D0210A128A110A168A11D6260A120A
:100AD2008A113A30F3008030F4000A168A11D527C1
:100AE2000A128A11E8300A168A1144270A128A1158
:100AF2008316031381131930990090308312031364
:100B0200980024308316031398000A168A11982637
:100B12000A128A11F4300A168A1144270A128A111B
:100B22000A168A11D6260A128A118B13982D0130C1
:100B32008316031347064804031DA02DA12D402E42
:100B420064300A168A1144270A128A1100300A16E2
:100B52008A11BC260A128A1100300A128A15B320A1
:100B62000A128A1183120313240883160313B8008E
:100B720083120313250883160313B9008312031388
:100B8200260883160313BA000030F8004C30F9002F
:100B92004230FA003808FB003908FC003A08FD0030
:100BA2000A128A1597250A128A11780883160313E6
:100BB200B8007908B9007A08BA003808A8003908DC
:100BC200A9003A08AA00BD3083120313ED006D0894
:100BD20083160313AB000230AC000030AD000A12E2
:100BE2008A11CC220A128A11BD30F3000030F400BF
:100BF2000A168A11D5270A128A110030F000003035
:100C0200F1004030F200831603133808F30039086C
:100C1200F4003A08F5000A128A1591220A128A1182
:100C22000318142E152E2E2E6E300A168A11A426A3
:100C32000A128A1164300A168A1144270A128A118A
:100C42006F300A168A11A4260A128A1164300A1613
:100C52008A1144270A128A113B2E6C300A168A1115
:100C6200A4260A128A1164300A168A1144270A122B
:100C72008A113B2E83160313C701C801982D0A1649
:100C82008A11C8260A128A1183120313ED006D0815
:100C9200EE0064300A168A1144270A128A1183125E
:100CA20003136E08031D562E882E6E08643A031D28
:100CB2005B2E5C2E6D2E861008300A168A11BC2619
:100CC2000A128A114F30F3008030F4000A168A119A
:100CD200D5270A128A11882E831203136E08653AE9
:100CE200031D742E752E882E861408300A168A115A
:100CF200BC260A128A114630F3008030F4000A162C
:100D02008A11D5270A128A11882E882E882E013040
:100D120083160313C7000030C800982D982D982D14
:100D22000A128A110028831203135C085B045A0416
:100D3200031D9C2E9D2EA52E0030DA008030DB0094
:100D42003F30DC00FF2FFF2F7230F0003130F10016
:100D52004430F2005A08F3005B08F4005C08F50026
:100D62000A128A1591220A128A110318B92EBA2E72
:100D7200D42E223083160313BB000030BC00CA2ECF
:100D8200003083120313DA008030DB007F30DC0096
:100D9200FF2FFF308312DA007F30DB007F30DC0070
:100DA200FF2FFF2FFF2F831203135A08F0005B0857
:100DB200F1005C08F2004930F3003A30F400C4302C
:100DC200F5000A128A1591220A128A110318EA2ED4
:100DD200EB2EFB2E223083160313BB000030BC0027
:100DE200003083120313DA000030DB000030DC0035
:100DF200FF2FFF2F831203135A08F0005B08F10044
:100E02005C08F2000030F3000030F4000030F5001E
:100E12000A128A1591220A128A110030031C01302B
:100E220083120313DD005D08E3006308031D1A2F1C
:100E32002E2F5A08F8005B08F9005C08FA000A161F
:100E42008A11B0260A128A11780883120313DA0073
:100E52007908DB007A08DC002E2FAA30A300B83014
:100E6200A4003F30A5005A08A6005B08A7005C0852
:100E7200A8000A128A11B3200A128A1183120313DC
:100E82002308DA002408DB002508DC005A08C00029
:100E92005B08C1005C08C2000A128A110B200A1208
:100EA2008A11831203134008F0004108F10042083E
:100EB200F2000A128A15F3240A128A1171088312A7
:100EC2000313E201E2077008E101E1076208FC0195
:100ED200FC076108FB01FB070A168A11AB270A12FD
:100EE2008A117B0883120313C0007C08C1007D08AD
:100EF200C2005A08C3005B08C4005C08C5000A1699
:100F02008A1105270A128A11831203134008DA0094
:100F12004108DB004208DC005A08CA005B08CB002B
:100F22005C08CC000130DD005D08CD000930CE0048
:100F32000030CF000A128A15EC230A128A1183129A
:100F420003134A08C0004B08C1004C08C2006208E3
:100F5200C401C4076108C301C3070A128A155D26CA
:100F62000A128A11831203134008DA004108DB00D7
:100F72004208DC006308031DBF2FFF2FC82FC82FB4
:100F82000030DE008030DF007F30E000CE2FFF3007
:100F9200DE007F30DF007F30E0005C086006031D6A
:100FA200D82F5B085F06031DD82F5A085E06031D63
:100FB200DB2FDC2FE42F0030DA000030DB000030C2
:100FC200DC00FF2FFF2F5A08F8005B08F9005C08CD
:100FD200FA000030FB008030FC003F30FD000A12B6
:100FE2008A1597250A128A11780883120313DA00E8
:100FF2007908DB007A08DC00FF2FFF2F0800FF1BB7
:101002000A2883137F1883170008840A0319FF0A2A
:10101200080008308A000408840A82070034003479
:1010220080343F34723431343F34FE3475343E34CC
:10103200583463343D3495341D343C34C534AE34B5
:101042003A34793421343934943480343734933413
:10105200A734353456341534343400340034003473
:10106200003480343F34F034FF34BE34E234A934E7
:101072003E3483347634BE34AE342B343E343C3486
:10108200C334BD34D23413343D347834D334BB3416
:101092005334743461347234743469346E34673462
:1010A2002E342E342E34003445346E34613462349E
:1010B2006C34653464342034003444346934733419
:0C10C200613462346C34653464340034F2
:1010D200F300F201731C6E286F2874287008F10067
:1010E2007108F20774280310F00D0310F30CF308D3
:1010F200031D7C287D286B287E2872088028080022
:101102008E30FC007C08FD00942801300310FB0C9B
:10111200FA0CF90CF80CFF3E031D87280130FC0085
:101122007C08FD079428FF307B05031D99289A2827
:1011320086289B287808F0007908F1007A08F200E6
:101142007D08FC007C08F300F4010A128A15712361
:101152000A128A157008F8007108F9007208FA007C
:10116200B228080083120313A7000730FC007C0892
:10117200A70541309F000E30831603139F000A30EB
:101182000A168A1144270A128A15831203132708A2
:10119200FC0002300310FC0DFF3E031DCB280310A0
:1011A2007C0DFD007D089F041F15D7281F19DA2822
:1011B200DB28D728DC281E080A168A11E6260A121E
:1011C2008A15780883120313A4007908A5007A0807
:1011D200A600EB280800720871047004031DF228AF
:1011E200F328032973088400003083138000840AE3
:1011F200003080000030F0000030F1000030F200DA
:101202003529352972087F39F400F5010130FF00D4
:101212000310F40DF50DFF0B0929730884007408FF
:1012220083138000840A75088000710D710D0139E5
:10123200F400F5017308840074088004840A7508B8
:1012420080047308840082308007840F000803182A
:10125200000AFF00FF307F07800084037208803994
:101262003F38F200F11335290800FB00F701F801BD
:101272007008FF3EF90071080318013EFF3EFA00B4
:10128200732977087B07F200720884008313000831
:10129200F300F4017308F5007408F60079087B077F
:1012A200F200720884000008F30077087B07F4005C
:1012B20074088400730880007508F20079087B07BF
:1012C200F30073088400720880000130F7070318E6
:1012D200F80A0030F807FF30F9070318FA0AFF305E
:1012E200FA0773297808803AF2007A08803A720283
:1012F200031D7D2979087702031C8029812942294F
:101302008229080083120313A7018E30A400240847
:10131200A600A31F8D298E29AC29A009A109A20923
:10132200A309A00A0319A10A0319A20A0319A30A0D
:10133200A7010314A70DAC29AC2901300310A30C9B
:10134200A20CA10CA00CFF3E031D9F290130A4009A
:101352002408A607AC29FF302305031DB129B229B1
:101362009E29B3292008F0002108F1002208F2008A
:101372002608A4002408F3002708A5002508F40085
:101382000A128A1571230A128A157008831203132E
:10139200A0007108A1007208A200CF2908008312E0
:1013A200031309100F300A168A1144270A128A15EC
:1013B20030308312031388008914891005300A160D
:1013C2008A1144270A128A15831203138914891079
:1013D2002130F4007408F500EF29EF290130F502FD
:1013E200031DF429F529EF298312031389148910A7
:1013F20005300A168A1144270A128A1520308312F0
:1014020003138800891489100D30F4007408F60063
:101412000B2A0B2A0130F602031D102A112A0B2A6D
:10142200122A28300A168A1186270A128A150830CB
:101432000A168A1186270A128A150F300A168A118D
:1014420086270A128A1506300A168A1186270A1278
:101452008A150800F601F31F2F2A302A392AF209C9
:10146200F309F20A0319F30AF6010314F60D392AF5
:10147200F11F3C2A3D2A432AF009F109F00A031917
:10148200F10A432A710870040319482A492A7F2A5B
:10149200F5010314F50D592A01300310F00DF10D79
:1014A200FF3E031D4E2A0130F4007408F507592A45
:1014B200F11F5C2A5D2A4D2A5F2A5F2A7108730296
:1014C200031D652A70087202031C682A692A702AA1
:1014D2007008F2027108031CF303F302702A013050
:1014E2000310F10CF00CFF3E031D712A0130F502CE
:1014F200031D7C2A7D2A5F2A7F2A7F2A7608031D04
:10150200832A892AF209F309F20A0319F30A892ABA
:101512007308F101F1077208F001F007902A080040
:10152200F21F942A952ABB2A0030F6000030F700F9
:101532008030F8007009F9007109FA007209FB00A5
:10154200F90A0319FA0A0319FB0A7908F6077A0855
:1015520003187A0FAD2AAE2AF7077B0803187B0F10
:10156200B32AB42AF8077608F0007708F100780861
:10157200F200BB2AF51FBE2ABF2AE52A0030F60078
:101582000030F7008030F8007309F9007409FA009E
:101592007509FB00F90A0319FA0A0319FB0A79080B
:1015A200F6077A0803187A0FD72AD82AF7077B0892
:1015B20003187B0FDD2ADE2AF8077608F300770886
:1015C200F4007808F500E52A8030F2068030F5064E
:1015D20075087202031DF32A74087102031DF32AAF
:1015E200730870020318F62AF72AF92A0310FC2A54
:1015F2000314FC2AFC2A0800F601F11F012B022B1E
:101602000B2BF009F109F00A0319F10AF601031490
:10161200F60D0B2BF31F0E2B0F2B192BF209F309CF
:10162200F20A0319F30A0130F4007408F606192BC2
:10163200F701F801710870040319202B212B5F2B8D
:10164200F5010314F50D312B01300310F00DF10DEE
:10165200FF3E031D262B0130F4007408F507312BE1
:10166200F11F342B352B252B372B372B0130031051
:10167200F70DF80DFF3E031D382B71087302031D91
:10168200442B70087202031C472B482B502B700806
:10169200F2027108031CF303F3027714502B01309A
:1016A2000310F10CF00CFF3E031D512B0130F5022B
:1016B200031D5C2B5D2B372B5F2B5F2B7608031DE5
:1016C200632B692BF709F809F70A0319F80A692B42
:1016D2007808F101F1077708F001F007702B080094
:1016E2007308031D752B7D2B720871047004031D92
:1016F2007B2B7C2B932B7D2B0030F0000030F100F4
:101702000030F200EB2BEB2B932B0130F500750828
:10171200F30701300310F20CF10CF00CFF3E031D35
:101722008B2B932BFE307205031D982B992B862B46
:10173200B12BB12B0130F5007508F3070130F0072A
:10174200003003180130F107003003180130F207AE
:1017520001300310F20CF10CF00CFF3E031DAA2B1A
:10176200FF307205031DB62BB72B9B2BC42BC42B4A
:101772000130F30201300310F00DF10DF20DFF3EC6
:10178200031DBC2BC42BF11FC72BC82BB92B7318FD
:10179200CB2BCC2BD22BFF30F0057F30F105FF3065
:1017A200F2050310F30C7308F500F601F70110308F
:1017B2000310F50DF60DF70DFF3E031DD92B75082D
:1017C200F0047608F1047708F2047408031DEA2B8A
:1017D200EB2BF2170800033083120313D0005008DA
:1017E200F0004E080A128A1569200A128A1583121D
:1017F20003134D0784000A128A150A200A128A1559
:10180200D1000A128A150A200A128A15D2000A1277
:101812008A150A200A128A15D3005C2C0330D000E4
:101822005008F000FF30CE070318CF0AFF30CF0771
:101832004E080A128A1569200A128A1583120313A6
:101842004D0784000A128A150A200A128A15B3006B
:101852000A128A150A200A128A15B4000A128A1577
:101862000A200A128A15B5005108A3005208A400E2
:101872005308A5004A08A6004B08A7004C08A80078
:101882000A128A11B3200A128A158312031323083B
:10189200B6002408B7002508B8000A128A110624E7
:1018A2000A128A15831203133308D1003408D200B6
:1018B2003508D3005C2C4F084E04031D612C622CAA
:1018C2000F2C632C5108CA005208CB005308CC00DD
:1018D2006A2C080083120313A701A801AA2C0A305C
:1018E200F0000030F1002108F301F3072008F201B3
:1018F200F2070A128A152B220A128A157008303E44
:1019020083120313A50027082207A60026088400D5
:101912002508831380000130A7070318A80A0030A6
:10192200A8070A30F0000030F1002108F301F307A4
:101932002008F201F2070A128A15FD220A128A15FC
:10194200710883120313A101A1077008A001A00767
:10195200AA2C21082004031DAF2CB02C702CC52CFE
:10196200C52C303083120313A50027082207A600D6
:10197200260884002508831380000130A707031876
:10198200A80A0030A807C52C2808803AA500240818
:10199200803A2502031DCF2C23082702031CD22CD8
:1019A200D32CB22CD42C831203132808F101F10793
:1019B2002708F001F00722080A128A1536210A12B6
:1019C2008A158312031327082207A500250884001D
:1019D200831380012808A101A1072708A001A007FD
:1019E200F22C08007008F4007108F5007208F60085
:1019F2000310750D760DF7007708FD00FD08031D35
:101A0200032D042D0E2D0030F3000030F2000030C3
:101A1200F1000030F000962D962D7008F400710848
:101A2200F5007208F60017300310F60CF50CF40CF2
:101A3200FF3E031D152D7408F7007708F800F11713
:101A4200FF30F005FF30F1050030F2057008F900B3
:101A52007108FA007208FB00FC018E30FD02FD1FC6
:101A6200332D342D592D7D08803A8F3E03183A2D9F
:101A72003B2D462D0030F3000030F2000030F10023
:101A82000030F000962D962D462D01300310FC0CEF
:101A9200FB0CFA0CF90CFF3E031D472D0130F4003C
:101AA2007408FD07031D562D572D462D7D2D7D2DC6
:101AB20018307D02031C5E2D5F2D762D0030F30061
:101AC2000030F2000030F1000030F000962D962D2B
:101AD200762D0130F4000310F90DFA0DFB0DFC0D0B
:101AE200F40B6C2D0130FD02762DFD08031D7A2DBD
:101AF2007B2D6A2D7D2D7D2D7808031D812D8D2D49
:101B0200F909FA09FB09FC09F90A0319FA0A031986
:101B1200FB0A0319FC0A8D2D7C08F3007B08F200F6
:101B22007A08F1007908F000962D08007B088312EC
:101B32000313A0007C08A1007D08A2000310210D60
:101B4200220DA3002308A800A808031DA92DAA2D71
:101B5200B22D0030F8000030F9000030FA005C2E9F
:101B62005C2E7808A0007908A1007A08A200031070
:101B7200210D220DA3002308A900A908031DC22DCF
:101B8200C32DCB2D0030F8000030F9000030FA00F0
:101B92005C2E5C2E0030A5000030A6000030A700AD
:101BA20089302907A0002008A8027B08A0007C0831
:101BB200A1007D08A20010300310A20CA10CA00C01
:101BC200FF3E031DDD2D2008A3002308A90078088D
:101BD200A0007908A1007A08A20010300310A20C1C
:101BE200A10CA00CFF3E031DEF2D2008A30023082B
:101BF200A9068030A0002008A905FC17FF30FB05CC
:101C0200FF30FC050030FD05F917FF30F805FF3005
:101C1200F9050030FA051830A0002008A400112EA2
:101C220001300310A50DA60DA70DFF3E031D122EB8
:101C32007A087D02031D232E79087C02031D232EC0
:101C420078087B02031C262E272E332E7808FB02EF
:101C52007908031C790FFC027A08031C7A0AFD0238
:101C62002514332E01300310FB0DFC0DFD0DFF3E3C
:101C7200031D342E0130A402031D402E412E112ECD
:101C8200422E2508F0002608F1002708F200280855
:101C9200A0002008F3002908A1002108F4000A127C
:101CA2008A1571230A128A157008F8007108F90062
:101CB2007208FA005C2E08008312031342084104E2
:101CC2004004031D652E662E6E2E0030C0000030CB
:101CD200C1000030C200262F262F42087F39C500DE
:101CE200C6010130FF000310C50DC60DFF0B742E97
:101CF2004508C3070318C40A4608C407410D410D2D
:101D02000139C500C6014508C3070318C40A4608BD
:101D1200C407C41F8D2E8E2E9F2E223083160313CE
:101D2200BB000030BC00003083120313C00000303F
:101D3200C1000030C200262F262F252F4408803AEA
:101D4200FF0081307F02031DA82E00304302031CD6
:101D5200AB2EAC2E072F223083160313BB000030AC
:101D6200BC00831203134008F0004108F10042084E
:101D7200F2000030F3000030F4000030F5000A12E7
:101D82008A1591220A128A150318C82EC92EFB2E13
:101D9200D42ED42E003083120313C7008030C80023
:101DA2007F30C900DD2EFF3083120313C7007F305E
:101DB200C8007F30C900DD2E4708F8004808F90046
:101DC2004908FA000A168A11B0260A128A157808FA
:101DD20083120313C0007908C1007A08C200262FBB
:101DE200262F252FFB2E0030C0008030C1007F300F
:101DF200C200262FFF3083120313C0007F30C100C0
:101E02007F30C200262F262F262F252F8312031361
:101E12004408C6004308C5000130FF00460DC60C49
:101E2200C50CFF0B0F2F4208450680394506C2003C
:101E320043080139C500C50CC50C410845067F3968
:101E42004506C100252F252F262F080083120313D4
:101E52005408F0005508F1005608F2000030F30073
:101E62000030F4000030F5000A128A1591220A129D
:101E72008A1503183D2F3E2F4E2F21308316031350
:101E8200BB000030BC00003083120313D4000030CA
:101E9200D5000030D600FF2FFF2F83120313560800
:101EA20055045404031D562F572F672F22308316D3
:101EB2000313BB000030BC00003083120313D400B4
:101EC2000030D5000030D600FF2FFF2F0030B300C6
:101ED2008030B400BF30B5000030A3000030A40051
:101EE2004030A5005830D7005708F3005408F000DE
:101EF2005508F1005608F2000A128A15EC200A125F
:101F02008A15700883120313A6007108A7007208CD
:101F1200A8000A128A11B3200A128A158312031327
:101F22002308B6002408B7002508B8000A128A114F
:101F320006240A128A15831203133308D4003408C4
:101F4200D5003508D600FF30D8070318D90AFF306C
:101F5200D9075408CA005508CB005608CC001F30D8
:101F6200D7005708CD000830CE000030CF000A124B
:101F72008A15EC230A128A15831203134A08D40025
:101F82004B08D5004C08D6005408B3005508B400DD
:101F92005608B5007230A3003130A4003F30A500CE
:101FA2005908FC01FC075808FB01FB070A168A11B5
:101FB200AB270A128A157B0883120313A6007C083A
:101FC200A7007D08A8000A128A11B3200A128A15F6
:101FD200831203132308B6002408B7002508B800AB
:101FE2000A128A1106240A128A158312031333086D
:0E1FF200D4003408D5003508D600FF2F0800B3
:102D30004130831203139F000E30831603139F004C
:102D4000831203131F140800F000A62E831203132E
:102D50000C1EAB2EAC2EA62EAD2E700899000800CE
:102D60007A08790478040319B62EB72EBA2E80306B
:102D7000FA06BA2EBB2E0800F300831203130910C3
:102D80007308803E0A168A1186270A168A110800DF
:102D9000831203138C1ECD2ECE2ED22E1A08D52EC2
:102DA000D52ED52E0030D52ED52E08008312031334
:102DB000091001300A168A1186270A168A11023074
:102DC0000A168A1144270A168A110800FB007B089C
:102DD00083120313A000A101A2012008F000210822
:102DE000F1002208F2008E30A3002308F300F40162
:102DF0000A128A1571230A168A117008F8007108E0
:102E0000F9007208FA00042F0800803083120313BF
:102E1000C2064308B3004408B4004508B5004008A2
:102E2000B6004108B7004208B8000A128A11062409
:102E30000A168A11831203133308C0003408C10034
:102E40003508C200232F0800F701F801342FE830BD
:102E50000A168A1144270A168A110130F707031847
:102E6000F80A0030F807342F7808803AF600750821
:102E7000803A7602031D3E2F74087702031C412F0F
:102E8000422F272F432F0800F1000430F000700874
:102E9000F2005330F0007008F3004F2F4F2F013035
:102EA000F302031D542F552F4F2F562F0130F202DE
:102EB000031D5B2F5C2F492F5D2F0130F102031D95
:102EC000622F632F452F642F080083160313B80168
:102ED000B901BA01BB01BC01BD01BE01BF01C00106
:102EE000C101C201C301C401C501C6010A128A1190
:102EF00009200A168A11C7000A128A110A200A1626
:102F00008A11C80083010A128A114C2DF200831223
:102F1000031308080F397204880089148910720895
:102F2000F00004300310F00DFF3E031D922F08083F
:102F30000F3970048800891489100D30F000700872
:102F4000F100A32FA32F0130F102031DA82FA92FF9
:102F5000A32FAA2F080083120313A201FC1FB12F75
:102F6000B22FBB2FFB09FC09FB0A0319FC0AA201C3
:102F70000314A20DBB2F7B08F0007C08F100F201C6
:102F80008E30A0002008F3002208A1002108F400E0
:102F90000A128A1571230A168A117008FB0071083B
:102FA000FC007208FD00D42F0800831203130914DB
:102FB000EE2F7408FF00730884000A128A1500209F
:102FC0000A168A110A168A1186270A168A110130F2
:102FD000F3070318F40A0030F407EE2F7408831285
:102FE0000313FF00730884000A128A1500200A16D2
:102FF0008A110038031DFD2FFE2FD92FFF2F080047
:02400E007AFF37
:00000001FF
