:060000000A128A11122809
:10000800FE00030EF0000408F1000A08F200831253
:1000180003137F08F3000A168A11932E0A168A1111
:10002800E02D831603139F01FF308500811389019A
:10003800880187018312031309118B170B174730A7
:100048008316031381006730831203138100901015
:100058000C108F018E0110129012101183160313C9
:100068000C148312031310144730831603139200E1
:1000780004308312031392002C30970064300A1660
:100088008A114B260A128A110A128A15A2210A120B
:100098008A110A168A11D0250A128A110A168A119B
:1000A800B6250A128A11F4300A168A114B260A124A
:1000B8008A115E2864300A168A114B260A128A11A0
:1000C8000A168A11D0250A128A1100300A128A11DA
:1000D800F4270A128A1100300A168A1148270A12D0
:1000E8008A11831203132F0883160313D000831277
:1000F8000313300883160313D10083120313310846
:1001080083160313D200003083120313A8004C3067
:10011800A9004230AA008316031350088312031360
:10012800AB0083160313510883120313AC00831624
:100138000313520883120313AD000A128A15772598
:100148000A128A1183120313280883160313D00096
:1001580083120313290883160313D1008312031390
:100168002A0883160313D20000300A168A11812741
:100178000A128A11831203132F0883160313D3005C
:1001880083120313300883160313D4008312031356
:10019800310883160313D500003083120313A80017
:1001A8004C30A9004230AA00831603135308831267
:1001B8000313AB0083160313540883120313AC0014
:1001C80083160313550883120313AD000A128A1508
:1001D80077250A128A11831203132808831603133A
:1001E800D30083120313290883160313D400831240
:1001F80003132A0883160313D50053088312031325
:10020800BF0083160313540883120313C000831618
:100218000313550883120313C100831603135008F0
:1002280083120313C20083160313510883120313A6
:10023800C30083160313520883120313C4000A125F
:100248008A112E260A128A11831203133F08831675
:100258000313C30083120313400883160313C40057
:1002680083120313410883160313C5004308AF0024
:100278004408B0004508B100DA30C1004108B200B6
:100288000130B3000030B4000A128A11D4240A12D3
:100298008A11DA3083120313A2000030A3000A1671
:1002A8008A11B9260A128A1128300A128A11F427EB
:1002B8000A128A11003083120313A000A030A10093
:1002C8004030A20083160313430883120313A300CC
:1002D80083160313440883120313A400831603131D
:1002E800450883120313A5000A128A15FB210A1276
:1002F8008A1103188029812995293A30831203131A
:10030800A2008030A3000A168A11B9260A128A119F
:10031800153083120313950083160313D601D701F2
:100328005E28493083120313A2008030A3000A1606
:100338008A11B9260A128A1183120313950196307D
:100348008316031356065704031DAB29AC295E28F0
:1003580059085804003003190130C100C20141088E
:10036800D8004208D9005808C10041088312031375
:1003780087045E285E285E285E280A128A111228E1
:1003880083160313AA01220821042004031DCD2982
:10039800CE29FF29003083120313A0000030A100EA
:1003A8000030A20083160313230883120313A3004B
:1003B80083160313240883120313A400831603135C
:1003C800250883120313A5000A128A15FB210A12B5
:1003D8008A11031CF029F129F5292130F800003091
:1003E800F900003083160313A0000030A10000308C
:1003F800A2006A2B6A2B250824042304031D052A5E
:10040800062A0E2A0030A0008030A1003F30A2004A
:100418006A2B6A2B200883120313A0008316031388
:10042800210883120313A1008316031322088312E1
:100438000313A2000030A3000030A4000030A50080
:100448000A128A15FB210A128A1103182C2A2D2A4E
:10045800CE2A83160313230883120313A0008316DE
:100468000313240883120313A1008316031325081A
:1004780083120313A2000A128A1565230A128A112D
:1004880083120313230883160313AE008312031386
:10049800220883160313AD00831203132108831661
:1004A8000313AC0083120313200883160313AB0055
:1004B8002E0883120313AB00831603132D0883122F
:1004C8000313AA00831603132C0883120313A9002D
:1004D800831603132B0883120313A8000A168A1124
:1004E80010270A128A11831603132508831203138F
:1004F8002A06031D8D2A8316031324088312031367
:100508002906031D8D2A8316031323088312031358
:1005180028060319902A912A9F2A2130F8000030D2
:10052800F900003083160313A0000030A10000304A
:10053800A2006A2B6A2B831603132B080139A60025
:100548002608AA00200883120313A80083160313A1
:10055800210883120313A9008316031322088312A8
:100568000313AA000A168A11C2250A128A118312D5
:100578000313280883160313A00083120313290802
:1005880083160313A100831203132A088316031387
:10059800A200CE2A83160313200883120313E00057
:1005A80083160313210883120313E1008316031330
:1005B800220883120313E2000A128A153F260A1240
:1005C8008A1183120313600883160313A70083128A
:1005D8000313610883160313A80083120313620828
:1005E80083160313A900230883120313AF0083168D
:1005F8000313240883120313B0008316031325087A
:1006080083120313B10083160313270883120313FD
:10061800B20083160313280883120313B30083164A
:100628000313290883120313B4000A128A15122728
:100638000A128A11831203132F08E6003008E70014
:100648003108E8000A128A116B230A128A118312F0
:100658000313660883160313A000831203136708A5
:1006680083160313A1008312031368088316031368
:10067800A2002A08031D412B6A2B200883120313AA
:10068800A80083160313210883120313A9008316F5
:100698000313220883120313AA000A168A11C2251B
:1006A8000A128A1183120313280883160313A00061
:1006B80083120313290883160313A100831203135B
:1006C8002A0883160313A2006A2B6A2B08008312D8
:1006D8000313680867046604031D732B742B7C2BB3
:1006E8000030E6008030E7003F30E800D32CD32C00
:1006F8007230A0003130A1004430A2006608A30087
:100708006708A4006808A5000A128A15FB210A12C6
:100718008A110318902B912BAA2B2230F800003055
:10072800F9009F2B003083120313E6008030E700A6
:100738007F30E800D32CFF3083120313E6007F30AC
:10074800E7007F30E800D32CD32CD32C831203137B
:100758006608A0006708A1006808A2004930A30045
:100768003A30A400C430A5000A128A15FB210A12E7
:100778008A110318C02BC12BCF2B2230F800003070
:10078800F900003083120313E6000030E700003060
:10079800E800D32CD32C831203136608A000670843
:1007A800A1006808A2000030A3000030A4000030B7
:1007B800A5000A128A15FB210A128A110030031CAF
:1007C800013083120313E9006908EF006F08031D65
:1007D800EE2B022C6608A8006708A9006808AA0082
:1007E8000A168A11C2250A128A11831203132808CD
:1007F800E6002908E7002A08E800022CAA30AF0022
:10080800B830B0003F30B1006608B2006708B300E6
:100818006808B4000A128A1512270A128A1183126C
:1008280003132F08E6003008E7003108E8006608DF
:10083800CC006708CD006808CE000A128A150B2480
:100848000A128A11831203134C08A0004D08A10054
:100858004E08A2000A128A1565230A128A11831209
:1008680003132108EE01EE072008ED01ED076E08DD
:10087800AC01AC076D08AB01AB070A168A11E42678
:100888000A128A11831203132B08CC002C08CD00FE
:100898002D08CE006608CF006708D0006808D10090
:1008A8000A168A110B260A128A11831203134C089E
:1008B800E6004D08E7004E08E8006608D60067081D
:1008C800D7006808D8000130E9006908D900093064
:1008D800DA000030DB000A128A15E6220A128A11B1
:1008E800831203135608CC005708CD005808CE00D1
:1008F8006E08D001D0076D08CF01CF070A128A15FC
:10090800B3240A128A11831203134C08E6004D0817
:10091800E7004E08E8006F08031D932CD32C9C2C8D
:100928009C2C0030EA008030EB007F30EC00A22CD9
:10093800FF30EA007F30EB007F30EC0068086C067F
:10094800031DAC2C67086B06031DAC2C66086A06F1
:10095800031DAF2CB02CB82C0030E6000030E700A7
:100968000030E800D32CD32C6608A8006708A9003B
:100978006808AA000030AB008030AC003F30AD0002
:100988000A128A1577250A128A1183120313280876
:10099800E6002908E7002A08E800D32CD32C080031
:1009A800831603132F0883120313A000831603135F
:1009B800300883120313A10083160313310883122E
:1009C8000313A2000A128A1565230A128A118312D8
:1009D8000313210883160313BB01BB0783120313F8
:1009E800200883160313BA01BA072F0883120313CA
:1009F800BF0083160313300883120313C000831645
:100A08000313310883120313C100831603133B0831
:100A180083120313AC01AC07831603133A0883123D
:100A28000313AB01AB070A168A11E4260A128A11CE
:100A3800831203132B08A8002C08A9002D08AA006C
:100A48000A168A11C2250A128A118312031328086A
:100A5800C2002908C3002A08C4000A128A112E26D7
:100A68000A128A11831203133F0883160313BE0068
:100A780083120313400883160313BF008312031362
:100A8800410883160313C0003B0883120313AF0108
:100A9800AF07831603133A0883120313AE01AE0798
:100AA800831603133208B500350883120313B00008
:100AB8000030B1000030B2000A128A1174270A12FD
:100AC8008A11831203132F0883160313BD01BD0770
:100AD800831203132E0883160313BC01BC073408C2
:100AE80033040319782D792D2D2E2E30B5003C08AE
:100AF8003207B600360884003508831380003408AE
:100B080083120313AC01AC07831603133308831253
:100B18000313AB01AB070A168A11E4260A128A11DD
:100B2800831203132B0883160313A30083120313E2
:100B38002C0883160313A400831203132D088316AD
:100B48000313A5000030A0002030A1004130A2000E
:100B58000A128A11C4210A128A1183160313200863
:100B6800B7002108B8002208B9003E088312031311
:100B7800AF00831603133F0883120313B0008316D4
:100B88000313400883120313B100831603133708B5
:100B980083120313B2008316031338088312031356
:100BA800B30083160313390883120313B4000A121F
:100BB8008A1512270A128A11831203132F08831623
:100BC8000313BE0083120313300883160313BF00F8
:100BD80083120313310883160313C0003E088312DF
:100BE8000313A000831603133F0883120313A10005
:100BF80083160313400883120313A2000A128A15EE
:100C080065230A128A11831203132108AF01AF0763
:100C18002008AE01AE07831603133C083207013ED5
:100C2800B500350883120313B00083160313340884
:100C380083120313B201B207831603133308831216
:100C48000313B101B1070A128A1174270A128A1113
:100C58002D2E0800831203133F08C5004008C60064
:100C68004108C7000310460D470DC8004808CB00CF
:100C78004208C5004308C6004408C7000310460DD3
:100C8800470DC8004808CA004B08031D4C2E5D2EAE
:100C98004A084B020318512E522E652E4B03FF3A79
:100CA8004A07C50019304502031C5B2E5C2E652ED1
:100CB8005D2E4208BF004308C0004408C100732FDE
:100CC800732F4A08031D692E792E4B084A02031810
:100CD8006E2E6F2E7A2E4A03FF3A4B07C500193045
:100CE8004502031C782E792E7A2E732F0630C50004
:100CF8004508C900C11F812E822E832EC917C41F23
:100D0800862E872E882E4917C017FF30BF05FF3063
:100D1800C0050030C105C317FF30C205FF30C30549
:100D28000030C4054A084B0203189B2E9C2ECD2E7A
:100D38009D2E01300310C20DC30DC40DFF3E031DCF
:100D48009E2E0130CA024A084B060319AC2EAD2E5E
:100D5800C52E0130C90249080739031DB42EB52E26
:100D68009D2EC52EC52EC52E01300310C10CC00CFA
:100D7800BF0CFF3E031DB92E0130C5004508CB0747
:100D8800C52E4B084A06031DCA2ECB2EB82E042F9B
:100D9800042F4B084A020318D22ED32E042FD42E28
:100DA80001300310BF0DC00DC10DFF3E031DD52E30
:100DB8000130CB024A084B060319E32EE42EFC2E21
:100DC8000130C90249080739031DEB2EEC2ED42E39
:100DD800FC2EFC2EFC2E01300310C40CC30CC20CDC
:100DE800FF3E031DF02E0130C5004508CA07FC2E42
:100DF8004B084A06031D012F022FEF2E042F042F44
:100E0800C91F072F082F192FFF30BF06FF30C00654
:100E1800FF30C1060130BF07003003180130C0079A
:100E2800003003180130C107192F491F1C2F1D2F2F
:100E38002E2FFF30C206FF30C306FF30C406013034
:100E4800C207003003180130C3070030031801300F
:100E5800C4072E2FC9013F08C20740080311031811
:100E6800400A0319382FC307410803110318410A20
:100E780003193F2FC407C41F422F432F572FFF309A
:100E8800C206FF30C306FF30C4060130C207003077
:100E980003180130C307003003180130C407C90123
:100EA8000314C90D572F4208A0004308A1004408A5
:100EB800A2004B08C5004508A3004908C60046081B
:100EC800A4000A128A1569220A128A1183120313CE
:100ED8002008BF002108C0002208C100732F0800A5
:100EE80083120313B501B601B32F0A30A0000030F6
:100EF800A1002F08A301A3072E08A201A2070A1622
:100F08008A11BA270A128A11831203132008303E65
:100F1800B30035083007B40034088400330883135D
:100F280080000130B5070318B60A0030B6070A304A
:100F3800A0000030A1002F08A301A3072E08A201DA
:100F4800A2070A128A1501210A128A1183120313B1
:100F58002108AF01AF072008AE01AE07B32F2F0855
:100F68002E04031DB82FB92F792FCC2FCC2F30305A
:100F7800B30035083007B4003408840033088313FD
:100F880080000130B5070318B60A0030B607CC2F29
:100F980032083602031DD22F31083502031CD52F23
:100FA800D62FBB2FD72F3608F501F5073508F401E2
:100FB800F40730080A128A1551210A128A1183127D
:100FC800031335083007B300330884008313800106
:100FD8003608AF01AF073508AE01AE07F32F08009A
:100FE800F5008312031309107508803E0A168A114A
:100FF8006E260A128A110800FF1B0A2883137F181D
:1010080083170008840A0319FF0A080008308A00B9
:101018000408840A82070034003480343F34723470
:1010280031343F34FE3475343E34583463343D34FF
:1010380095341D343C34C534AE343A3479342134D3
:1010480039349434803437349334A73435345634AF
:1010580015343434003400340034003480343F34E0
:10106800F034FF34BE34E234A9343E348334763469
:10107800BE34AE342B343E343C34C334BD34D23465
:1010880013343D347834D334BB3447347234653444
:10109800613474346534723420347434683461349F
:1010A8006E342034353400344C346534733473343E
:1010B80020345434683461346E3420343534003488
:1010D00083120313220821042004031D70287128A1
:1010E000812823088400003083138000840A0030A4
:1010F00080000030A0000030A1000030A200B32822
:10110000B32822087F39F400F5010130FF000310F5
:10111000F40DF50DFF0B8728230884007408831352
:101120008000840A75088000210D210D0139F4002A
:10113000F5012308840074088004840A750880047B
:101140002308840082308007840F00080318000AF7
:10115000FF00FF307F0780008403220880393F387A
:10116000A200A113B328080083120313B3018E3029
:10117000F4007408B200B11FBE28BF28DD28AE09F4
:10118000AF09B009B109AE0A0319AF0A0319B00AD1
:101190000319B10AB3010314B30DDD28DD280130B2
:1011A0000310B10CB00CAF0CAE0CFF3E031DD028E9
:1011B0000130F4007408B207DD28FF303105031D4B
:1011C000E228E328CF28E4282E08A0002F08A10059
:1011D0003008A2003208F4007408A3003308F500B8
:1011E0007508A4000A128A1569220A128A15831248
:1011F00003132008AE002108AF002208B000002928
:10120000080083120313A501A60121082004031975
:101210000A290B294929A4010314A40D1B29013013
:101220000310A00DA10DFF3E031D10290130F40095
:101230007408A4071B29A11F1E291F290F29212972
:10124000212901300310A50DA60DFF3E031D222903
:1012500021082302031D2E2920082202031C312904
:1012600032293A292008A2022108031CA303A30261
:1012700025143A2901300310A10CA00CFF3E031DD8
:101280003B290130A402031D462947292129492968
:1012900049292608A101A1072508A001A007502976
:1012A000080083120313A900A501A6017408FF3EDC
:1012B000A70075080318013EFF3EA800922983127B
:1012C000031325082907A0002008840083130008C1
:1012D000A100A2012108A3002208A40027082907D1
:1012E000A000200884000008A10025082907A2000A
:1012F00022088400210880002308A000270829076D
:10130000A10021088400200880000130A5070318EF
:10131000A60A0030A607FF30A7070318A80AFF3067
:10132000A80792292608803AA0002808803A2002BF
:10133000031D9C2927082502031C9F29A0295F293A
:10134000A12908008312031309100F300A168A110D
:101350004B260A128A153030831203138800891431
:10136000891005300A168A114B260A128A15831233
:101370000313891489102130F5007508A300C129D1
:10138000C1290130A302031DC629C729C129891417
:10139000891005300A168A114B260A128A15203048
:1013A000831203138800891489100D30F500750825
:1013B000A400DB29DB290130A402031DE029E12977
:1013C000DB29E22928300A168A116E260A128A15AC
:1013D00008300A168A116E260A128A150F300A166C
:1013E0008A116E260A128A1506300A168A116E268E
:1013F0000A128A15080083120313A21F002A012A69
:10140000272A0030A6000030A7008030A80020095D
:10141000A9002109AA002209AB00A90A0319AA0AF6
:101420000319AB0A2908A6072A0803182A0F192A44
:101430001A2AA7072B0803182B0F1F2A202AA807F0
:101440002608A0002708A1002808A200272AA51F17
:101450002A2A2B2A512A0030A6000030A70080300B
:10146000A8002309A9002409AA002509AB00A90A9C
:101470000319AA0A0319AB0A2908A6072A080318A0
:101480002A0F432A442AA7072B0803182B0F492A9F
:101490004A2AA8072608A3002708A4002808A500B0
:1014A000512A8030A2068030A50625082202031D9D
:1014B0005F2A24082102031D5F2A23082002031843
:1014C000622A632A652A0310682A0314682A682A94
:1014D0000800831203132308031D6F2A772A2208AA
:1014E00021042004031D752A762A8D2A772A0030CC
:1014F000A0000030A1000030A200E52AE52A8D2AD4
:101500000130A5002508A30701300310A20CA10C8F
:10151000A00CFF3E031D852A8D2AFE302205031DE7
:10152000922A932A802AAB2AAB2A0130A5002508EB
:10153000A3070130A007003003180130A1070030D5
:1015400003180130A20701300310A20CA10CA00C5B
:10155000FF3E031DA42AFF302205031DB02AB12A35
:10156000952ABE2ABE2A0130A30201300310A00D25
:10157000A10DA20DFF3E031DB62ABE2AA11FC12A3E
:10158000C22AB32A2318C52AC62ACC2AFF30A005AE
:101590007F30A105FF30A2050310A30C2308A5008E
:1015A000A601A70110300310A50DA60DA70DFF3E43
:1015B000031DD32A2508A0042608A1042708A20495
:1015C0002408031DE42AE52AA21708000330831229
:1015D0000313DC005C08F4005A080A168A11F1258E
:1015E0000A128A1583120313590784000A128A15F6
:1015F0000A200A128A15DD000A128A150A200A1228
:101600008A15DE000A128A150A200A128A15DF00DE
:10161000562B0330DC005C08F400FF30DA070318B7
:10162000DB0AFF30DB075A080A168A11F1250A1275
:101630008A1583120313590784000A128A150A2097
:101640000A128A15BF000A128A150A200A128A1580
:10165000C0000A128A150A200A128A15C1005D0804
:10166000AF005E08B0005F08B1005608B20057082E
:10167000B3005808B4000A128A1512270A128A15F4
:10168000831203132F08C2003008C3003108C400BE
:101690000A128A112E260A128A15831203133F0892
:1016A000DD004008DE004108DF00562B5B085A04CD
:1016B000031D5B2B5C2B092B5D2B5D08D6005E08A0
:1016C000D7005F08D800642B08008312031320089A
:1016D000A4002108A5002208A6000310250D260D50
:1016E000A7002708AD00AD08031D772B782B822BB0
:1016F0000030A3000030A2000030A1000030A000A4
:101700000A2C0A2C2008A4002108A5002208A60003
:1017100017300310A60CA50CA40CFF3E031D892B4B
:101720002408A7002708A800A117FF30A005FF3054
:10173000A1050030A2052008A9002108AA0022085E
:10174000AB00AC018E30AD02AD1FA72BA82BCD2B6B
:101750002D08803A8F3E0318AE2BAF2BBA2B0030EA
:10176000A3000030A2000030A1000030A0000A2C2D
:101770000A2CBA2B01300310AC0CAB0CAA0CA90C30
:10178000FF3E031DBB2B0130A4002408AD07031D41
:10179000CA2BCB2BBA2BF12BF12B18302D02031CAB
:1017A000D22BD32BEA2B0030A3000030A200003054
:1017B000A1000030A0000A2C0A2CEA2B0130A40062
:1017C0000310A90DAA0DAB0DAC0DA40BE02B01303D
:1017D000AD02EA2BAD08031DEE2BEF2BDE2BF12B18
:1017E000F12B2808031DF52B012CA909AA09AB0927
:1017F000AC09A90A0319AA0A0319AB0A0319AC0A0E
:10180000012C2C08A3002B08A2002A08A1002908FB
:10181000A0000A2C0800831203134C08A0004D08F6
:10182000A1004E08A2005330CF004F08A3000A12B7
:101830008A1568200A128A1583120313D41F212CDB
:10184000222C4B2C4C08A0004D08A1004E08A200F1
:101850000030A3000030A4000030A5000A128A1551
:10186000FB210A128A150318362C372C412C003024
:1018700083120313CC008030CD00BF30CE00B22CD9
:10188000B22C003083120313CC000030CD000030A6
:10189000CE00B22CB22C0030540215300319530282
:1018A000031C532C542C552CB22C4C08A0004D0872
:1018B000A1004E08A2000A128A1565230A128A1591
:1018C000831203132308B1002208B0002108AF00DF
:1018D0002008AE000A128A15B4200A128A15831253
:1018E00003132E08D0002F08D1003008D2004C0876
:1018F000A0004D08A1004E08A2005008A300510806
:10190000A4005208A5000A128A15FB210A128A15A2
:1019100003188B2C8C2CA92C003083120313BF00CE
:101920008030C000BF30C1005008C2005108C30061
:101930005208C4000A128A112E260A128A1583122E
:1019400003133F08CC004008CD004108CE00B22C64
:10195000B22C831203135008CC005108CD0052085A
:10196000CE00B22C0800831203134E084D044C0421
:10197000031DBB2CBC2CC42C0030CC000030CD008F
:101980000030CE00762D762D4E087F39D100D20161
:101990000130FF000310D10DD20DFF0BCA2C5108EE
:1019A000CF070318D00A5208D0074D0D4D0D01394D
:1019B000D100D2015108CF070318D00A5208D0072E
:1019C000D01FE32CE42CF12C2230F8000030F90079
:1019D0000030CC000030CD000030CE00762D762DCA
:1019E000752D5008803AFF0081307F02031DFA2CCC
:1019F00000304F02031CFD2CFE2C572D2230F80026
:101A00000030F900831203134C08A0004D08A10018
:101A10004E08A2000030A3000030A4000030A50052
:101A20000A128A15FB210A128A150318182D192D7E
:101A30004B2D242D242D003083120313D30080302E
:101A4000D4007F30D5002D2DFF3083120313D30037
:101A50007F30D4007F30D5002D2D5308A8005408C6
:101A6000A9005508AA000A168A11C2250A128A1569
:101A7000831203132808CC002908CD002A08CE00C1
:101A8000762D762D752D4B2D0030CC008030CD007D
:101A90007F30CE00762DFF3083120313CC007F30D1
:101AA000CD007F30CE00762D762D762D752D8312CC
:101AB00003135008D2004F08D1000130FF00520D2F
:101AC000D20CD10CFF0B5F2D4E0851068039510608
:101AD000CE004F080139D100D10CD10C4D08510670
:101AE0007F395106CD00752D752D762D0800831296
:101AF00003132B08AE002C08AF002D08B000031014
:101B00002F0D300DB1003108B600B608031D892D28
:101B10008A2D922D0030A8000030A9000030AA00C4
:101B20003E2E3E2E2808AE002908AF002A08B0003D
:101B300003102F0D300DB1003108B700B708031D99
:101B4000A22DA32DAB2D0030A8000030A90000303D
:101B5000AA003E2E3E2E0030B3000030B40000300C
:101B6000B50089303707AE002E08B6022B08AE004C
:101B70002C08AF002D08B00010300310B00CAF0CD3
:101B8000AE0CFF3E031DBD2D2E08B1003108B7007D
:101B90002808AE002908AF002A08B0001030031052
:101BA000B00CAF0CAE0CFF3E031DCF2D2E08B100C4
:101BB0003108B7068030AE002E08B705AC17FF30ED
:101BC000AB05FF30AC050030AD05A917FF30A80507
:101BD000FF30A9050030AA051830AE002E08B2006B
:101BE000F12D01300310B30DB40DB50DFF3E031DF3
:101BF000F22D2A082D02031D032E29082C02031D95
:101C0000032E28082B02031C062E072E132E28084D
:101C1000AB022908031C290FAC022A08031C2A0A5C
:101C2000AD023314132E01300310AB0DAC0DAD0D0E
:101C3000FF3E031D142E0130B202031D202E212E63
:101C4000F12D222E3308A0003408A1003508A2008F
:101C50003608AE002E08A3003708AF002F08A400F6
:101C60000A128A1569220A128A15831203132008A0
:101C7000A8002108A9002208AA003E2E080083120D
:101C800003136008A0006108A1006208A2000030F0
:101C9000A3000030A4000030A5000A128A15FB2121
:101CA0000A128A150318552E562E642E2130F8007C
:101CB0000030F900003083120313E0000030E1002F
:101CC0000030E200112F112F831203136208610408
:101CD0006004031D6C2E6D2E792E2230F80000302A
:101CE000F9000030E0000030E1000030E200112F88
:101CF000112F0030BF008030C000BF30C100003065
:101D0000AF000030B0004030B1006430E300630841
:101D1000A3006008A0006108A1006208A2000A12E6
:101D20008A1568200A128A15831203132008B2004C
:101D30002108B3002208B4000A128A1512270A12D9
:101D40008A15831203132F08C2003008C30031081C
:101D5000C4000A128A112E260A128A15831203134E
:101D60003F08E0004008E1004108E200FF30E407DE
:101D70000318E50AFF30E5076008D6006108D700C0
:101D80006208D8001F30E3006308D9000830DA0089
:101D90000030DB000A128A15E6220A128A15831225
:101DA00003135608E0005708E1005808E2006008F5
:101DB000BF006108C0006208C1007230AF0031305E
:101DC000B0003F30B1006508AC01AC076408AB015E
:101DD000AB070A168A11E4260A128A158312031326
:101DE0002B08B2002C08B3002D08B4000A128A1583
:101DF00012270A128A15831203132F08C200300813
:101E0000C3003108C4000A128A112E260A128A154C
:101E1000831203133F08E0004008E1004108E2009C
:101E2000112F0800831203132F08B5003008B600E5
:101E30003108B7000310360D370DB8003808B90067
:101E4000B908031D242F252F2D2F0030AF0000309F
:101E5000B0000030B100FF2FFF2F3208B50033086B
:101E6000B6003408B7000310360D370DB800380837
:101E7000BE00BE08031D3D2F3E2F462F0030AF0091
:101E80000030B0000030B100FF2FFF2F3E087B3E36
:101E9000B5003508B9072F08B5003008B60031087D
:101EA000B70010300310B70CB60CB50CFF3E031D85
:101EB000522F3508B8003808BE003208B500330884
:101EC000B6003408B70010300310B70CB60CB50CD0
:101ED000FF3E031D642F3508B8003808BE06803069
:101EE000B5003508BE05B017B317FF30B205FF3097
:101EF000B3050030B4050030BA000030BB0000303C
:101F0000BC000730B5003508BD00862F2F1C892F77
:101F10008A2F9B2F3208BA07330803110318330A9C
:101F20000319932FBB07340803110318340A03194C
:101F30009A2FBC079B2F01300310B10CB00CAF0CD3
:101F4000FF3E031D9C2F01300310B20DB30DB40DE5
:101F5000FF3E031DA42F0130BD02031DB02FB12F82
:101F6000862FB22F0930B5003508BD00B72F2F1CC2
:101F7000BA2FBB2FCC2F3208BA073308031103182E
:101F8000330A0319C42FBB07340803110318340A9A
:101F90000319CB2FBC07CC2F01300310B10CB00CB0
:101FA000AF0CFF3E031DCD2F01300310BC0CBB0C4A
:101FB000BA0CFF3E031DD52F0130BD02031DE12FDA
:101FC000E22FB72FE32F3A08A0003B08A1003C08FE
:101FD000A2003908B5003508A3003E08B60036084F
:101FE000A4000A128A1569220A128A1583120313A1
:101FF0002008AF002108B0002208B100FF2F080020
:102B5C0064008001840A0406031900340406AF2DB6
:102B6C004130831203139F000E30831603139F0012
:102B7C00831203131F140800831203132A08290459
:102B8C0028040319CA2DCB2DCE2D8030AA06CE2DAC
:102B9C00CF2D080083120313091001300A168A1175
:102BAC006E260A168A1102300A168A114B260A164C
:102BBC008A110800F601F701F801F9018313C630F8
:102BCC008400E4300A168A11AE250A168A11830194
:102BDC000A128A11152883120313A100A001211CCB
:102BEC00F82DF92DFE2D7408F5007508A007FE2DA3
:102BFC000310F40D0310A10CA108031D062E072EC3
:102C0C00F52D082E20080A2E08008030831203139D
:102C1C00CE064F08BF005008C0005108C1004C0838
:102C2C00C2004D08C3004E08C4000A128A112E2699
:102C3C000A168A11831203133F08CC004008CD00FA
:102C4C004108CE00292E0800F400740883120313E7
:102C5C00AB00AC01AD012B08A0002C08A1002D0885
:102C6C00A2008E30AE002E08A300A4010A128A1511
:102C7C0069220A168A11831203132008A80021085E
:102C8C00A9002208AA004A2E080083120313A000F0
:102C9C000430F4007408A1005330F4007408A2004E
:102CAC00582E582E0130A202031D5D2E5E2E582E7A
:102CBC005F2E0130A102031D642E652E522E662E4E
:102CCC000130A002031D6B2E6C2E4E2E6D2E0800B3
:102CDC0083120313A10008080F39210488008914FA
:102CEC0089102108F40004300310F40DFF3E031D7D
:102CFC007A2E08080F3974048800891489100D3055
:102D0C00F4007408A0008B2E8B2E0130A002031D42
:102D1C00902E912E8B2E922E08008B1E962E972E77
:102D2C00AD2E0B1D9A2E9B2EAD2E0B1167308100F4
:102D3C00013083160313D6070318D70A0030D707C0
:102D4C000130F6070318F70A0030F707AD2E7308A9
:102D5C008312FF0072088A0071088400700E8300D1
:102D6C00FE0E7E0E0900831203130914D42E2308C1
:102D7C00FF00220884000A128A1500200A168A1104
:102D8C000A168A116E260A168A1101308312031351
:102D9C00A2070318A30A0030A307D42E2308FF00B0
:102DAC00220884000A128A1500200A168A1100389B
:102DBC00031DE12EE22EBD2EE32E08008312031319
:102DCC00AE01AC1FEA2EEB2EF42EAB09AC09AB0A0C
:102DDC000319AC0AAE010314AE0DF42E2B08A0009F
:102DEC002C08A100A2018E30F4007408A3002E0858
:102DFC00F5007508A4000A128A1569220A168A11B0
:102E0C00831203132008AB002108AC002208AD008C
:102E1C000F2F08008E30F4007408F500252F0130B8
:102E2C00031083120313AB0CAA0CA90CA80CFF3EC5
:102E3C00031D162F0130F4007408F507252FFF3001
:102E4C00831203132B05031D2C2F2D2F152F2E2F23
:102E5C002808A0002908A1002A08A2007508F4007F
:102E6C007408A300A4010A128A1569220A168A1191
:102E7C00831203132008A8002108A9002208AA0025
:102E8C00472F0800F500073083120313B2003208F5
:102E9C00F50541309F000E30831603139F000A3056
:102EAC000A168A114B260A168A1175088312031307
:102EBC00B20002300310B20DFF3E031D602F031051
:102ECC00320DB30033089F041F156C2F1F196F2F81
:102EDC00702F6C2F712F1E080A168A112A260A16BB
:102EEC008A11831203132808AF002908B0002A089E
:102EFC00B100802F0800F500073083120313B200D5
:102F0C003208F50549309F000E30831603139F00DD
:102F1C000A300A168A114B260A168A117508831272
:102F2C000313B20002300310B20DFF3E031D992FA4
:102F3C000310320DB30033089F041F15A52F1F1962
:102F4C00A82FA92FA52FAA2F1E080A168A112A26E8
:102F5C000A168A11831203132808AF002908B0003F
:102F6C002A08B100B92F080083120313210820048A
:102F7C000319C12FC22FF82FF5010314F50DD22F11
:102F8C0001300310A00DA10DFF3E031DC72F013012
:102F9C00F4007408F507D22FA11FD52FD62FC62FFA
:102FAC00D82FD82F21082302031DDE2F2008220240
:102FBC00031CE12FE22FE92F2008A2022108031C99
:102FCC00A303A302E92F01300310A10CA00CFF3EB8
:102FDC00031DEA2F0130F502031DF52FF62FD82F14
:102FEC00F82FF82F2308A101A1072208A001A007A0
:042FFC00FF2F08009B
:02400E007AFF37
:00000001FF
