:020000040000FA
:060000008B100B100A2812
:080008008B1C08285A20322845
:10001000652032280000870188018801870183124A
:100020000313860186018316031300308700000046
:100030008312031398308B00000083120313A00176
:10004000A201A401A6010130AA00A80000008316A5
:100050000313FF30860083120313322887010A2816
:040060000034003434
:0C00640000002808AE00AE0AAE0B3928E0
:100070003B28A00A36280310A00DA00D200D8700F4
:100080000310A00CA00C2A08AC00AC0AAC0B492849
:1000900033284B204628831203130630A200183061
:1000A000A400A830A600A60B5328A40B5328A20B2B
:1000B000532808008B10A80AA81C6328281D632851
:1000C0000130A8008B178B1708000B108312031345
:1000D00086088601AA0AAA1C71282A1D71280130E7
:0600E000AA008B170800C6
:02400E00313748
:00000001FF
