:060000000A128A11122809
:10000800FE00030EF5000408F6000A08F700831244
:1000180003137F08F8000A128A1115280A128A1198
:10002800472B8B1C1828192820288B108B0101308E
:100038008B008B170B1620280B1C23282428232918
:100048000B1006088600061A2A282B287E287A080C
:100058007904031D3028312852280130F907031884
:10006800FA0A0030FA07871107166330831603135C
:10007800920004308312031392000C3097001E3054
:10008800950000300A128A1185230A128A113A3023
:100098000A128A11DF220A128A117E280130790693
:1000A8007A04031D582859287E280130F9070318B7
:1000B800FA0A0030FA078312031387110716633010
:1000C80083160313920004308312031392000C303A
:1000D80097003C30950000300A128A1185230A12D5
:1000E8008A115C300A128A11DF220A128A117E28CC
:1000F8007E287E2883120313861A83288428D7280B
:100108007C087B04031D89288A28AB280130FB075B
:100118000318FC0A0030FC078712071763308316A0
:100128000313920004308312031392000C309700DB
:100138001E30950040300A128A1185230A128A114E
:100148004B300A128A11DF220A128A11D72801308D
:100158007B067C04031DB128B228D7280130FB0791
:100168000318FC0A0030FC078312031387120717D1
:100178006330831603139200043083120313920032
:100188000C3097003C30950040300A128A118523C4
:100198000A128A116D300A128A11DF220A128A1194
:1001A800D728D728D72883120313061BDC28DD2875
:1001B8000029871107128712071397010A128A115B
:1001C80075230A128A1100300A128A1185230A122D
:1001D8008A117E300A128A11DF220A128A114030EF
:1001E8000A128A1185230A128A118F300A128A117B
:1001F800DF220A128A1100297A08803AFF0080302B
:100208007F02031D092902307902031C0C290D29DC
:100218001029F901FA0110297C08803AFF00803082
:100228007F02031D192902307B02031C1C291D298A
:100238002029FB01FC0120298B178B15232978081D
:1002480083120313FF0077088A0076088400750E6E
:100258008300FE0E7E0E090001308A000408840A1D
:1002680082070034003480343F34723431343F34F0
:10027800FE3475343E34583463343D3495341D347B
:100288003C34C534AE343A34793421343934943476
:10029800803437349334A7343534563415343434F1
:1002A800003400340034003480343F34F034FF34F8
:1002B800BE34E234A9343E3483347634BE34AE34AA
:1002C8002B343E343C34C334BD34D23413343D343F
:1002D8007834D334BB344D346F3474346F3472345F
:1002E800203431342034333430342534203443340A
:1002F80043345734203400344D346F3474346F34FD
:1003080072342034323420343334303425342034B9
:10031800433443345734203400344D346F34743408
:100328006F34723420343134203436343034253448
:100338002034433443345734203400344D346F343C
:1003480074346F34723420343234203436343034D8
:1003580025342034433443345734203400344D3466
:100368006F3474346F34723420343134203473343D
:1003780074346F3470347034653464342034003429
:100388004D346F3474346F34723420343234203442
:10039800733474346F347034703465346434203496
:1003A80000348312031309100F300A128A11032331
:1003B8000A128A11303083120313880089148910B5
:1003C80005300A128A1103230A128A1183120313B1
:1003D800891489102130CA004A08CB00F429F4296D
:1003E8000130CB02031DF929FA29F429891489104F
:1003F80005300A128A1103230A128A112030831247
:1004080003138800891489100D30CA004A08CC00EB
:100418000E2A0E2A0130CC02031D132A142A0E2A92
:10042800152A28300A128A1171220A128A110830F4
:100438000A128A1171220A128A110F300A128A11BD
:1004480071220A128A1106300A128A1171220A12BE
:100458008A11080083160313811388018901FF306C
:100468008600831203139F018230831603139F00B3
:10047800FF3085008701831203138701091190104B
:100488000C108F018E011012901210118316031395
:100498000C148312031310140A128A11D5210A129C
:1004A8008A110A128A1165230A128A1101308312ED
:1004B8000313CA000030CB000A128A11BB220A12A9
:1004C8008A118B178B160B178B150B102E30831276
:1004D8000313CF004F08C500080083120313C80098
:1004E80008080F3948048800891489104808C6008C
:1004F80004300310C60DFF3E031D7D2A08080F397E
:1005080046048800891489100D30C6004608C700C3
:100518008E2A8E2A0130C702031D932A942A8E2A16
:10052800952A0800F2008312031308080F39720491
:100538008800891489107208F00004300310F00D47
:10054800FF3E031DA22A08080F3970048800891489
:1005580089100D30F0007008F100B32AB32A013079
:10056800F102031DB82AB92AB32ABA2A080083124D
:100578000313CD01CE01CF2AE8300A128A110323D2
:100588000A128A11013083120313CD070318CE0A09
:100598000030CE07CF2A4E08803ACC004B08803A6C
:1005A8004C02031DD92A4A084D02031CDC2ADD2A05
:1005B800C02ADE2A0800F400831203130914F52A5E
:1005C800740884000A128A1130210A128A110A1248
:1005D8008A1196220A128A110130F3007308F4076F
:1005E800F52A740884000A128A1130210A128A1125
:1005F8000038031D002B012BE42A022B080083126C
:100608000313C7000430C6004608C8005330C600AC
:100618004608C900102B102B0130C902031D152BE9
:10062800162B102B172B0130C802031D1C2B1D2B5A
:100638000A2B1E2B0130C702031D232B242B062B4C
:10064800252B0800F1000430F0007008F200533048
:10065800F0007008F300312B312B0130F302031D39
:10066800362B372B312B382B0130F202031D3D2B53
:100678003E2B2B2B3F2B0130F102031D442B452B26
:10068800272B462B0800F901FA01FB01FC01FD01AB
:1006980083132030840046300A128A119B230A12E1
:1006A8008A110A128A11A3230A128A11D0000A1287
:1006B8008A11A4230A128A11D10083010A128A110D
:1006C800912B83120313091001300A128A11712227
:1006D8000A128A1102300A128A1103230A128A1195
:1006E800080083120313091001300A128A11962296
:1006F8000A128A1102300A128A1126230A128A1152
:100708000800F3008312031309107308803E0A12CD
:100718008A1196220A128A1108000A128A112E22B8
:100728000A128A11972B972B0A128A111228640031
:100738008001840A04060319003404069C2BFC3447
:020748000C346F
:02400E007AFF37
:00000001FF
