:100000000A128A11622900308A000408840A8207D1
:0E00100000346534723472346F34723400344C
:1001B000FC340C3412340034F3008312031309109E
:1001C0007308803E0A128A113D210A128A11080022
:1001D00083120313091001300A128A113D210A12F9
:1001E0008A1102300A128A11F8200A128A110800B4
:1001F000F1000430F0007008F2005330F000700895
:10020000F300032903290130F302031D08290929FA
:1002100003290A290130F202031D0F291029FD28A4
:1002200011290130F102031D16291729F92818296F
:100230000800F4008312031309142F2974088400A2
:100240000A128A1103200A128A110A128A113D2108
:100250000A128A110130F3007308F4072F29740879
:1002600084000A128A1103200A128A110038031D21
:100270003A293B291E293C290800F2008312031366
:1002800008080F3972048800891489107208F00078
:1002900004300310F00DFF3E031D492908080F39F3
:1002A00070048800891489100D30F0007008F10086
:1002B0005A295A290130F102031D5F2960295A2960
:1002C00061290800AE01AF01B001B101B201B30173
:1002D000B401B501B6010A128A11D8200A128A1196
:1002E000B7000A128A11D9200A128A11B8000A121C
:1002F0008A11DA200A128A11B9000A128A11DB2047
:100300000A128A11BA0083010A128A11D729F2004F
:1003100083120313091408080F3972048800891422
:1003200089107208F00004300310F00DFF3E031D29
:10033000942908080F3970048800891489100D3039
:10034000F0007008F100A529A5290130F102031D74
:10035000AA29AB29A529AC290800F401F501B02987
:10036000701CB329B429BA297208F4070318F50AD6
:100370007308F50701300310F20DF30DFF3E031D66
:10038000BB2901300310F10CF00CFF3E031DC22904
:1003900071087004031DCD29CE29B029CF29750815
:1003A000F101F1077408F001F007D629080083165F
:1003B0000313811389018701880107309F0083128D
:1003C00003130911870164300A128A11F8200A12F6
:1003D0008A110A128A110E220A128A110A128A112D
:1003E000E8200A128A11F4290A128A111B250A121E
:1003F0008A11831203133008AD002D08B600303087
:10040000AD002D08B60736080A128A110D240A120B
:100410008A11F429F4290A128A110028831203137D
:1004200009100F300A128A11F8200A128A1130308E
:100430008312031388008914891005300A128A1167
:10044000F8200A128A1183120313891489102130AB
:10045000F4007408F5002D2A2D2A0130F502031D41
:10046000322A332A2D2A8312031389148910053066
:100470000A128A11F8200A128A11203083120313FB
:100480008800891489100D30F4007408F600492A98
:10049000492A0130F602031D4E2A4F2A492A502AC2
:1004A00028300A128A113D210A128A1108300A12D4
:1004B0008A113D210A128A110F300A128A113D2138
:1004C0000A128A1106300A128A113D210A128A1173
:1004D000080073087204710470040319702A712AE9
:1004E000BB2AF9010314F90D832A0130F800031027
:1004F000F00DF10DF20DF30DF80B772A0130F80035
:100500007808F907832AF31F862A872A752A892AF9
:10051000892A73087702031D972A72087602031D41
:10052000972A71087502031D972A70087402031C2C
:100530009A2A9B2AAA2A7008F4027108031C710FD8
:10054000F5027208031C720FF6027308031C730F86
:10055000F702AA2A01300310F30CF20CF10CF00C94
:10056000FF3E031DAB2A0130F902031DB82AB92A48
:10057000892ABB2ABB2A7708F3007608F20075089F
:10058000F1007408F000C42A0800F601F31FC92A1C
:10059000CA2AD32AF209F309F20A0319F30AF60167
:1005A0000314F60DD32AF11FD62AD72ADD2AF00923
:1005B000F109F00A0319F10ADD2A71087004031920
:1005C000E22AE32A192BF5010314F50DF32A013071
:1005D0000310F00DF10DFF3E031DE82A0130F40079
:1005E0007408F507F32AF11FF62AF72AE72AF92AF1
:1005F000F92A71087302031DFF2A70087202031C96
:10060000022B032B0A2B7008F2027108031CF30360
:10061000F3020A2B01300310F10CF00CFF3E031D16
:100620000B2B0130F502031D162B172BF92A192B62
:10063000192B7608031D1D2B232BF209F309F20A4F
:100640000319F30A232B7308F101F1077208F00173
:10065000F0072A2B08000030FC000030FB000030BF
:10066000FA000030F9007308720471047004031971
:100670003A2B3B2B8F2BFD010314FD0D4D2B01302D
:10068000F8000310F00DF10DF20DF30DF80B412BF6
:100690000130F8007808FD074D2BF31F502B512B2C
:1006A0003F2B532B532B0130F8000310F90DFA0D9B
:1006B000FB0DFC0DF80B552B73087702031D6A2BFD
:1006C00072087602031D6A2B71087502031D6A2BDE
:1006D00070087402031C6D2B6E2B7E2B7008F402C5
:1006E0007108031C710FF5027208031C720FF602E9
:1006F0007308031C730FF70279147E2B013003106B
:10070000F30CF20CF10CF00CFF3E031D7F2B0130BB
:10071000FD02031D8C2B8D2B532B8F2B8F2B7C08D5
:10072000F3007B08F2007A08F1007908F000982BBA
:100730000800F601F11F9D2B9E2BA72BF009F10954
:10074000F00A0319F10AF6010314F60DA72BF31FA3
:10075000AA2BAB2BB52BF209F309F20A0319F30A02
:100760000130F4007408F606B52BF701F8017108A2
:1007700070040319BC2BBD2BFB2BF5010314F50DE5
:10078000CD2B01300310F00DF10DFF3E031DC22BE8
:100790000130F4007408F507CD2BF11FD02BD12BBD
:1007A000C12BD32BD32B01300310F70DF80DFF3ED7
:1007B000031DD42B71087302031DE02B7008720215
:1007C000031CE32BE42BEC2B7008F2027108031CD2
:1007D000F303F3027714EC2B01300310F10CF00C4F
:1007E000FF3E031DED2B0130F502031DF82BF92B05
:1007F000D32BFB2BFB2B7608031DFF2B052CF709B6
:10080000F809F70A0319F80A052C7808F101F1072D
:100810007708F001F0070C2C080083120313AC00DA
:100820002C08313A031D152C162C212C0A128A1182
:10083000E8200A128A110A128A114E260A128A1117
:100840001A2D831203132C08323A031D282C292C4D
:10085000302C31300A128A1187210A128A111A2D7E
:10086000831203132C08333A031D372C382C3F2CEA
:1008700034300A128A1187210A128A111A2D831222
:1008800003132C08343A031D462C472C4E2C3730CA
:100890000A128A1187210A128A111A2D8312031350
:1008A0002C08353A031D552C562C5D2C30300A127D
:1008B0008A1187210A128A111A2D831203132C0818
:1008C000363A031D642C652C6C2C32300A128A11C6
:1008D00087210A128A111A2D831203132C08373A22
:1008E000031D732C742C7B2C35300A128A1187213E
:1008F0000A128A111A2D831203132C08383A031D89
:10090000822C832C8A2C38300A128A1187210A12F1
:100910008A111A2D831203132C08393A031D912CC6
:10092000922C992C3D300A128A1187210A128A11C1
:100930001A2D831203132C083A3A031DA02CA12C64
:10094000A82C33300A128A1187210A128A111A2D13
:10095000831203132C083B3A031DAF2CB02CB72C89
:1009600036300A128A1187210A128A111A2D83122F
:1009700003132C083C3A031DBE2CBF2CC62C393067
:100980000A128A1187210A128A111A2D831203135F
:100990002C083D3A031DCD2CCE2CD52C2B300A1221
:1009A0008A1187210A128A111A2D831203132C0827
:1009B0003E3A031DDC2CDD2CE42C2D300A128A116A
:1009C00087210A128A111A2D831203132C083F3A29
:1009D000031DEB2CEC2CF32C78300A128A118721A2
:1009E0000A128A111A2D831203132C08403A031D90
:1009F000FA2CFB2C022D2F300A128A1187210A12A1
:100A00008A111A2D831203132C080A128A118721C6
:100A10000A128A111A2D1A2D1A2D1A2D1A2D1A2D75
:100A20001A2D1A2D1A2D1A2D1A2D1A2D1A2D1A2D8E
:100A30001A2D1A2D080083120313A001A1013230D0
:100A40000A128A11F8200A128A11262D8312031322
:100A50008601F03083160313860083120313060801
:100A6000F90004300310F90CFF3E031D322D790804
:100A70000F3A031D3C2D3D2D262D3E2D32300A12FE
:100A80008A11F8200A128A11452D013083120313AE
:100A900020062104031D4D2D4E2D502DC42DC42D97
:100AA000AE01AF012F08803AFF0080307F02031DA6
:100AB0005B2D04302E02031C5E2D5F2D612D452D14
:100AC000452D8312031386012F082E04031D692D63
:100AD0006A2D6E2DA2010314A20D8D2D01302E065C
:100AE0002F04031D742D752D7A2D0230F90079081D
:100AF000A2008D2D02302E062F04031D802D812D86
:100B0000862D0430F9007908A2008D2D0830F900F7
:100B10007908A2008D2D8D2D8D2D220983160313AA
:100B20008600831203130608F90004300310F90C41
:100B3000FF3E031D962D7908FA00FB017A08B200EA
:100B40007B08B3000F30320633040319A82DA92DFA
:100B5000AE2D0130A0000030A100452D0130AE07C0
:100B60000318AF0A0030AF072F08803AFF0080302B
:100B70007F02031DBD2D04302E02031CC02DC12D8C
:100B8000612D452D452D452D8312031332080F3A53
:100B9000F9007908A3000830F0000030F1002308C4
:100BA000F900FA017908F2007A08F3000A128A11B2
:100BB00099230A128A11013070067104031DE12D78
:100BC000E22DE92D0430F900790883120313A30004
:100BD0003A2E0430F0000030F10083120313230892
:100BE000F900FA017908F2007A08F3000A128A1172
:100BF00099230A128A11013070067104031D012E17
:100C0000022E092E0330F900790883120313A30082
:100C10003A2E0230F0000030F10083120313230853
:100C2000F900FA017908F2007A08F3000A128A1131
:100C300099230A128A11013070067104031D212EB6
:100C4000222E292E0230F900790883120313A30003
:100C50003A2E831203132308013A031D302E312E3E
:100C6000352EA3010314A30D3A2EA3013A2E3A2EDA
:100C70003A2E3A2E2F08FA002E08F9000230FF0013
:100C80000310F90DFA0DFF0B402E23087907B00071
:100C90000030031801307A07B1000800382F013006
:100CA00083120313A8070318A90A0030A90700300C
:100CB000F3000030F2000030F1000A30F0003A0892
:100CC000F7003908F6003808F5003708F4000A1272
:100CD0008A1169220A128A11710883120313AB0167
:100CE000AB077008AA01AA07053028062904031DCE
:100CF0007A2E7B2E872E2A08A6070318A70A2B0810
:100D0000A7072A08A4070318A50A2B08A507063079
:100D100028062904031D8D2E8E2EAC2E2B08F101E2
:100D2000F1072A08F001F0070A30F2000030F30062
:100D30000A128A11AD210A128A1170088312031354
:100D4000A6070318A70A7108A7072A08A40703180B
:100D5000A50A2B08A507AC2E073028062904031D79
:100D6000B22EB32ED12E2B08F101F1072A08F00183
:100D7000F0076430F2000030F3000A128A11AD214E
:100D80000A128A11700883120313A6070318A70A10
:100D90007108A7072A08A4070318A50A2B08A507A6
:100DA000D12E043028062904031DD72ED82EF02E6C
:100DB0002B08F101F1072A08F001F0070A30F200D0
:100DC0000030F3000A128A11AD210A128A1170084C
:100DD00083120313A0070318A10A7108A107F02EBC
:100DE000033028062904031DF62EF72EFD2E2A08AF
:100DF000A0070318A10A2B08A1070230280629041E
:100E0000031D032F042F0A2F2A08A2070318A30A81
:100E10002B08A307013028062904031D102F112FCA
:100E2000182F2A08A2070318A30A2B08A307182FB4
:100E30000030F3000030F2000030F1000A30F00022
:100E40003A08F7003908F6003808F5003708F400CA
:100E50000A128A112B230A128A11730883120313B0
:100E6000BA007208B9007108B8007008B700382FCE
:100E7000831203133A08390438043704031D412F41
:100E8000422F4F2E432F073028062904031D492FD8
:100E90004A2FF22F00300A128A11DC200A128A111E
:100EA0006430F0000030F100831203132708F301CF
:100EB000F3072608F201F2070A128A1199230A128F
:100EC0008A117008303E0A128A1187210A128A118B
:100ED0000A30F0000030F100831203132708F301F9
:100EE000F3072608F201F2070A128A1199230A125F
:100EF0008A117008303E0A128A1187210A128A115B
:100F00000A30F0000030F100831203132708F301C8
:100F1000F3072608F201F2070A128A11C5220A1203
:100F20008A117008303E0A128A1187210A128A112A
:100F300040300A128A11DC200A128A110A30F000AD
:100F40000030F100831203132508F301F30724088E
:100F5000F201F2070A128A1199230A128A11700803
:100F6000303E0A128A1187210A128A110A30F000D3
:100F70000030F100831203132508F301F30724085E
:100F8000F201F2070A128A11C5220A128A117008A8
:100F9000303E0A128A1187210A128A118312031322
:100FA0002018D32FD42FD82F071487100715DC2F24
:100FB000071087140715DC2F2308803AFF008030C4
:100FC0007F02031DE52F0B302202031CE82FE92FBF
:100FD000ED2F831203138717FF2F83120313871339
:100FE000FF2FFF2F43300A128A11DC200A128A11C8
:100FF00001300A128A1119210A128A11FF2F0800E2
:02400E007AFF37
:00000001FF
