:060000000A128A11122809
:10000800FE00030EF0000408F1000A08F200831253
:1000180003137F08F3000A168A11782B0A168A112F
:10002800412B0A168A1156240A128A113C3083126F
:1000380003138100473083160313810023280030FF
:100048000A128A1584200A128A11831203132C08B3
:1000580083160313D900831203132D088316031381
:10006800DA00831203132E0883160313DB00003013
:1000780083120313BA004C30BB004230BC00831615
:100088000313590883120313BD00831603135A0878
:1000980083120313BE00831603135B088312031332
:1000A800BF000A128A15A9220A128A1183120313A1
:1000B8003A0883160313D900831203133B088316E7
:1000C8000313DA00831203133C0883160313DB00BF
:1000D80001300A128A1584200A128A118312031326
:1000E8002C0883160313DC00831203132D088316D0
:1000F8000313DD00831203132E0883160313DE0097
:10010800003083120313BA004C30BB004230BC00ED
:10011800831603135C0883120313BD0083160313AD
:100128005D0883120313BE00831603135E0883124F
:100138000313BF000A128A15A9220A128A11831210
:1001480003133A0883160313DC00831203133B08D6
:1001580083160313DD00831203133C08831603136D
:10016800DE0002300A128A1584200A128A118312CC
:1001780003132C0883160313DF00831203132D08BF
:1001880083160313E000831203132E088316031348
:10019800E100003083120313BA004C30BB00423038
:1001A800BC00831603135F0883120313BD00831674
:1001B8000313600883120313BE0083160313610838
:1001C80083120313BF000A128A15A9220A128A1180
:1001D800831203133A0883160313DF0083120313F1
:1001E8003B0883160313E000831203133C088316AD
:1001F8000313E10003300A128A1584200A128A11B7
:10020800831203132C0883160313E20083120313CB
:100218002D0883160313E300831203132E08831695
:100228000313E400003083120313BA004C30BB0000
:100238004230BC0083160313620883120313BD0007
:1002480083160313630883120313BE008316031374
:10025800640883120313BF000A128A15A9220A121E
:100268008A11831203133A0883160313E2008312D8
:1002780003133B0883160313E300831203133C089C
:1002880083160313E4005C0883120313AD0083167E
:1002980003135D0883120313AE00831603135E086D
:1002A80083120313AF008316031359088312031331
:1002B800B000831603135A0883120313B100831680
:1002C80003135B0883120313B2000A128A15BA26B5
:1002D8000A128A11831203132D0883160313D00000
:1002E800831203132E0883160313D10083120313FA
:1002F8002F0883160313D2005F0883120313AD007F
:1003080083160313600883120313AE0083160313C6
:10031800610883120313AF00831603135008831276
:100328000313B00083160313510883120313B1009B
:1003380083160313520883120313B2000A128A1594
:10034800BA260A128A11831203132D08831603137F
:10035800D300831203132E0883160313D4008312C9
:1003680003132F0883160313D500003083120313D9
:10037800CA00C830CB004230CC000030BA00A030F0
:10038800BB004130BC0083160313620883120313B9
:10039800AD0083160313630883120313AE0083169C
:1003A8000313640883120313AF008316031353085F
:1003B80083120313B0008316031354088312031324
:1003C800B10083160313550883120313B2000A12EF
:1003D8008A15BA260A128A11831203132D08BD0042
:1003E8002E08BE002F08BF000A128A15A9220A1279
:1003F8008A11831203133A08CD003B08CE003C084B
:10040800CF000A128A1571230A128A118312031364
:100418004A0883160313D600831203134B08831666
:100428000313D700831203134C0883160313D80051
:100438005608BD005708BE005808BF009030CF00CE
:100448004F08C0000230C1000030C2000A128A15ED
:100458007A250A128A118B178B16831603135608EE
:1004680083120313A0008316031357088312031380
:10047800A10083160313580883120313A200003047
:10048800A3002030A4004230A5000A168A1196263F
:100498000A128A110318512A522A802A00300A1691
:1004A8008A11FF220A128A110A168A1119230A12BE
:1004B8008A113A3083120313A0008030A1000A1673
:1004C8008A11FF230A128A1140300A168A11FF2264
:1004D8000A128A11903083120313A0000130A10080
:1004E8000A168A11FF230A128A112C300A168A1159
:1004F80098230A128A112328003083120313A000BC
:100508002030A1004230A20083160313560883123C
:100518000313A30083160313570883120313A400BD
:1005280083160313580883120313A5000A168A11A9
:1005380096260A128A110318A22AA32A102B8316B8
:100548000313560883120313A000831603135708D6
:1005580083120313A100831603135808831203138D
:10056800A2000030A3004C30A4004230A5000A16B7
:100578008A1196260A128A110318C32AC42A102B34
:1005880000300A168A11FF220A128A116930831272
:100598000313A0008030A1000A168A11FF230A1253
:1005A8008A110A308316031368066904031DDD2ABD
:1005B800DE2AF02A40300A168A11FF220A128A110E
:1005C800903083120313A0000130A1000A168A118B
:1005D800FF230A128A11F02A1430831603136806BF
:1005E8006904031DF82AF92A232840300A168A11BB
:1005F800FF220A128A115F3083120313A000803091
:10060800A1000A168A11FF230A128A1183160313FE
:10061800E801E90123282328003083120313A000EE
:100628004830A1004230A2008316031356088312F3
:100638000313A30083160313570883120313A4009C
:1006480083160313580883120313A5000A168A1188
:1006580096260A128A110318322B332B7C2B831609
:100668000313560883120313A000831603135708B5
:1006780083120313A100831603135808831203136C
:10068800A2000030A3007430A4004230A5000A166E
:100698008A1196260A128A110318532B542B7C2B85
:1006A80000300A168A11FF220A128A110A168A11C4
:1006B80019230A128A11583083120313A0008030BC
:1006C800A1000A168A11FF230A128A1140300A165D
:1006D8008A11FF220A128A11903083120313A00094
:1006E8000130A1000A168A11FF230A128A11232851
:1006F800003083120313A0008C30A1004230A20006
:1007080083160313560883120313A30083160313D7
:10071800570883120313A40083160313580883127F
:100728000313A5000A168A1196260A128A110318BD
:100738009E2B9F2B232800300A168A11FF220A12AB
:100748008A110A168A1119230A128A115330831240
:100758000313A0008030A1000A168A11FF230A1291
:100768008A1140300A168A11FF220A128A11903023
:1007780083120313A0000130A1000A168A11FF2377
:100788000A128A11232823282328232823282328E8
:100798000A128A111228831603132708260425042F
:1007A800031DD72BD82BE02B0030A5008030A600E6
:1007B8003F30A700DD2DDD2D723083120313A0001A
:1007C8003130A1004430A200831603132508831298
:1007D8000313A30083160313260883120313A4002C
:1007E80083160313270883120313A5000A168A1118
:1007F80096260A128A110318022C032C1C2C22306C
:10080800F8000030F900112C003083160313A500FE
:100818008030A6007F30A700DD2DFF30831603133C
:10082800A5007F30A6007F30A700DD2DDD2DDD2D52
:1008380083160313250883120313A00083160313DA
:10084800260883120313A1008316031327088312B3
:100858000313A2004930A3003A30A400C430A50015
:100868000A168A1196260A128A1103183C2C3D2C66
:100878004B2C2230F8000030F900003083160313A7
:10088800A5000030A6000030A700DD2DDD2D831661
:100898000313250883120313A000831603132608E5
:1008A80083120313A100831603132708831203136B
:1008B800A2000030A3000030A4000030A5000A16F2
:1008C8008A1196260A128A110030031C01308312FD
:1008D8000313EF006F0883160313AD002D08031DE3
:1008E800762C9E2C250883120313A5008316031368
:1008F800260883120313A6008316031327088312FE
:100908000313A7000A168A110B230A128A118312ED
:100918000313250883160313A5008312031326085F
:1009280083160313A60083120313270883160313E1
:10093800A7009E2CAA3083120313CA00B830CB003C
:100948003F30CC0083160313250883120313CD0010
:1009580083160313260883120313CE00831603138A
:10096800270883120313CF000A128A1571230A126B
:100978008A11831203134A0883160313A5008312EE
:1009880003134B0883160313A600831203134C08A2
:1009980083160313A700250883120313BA008316CE
:1009A8000313260883120313BB00831603132708B7
:1009B80083120313BC000A128A153D210A128A11F8
:1009C800831203133A08F4003B08F5003C08F600CC
:1009D8000A128A1159270A128A11750883160313F5
:1009E800AC01AC077408AB01AB072C0883120313E6
:1009F800A901A907831603132B0883120313A8015F
:100A0800A8070A168A112A240A128A1183120313C4
:100A18002808BA002908BB002A08BC00831603135B
:100A2800250883120313BD008316031326088312B7
:100A38000313BE0083160313270883120313BF0092
:100A48000A168A1159230A128A11831203133A08C3
:100A580083160313A500831203133B08831603139D
:100A6800A600831203133C0883160313A700250866
:100A780083120313E4008316031326088312031357
:100A8800E50083160313270883120313E6000130D9
:100A9800EF006F08E7000930E8000030E9000A16A7
:100AA8008A1181270A128A11831203136408DA0053
:100AB8006508DB006608DC00831603132C08831224
:100AC8000313DE01DE07831603132B0883120313B7
:100AD800DD01DD070A128A15E5210A128A1183123F
:100AE80003135A0883160313A500831203135B0824
:100AF80083160313A600831203135C0883160313DB
:100B0800A7002D08031D892DDD2D922D922D003073
:100B1800A8008030A9007F30AA00982DFF30A800D7
:100B28007F30A9007F30AA0027082A06031DA22DBE
:100B380026082906031DA22D25082806031DA52D14
:100B4800A62DAE2D0030A5000030A6000030A7006D
:100B5800DD2DDD2D250883120313BA008316031338
:100B6800260883120313BB00831603132708831276
:100B78000313BC000030BD008030BE003F30BF0012
:100B88000A128A15A9220A128A11831203133A0833
:100B980083160313A500831203133B08831603135C
:100BA800A600831203133C0883160313A700DD2D48
:100BB800DD2D080083160313B80130082F042E0416
:100BC800031DE72DE82D192E003083120313A00012
:100BD8000030A1000030A2008316031331088312ED
:100BE8000313A30083160313320883120313A4000C
:100BF80083160313330883120313A5000A168A11F8
:100C080096260A128A11031C0A2E0B2E0F2E21304B
:100C1800F8000030F900003083160313AE000030EE
:100C2800AF000030B000582F582F33083204310479
:100C3800031D1F2E202E282E0030AE008030AF005E
:100C48003F30B000582F582F2E0883120313A000EE
:100C5800831603132F0883120313A10083160313AB
:100C6800300883120313A2000030A3000030A40050
:100C78000030A5000A168A1196260A128A1103184E
:100C8800462E472ED02E831603133108F40032085F
:100C9800F5003308F6000A128A1159270A128A1138
:100CA800770883160313BC007608BB007508BA00E2
:100CB8007408B9003C0883120313A80083160313B1
:100CC8003B0883120313A700831603133A08831201
:100CD8000313A60083160313390883120313A50010
:100CE8000A168A1187240A128A11831603133308F5
:100CF800831203132706031D8F2E8316031332084E
:100D0800831203132606031D8F2E8316031331083F
:100D18008312031325060319922E932EA12E213038
:100D2800F8000030F900003083160313AE000030DD
:100D3800AF000030B000582F582F8316031339081E
:100D48000139B4003408B8002E0883120313A50033
:100D5800831603132F0883120313A60083160313A5
:100D6800300883120313A7000A168A110B230A12EC
:100D78008A1183120313250883160313AE00831206
:100D88000313260883160313AF00831203132708DF
:100D980083160313B000D02E831603132E08A00069
:100DA8002F08A1003008A2000A128A155F240A122F
:100DB8008A11831603132008B5002108B6002208FB
:100DC800B700310883120313CA00831603133208CD
:100DD80083120313CB008316031333088312031300
:100DE800CC0083160313350883120313CD00831632
:100DF8000313360883120313CE0083160313370830
:100E080083120313CF000A128A1571230A128A115A
:100E1800831203134A0883160313A50083120313CE
:100E28004B0883160313A600831203134C0883167A
:100E38000313A7000A128A11CF230A128A118316F4
:100E480003132508AE002608AF002708B0003808AD
:100E5800031D2F2F582F2E0883120313A500831666
:100E680003132F0883120313A600831603133008F5
:100E780083120313A7000A168A110B230A128A1178
:100E880083120313250883160313AE00831203137A
:100E9800260883160313AF0083120313270883164B
:100EA8000313B000582F582F080074088312031337
:100EB800A0007508A1007608A2000310210D220DDC
:100EC800A3002308A900A908031D6B2F6C2F762FF8
:100ED8000030F7000030F6000030F5000030F40074
:100EE800FE2FFE2F7408A0007508A1007608A20046
:100EF80017300310A20CA10CA00CFF3E031D7D2F80
:100F08002008A3002308A400F517FF30F405FF30DC
:100F1800F5050030F6057408A5007508A6007608E2
:100F2800A700A8018E30A902A91F9B2F9C2FC12FB3
:100F38002908803A8F3E0318A22FA32FAE2F003026
:100F4800F7000030F6000030F5000030F400FE2F06
:100F5800FE2FAE2F01300310A80CA70CA60CA50C71
:100F6800FF3E031DAF2F0130A0002008A907031D75
:100F7800BE2FBF2FAE2FE52FE52F18302902031CF7
:100F8800C62FC72FDE2F0030F7000030F6000030E4
:100F9800F5000030F400FE2FFE2FDE2F0130A000F8
:100FA8000310A50DA60DA70DA80DA00BD42F013079
:100FB800A902DE2FA908031DE22FE32FD22FE52F68
:100FC800E52F2408031DE92FF52FA509A609A70970
:100FD800A809A50A0319A60A0319A70A0319A80A42
:100FE800F52F2808F7002708F6002608F500250839
:060FF800F400FE2F0800CA
:10100000FF1B0A2883137F1883170008840A03191B
:10101000FF0A080008308A000408840A82070034A6
:10102000003480343F34723431343F34FE3475340C
:101030003E34583463343D3495341D343C34C53427
:10104000AE343A34793421343934943480343734FA
:101050009334A734353456341534343400340034E2
:101060000034003480343F34F034FF34BE34E23492
:10107000A9343E3483347634BE34AE342B343E341B
:101080003C34C334BD34D23413343D347834D33497
:10109000BB3441347634653472346134673465343A
:1010A0002034543465346D34703400345334743423
:1010B00061347234743469346E3467342E342E34AF
:1010C0002E3400344834693467346834203444346E
:1010D00061346E3467346534723400342034203423
:1010E0002034203420342034203420342034003480
:1010F0005734613472346E3469346E34673400347A
:1011080083120313B1000730AF002F08B105413037
:101118009F000E30831603139F000A300A168A11A7
:1011280098230A128A15831203133108AF0002307C
:101138000310AF0DFF3E031D9C2803102F0DB000B8
:1011480030089F041F15A8281F19AB28AC28A82809
:10115800AD281E080A168A11B9230A128A158312A5
:1011680003132508AC002608AD002708AE00BC28EC
:10117800080083120313B101B201FC280A30F400FD
:101188000030F5002B08F701F7072A08F601F607E3
:101198000A168A11BD240A128A157408303E831271
:1011A8000313AF0031082C07B000300884002F0863
:1011B800831780000130B1070318B20A0030B20764
:1011C8000A30F4000030F5002B08F701F7072A0869
:1011D800F601F6070A168A119C250A128A1575085F
:1011E80083120313AB01AB077408AA01AA07FC28F2
:1011F8002B082A04031D01290229C22815291529AB
:101208003030AF0031082C07B000300884002F08B8
:10121800831780000130B1070318B20A0030B20703
:1012280015292E083202031D1B292D083102031C23
:101238001E291F29042920293208F501F50731083C
:10124800F401F4072C080A168A11EC250A128A15EB
:101258008312031331082C07AF002F08840083176B
:1012680080013208AB01AB073108AA01AA073C2963
:101278000800831203133A08F4003B08F5003C0801
:10128800F6004130BD003D08F7000A168A11032513
:101298000A128A1583120313C21F532954297D2960
:1012A8003A08A0003B08A1003C08A2000030A300B7
:1012B8000030A4000030A5000A168A1196260A12EA
:1012C8008A150318682969297329003083120313C2
:1012D800BA008030BB00BF30BC00E429E4290030EC
:1012E80083120313BA000030BB000030BC00E429AD
:1012F800E42900304202153003194102031C8529F4
:1013080086298729E4293A08F4003B08F5003C08B7
:10131800F6000A128A1159270A128A1577088312C9
:101328000313AD007608AC007508AB007408AA007A
:101338000A168A114F250A128A15831203132A08DE
:10134800BE002B08BF002C08C0003A08A0003B08CC
:10135800A1003C08A2003E08A3003F08A4004008E2
:10136800A5000A168A1196260A128A150318BD299D
:10137800BE29DB29003083120313AD008030AE0094
:10138800BF30AF003E08B0003F08B1004008B200CF
:101398000A128A15BA260A128A15831203132D080F
:1013A800BA002E08BB002F08BC00E429E4298312E8
:1013B80003133E08BA003F08BB004008BC00E429FC
:1013C8000800831203135C085B045A04031DED290B
:1013D800EE29F6290030DA000030DB000030DC00AE
:1013E800A82AA82A5C087F39DF00E0010130FF0045
:1013F8000310DF0DE00DFF0BFC295F08DD07031864
:10140800DE0A6008DE075B0D5B0D0139DF00E001D5
:101418005F08DD070318DE0A6008DE07DE1F152AED
:10142800162A232A2230F8000030F9000030DA00AA
:101438000030DB000030DC00A82AA82AA72A5E08B2
:10144800803AFF0081307F02031D2C2A00305D02A4
:10145800031C2F2A302A892A2230F8000030F9008C
:10146800831203135A08A0005B08A1005C08A200BD
:101478000030A3000030A4000030A5000A168A112D
:1014880096260A128A1503184A2A4B2A7D2A562AB2
:10149800562A003083120313E1008030E2007F30C7
:1014A800E3005F2AFF3083120313E1007F30E2007C
:1014B8007F30E3005F2A6108A5006208A600630880
:1014C800A7000A168A110B230A128A15831203131E
:1014D8002508DA002608DB002708DC00A82AA82A45
:1014E800A72A7D2A0030DA008030DB007F30DC005C
:1014F800A82AFF3083120313DA007F30DB007F3025
:10150800DC00A82AA82AA82AA72A831203135E089F
:10151800E0005D08DF000130FF00600DE00CDF0C2B
:10152800FF0B912A5C085F0680395F06DC005D08C6
:101538000139DF00DF0CDF0C5B085F067F395F06CF
:10154800DB00A72AA72AA82A0800831203133D084C
:10155800C0003E08C1003F08C2000310410D420D03
:10156800C3004308C800C808031DBB2ABC2AC42AF4
:101578000030BA000030BB000030BC00702B702B6C
:101588003A08C0003B08C1003C08C2000310410DE6
:10159800420DC3004308C900C908031DD42AD52A2F
:1015A800DD2A0030BA000030BB000030BC00702BD0
:1015B800702B0030C5000030C6000030C7008930ED
:1015C8004907C0004008C8023D08C0003E08C100E5
:1015D8003F08C20010300310C20CC10CC00CFF3E03
:1015E800031DEF2A4008C3004308C9003A08C00099
:1015F8003B08C1003C08C20010300310C20CC10CEB
:10160800C00CFF3E031D012B4008C3004308C90658
:101618008030C0004008C905BE17FF30BD05FF3047
:10162800BE050030BF05BB17FF30BA05FF30BB054C
:101638000030BC051830C0004008C400232B01301E
:101648000310C50DC60DC70DFF3E031D242B3C0816
:101658003F02031D352B3B083E02031D352B3A087C
:101668003D02031C382B392B452B3A08BD023B0899
:10167800031C3B0FBE023C08031C3C0ABF02451476
:10168800452B01300310BD0DBE0DBF0DFF3E031DE0
:10169800462B0130C402031D522B532B232B542BF2
:1016A8004508A0004608A1004708A2004808C00055
:1016B8004008A3004908C1004108A4000A168A117D
:1016C80004270A128A15831203132008BA00210876
:1016D800BB002208BC00702B0800831203134A08C1
:1016E800D0004B08D1004C08D2000310510D520D08
:1016F800D3005308D400D408031D832B842B8C2BD0
:101708000030CA000030CB000030CC005E2C5E2CCC
:101718004D08D0004E08D1004F08D2000310510DDB
:10172800520DD3005308D900D908031D9C2B9D2BBB
:10173800A52B0030CA000030CB000030CC005E2C56
:101748005E2C59087B3ED0005008D4074A08D000C8
:101758004B08D1004C08D20010300310D20CD10C29
:10176800D00CFF3E031DB12B5008D3005308D900FD
:101778004D08D0004E08D1004F08D2001030031099
:10178800D20CD10CD00CFF3E031DC32B5008D30044
:101798005308D9068030D0005008D905CB17CE178A
:1017A800FF30CD05FF30CE050030CF050030D50025
:1017B8000030D6000030D7000730D0005008D800DD
:1017C800E52B4A1CE82BE92BFA2B4D08D5074E08C8
:1017D800031103184E0A0319F22BD6074F080311F9
:1017E80003184F0A0319F92BD707FA2B01300310F6
:1017F800CC0CCB0CCA0CFF3E031DFB2B0130031095
:10180800CD0DCE0DCF0DFF3E031D032C0130D802A8
:10181800031D0F2C102CE52B112C0930D00050087B
:10182800D800162C4A1C192C1A2C2B2C4D08D5071D
:101838004E08031103184E0A0319232CD6074F0824
:10184800031103184F0A03192A2CD7072B2C013030
:101858000310CC0CCB0CCA0CFF3E031D2C2C013002
:101868000310D70CD60CD50CFF3E031D342C0130C9
:10187800D802031D402C412C162C422C5508A000E0
:101888005608A1005708A2005408D0005008A30029
:101898005908D1005108A4000A168A1104270A120F
:1018A8008A15831203132008CA002108CB002208D6
:1018B800CC005E2C08008316031320088312031340
:1018C800A00083160313210883120313A1008316B3
:1018D8000313220883120313A2000030A300003070
:1018E800A4000030A5000A168A1196260A128A1545
:1018F80003187F2C802C8E2C2130F8000030F90042
:10190800003083160313A0000030A1000030A200AD
:10191800792D792D83160313220821042004031D31
:10192800962C972CA32C2230F8000030F9000030B8
:10193800A0000030A1000030A200792D792D0030E0
:1019480083120313AD008030AE00BF30AF0000300B
:10195800CA000030CB004030CC00A330EE006E0847
:10196800F700831603132008F4002108F500220865
:10197800F6000A168A1103250A128A1574088312BA
:101988000313CD007508CE007608CF000A128A1519
:1019980071230A128A15831203134A08B0004B08F0
:1019A800B1004C08B2000A128A15BA260A128A1522
:1019B800831203132D0883160313A0008312031345
:1019C8002E0883160313A100831203132F0883160E
:1019D8000313A200FF30A3070318A40AFF30A407CB
:1019E800200883120313E4008316031321088312CB
:1019F8000313E50083160313220883120313E6007A
:101A08001F30EE006E08E7000830E8000030E900FB
:101A18000A168A1181270A128A1583120313640889
:101A280083160313A0008312031365088316031398
:101A3800A10083120313660883160313A20020086B
:101A480083120313AD0083160313210883120313B3
:101A5800AE0083160313220883120313AF007230FB
:101A6800CA003130CB003F30CC0083160313240862
:101A780083120313A901A9078316031323088312EA
:101A88000313A801A8070A168A112A240A128A151C
:101A9800831203132808CD002908CE002A08CF0096
:101AA8000A128A1571230A128A15831203134A0827
:101AB800B0004B08B1004C08B2000A128A15BA26C9
:101AC8000A128A15831203132D0883160313A00024
:101AD800831203132E0883160313A1008312031322
:101AE8002F0883160313A200792D08008316031309
:101AF8003D08F4003E08F5003F08F6000A128A1176
:101B080059270A128A15750883160313C901C907CC
:101B18007408C801C8073D0883120313AD00831673
:101B280003133E0883120313AE00831603133F0802
:101B380083120313AF008316031349088312031398
:101B4800A901A90783160313480883120313A801E0
:101B5800A8070A168A112A240A128A15831203135F
:101B68002808A5002908A6002A08A7000A168A112D
:101B78000B230A128A15831203132508B0002608BE
:101B8800B1002708B2000A128A15BA260A128A1565
:101B9800831203132D0883160313CC008312031337
:101BA8002E0883160313CD00831203132F08831600
:101BB8000313CE00490883120313AB01AB07831646
:101BC8000313480883120313AA01AA0783160313F1
:101BD8004008C300430883120313AC000030AD0073
:101BE8000030AE000A128A15BD200A128A15831227
:101BF80003132B0883160313CB01CB07831203139C
:101C08002A0883160313CA01CA07420841040319A4
:101C18000E2E0F2EB92E2E30C3004A084007C400DE
:101C28004408840043088317800042088312031382
:101C3800A901A90783160313410883120313A801F6
:101C4800A8070A168A112A240A128A15831203136E
:101C5800280883160313B100831203132908831677
:101C68000313B200831203132A0883160313B30065
:101C78000030AE002030AF004130B0000A128A11A7
:101C8800DE250A128A15831603132E08C5002F08AD
:101C9800C6003008C7004C0883120313CA00831615
:101CA80003134D0883120313CB00831603134E0846
:101CB80083120313CC0083160313450883120313FE
:101CC800CD0083160313460883120313CE00831630
:101CD8000313470883120313CF000A128A157123CE
:101CE8000A128A15831203134A0883160313CC00B9
:101CF800831203134B0883160313CD0083120313B7
:101D08004C0883160313CE004C08F4004D08F50068
:101D18004E08F6000A128A1159270A128A15750800
:101D280083120313AB01AB077408AA01AA07831631
:101D380003134A084007013EC300430883120313F4
:101D4800AC0083160313420883120313AE01AE07D7
:101D580083160313410883120313AD01AD070A125A
:101D68008A15BD200A128A15B92E0800831203139A
:101D78002D08B3002E08B4002F08B5000310340D49
:101D8800350DB6003608B9003008B3003108B40084
:101D98003208B5000310340D350DB6003608B8000A
:101DA8003908031DD82EE92E380839020318DD2E0C
:101DB800DE2EF12E3903FF3A3807B300193033020B
:101DC800031CE72EE82EF12EE92E3008AD0031086D
:101DD800AE003208AF00FF2FFF2F3808031DF52E85
:101DE800052F390838020318FA2EFB2E062F380360
:101DF800FF3A3907B30019303302031C042F052FAB
:101E0800062FFF2F0630B3003308B700AF1F0D2F82
:101E18000E2F0F2FB717B21F122F132F142F37178C
:101E2800AE17FF30AD05FF30AE050030AF05B11776
:101E3800FF30B005FF30B1050030B205380839026F
:101E48000318272F282F592F292F01300310B00DE1
:101E5800B10DB20DFF3E031D2A2F0130B80238081C
:101E680039060319382F392F512F0130B702370897
:101E78000739031D402F412F292F512F512F512F43
:101E880001300310AF0CAE0CAD0CFF3E031D452F07
:101E98000130B3003308B907512F39083806031D3C
:101EA800562F572F442F902F902F39083802031898
:101EB8005E2F5F2F902F602F01300310AD0DAE0DF8
:101EC800AF0DFF3E031D612F0130B90238083906F6
:101ED80003196F2F702F882F0130B7023708073981
:101EE800031D772F782F602F882F882F882F013098
:101EF8000310B20CB10CB00CFF3E031D7C2F013057
:101F0800B3003308B807882F39083806031D8D2F0A
:101F18008E2F7B2F902F902FB71F932F942FA52FA5
:101F2800FF30AD06FF30AE06FF30AF060130AD071B
:101F3800003003180130AE07003003180130AF0736
:101F4800A52F371FA82FA92FBA2FFF30B006FF30B3
:101F5800B106FF30B2060130B00700300318013077
:101F6800B107003003180130B207BA2FB7012D08A6
:101F7800B0072E08031103182E0A0319C42FB1073E
:101F88002F08031103182F0A0319CB2FB207B21F0A
:101F9800CE2FCF2FE32FFF30B006FF30B106FF3032
:101FA800B2060130B007003003180130B107003025
:101FB80003180130B207B7010314B70DE32F300837
:101FC800A0003108A1003208A2003908B300330884
:101FD800A3003708B4003408A4000A168A1104279D
:101FE8000A128A15831203132008AD002108AE00D7
:081FF8002208AF00FF2F0800D2
:1025D60064008001840A0406031900340406EC2A08
:1025E6004130831203139F000E30831603139F009E
:1025F600831203131F140800F70083120313091034
:102606007708803E0A168A11DA230A168A1108000C
:10261600831203132708260425040319132B142BEE
:10262600172B8030A706172B182B080083120313CD
:10263600091001300A168A11DA230A168A110230A5
:102646000A168A1198230A168A110800F700F6015D
:10265600771C2E2B2F2B342B7408F5007508F607E4
:10266600342B0310F40D0310F70CF708031D3C2B55
:102676003D2B2B2B3E2B7608402B0800F801F90149
:102686008313D6308400EA300A168A11EB220A1622
:102696008A118317903084009A300A168A11EB2229
:1026A6000A168A1183010A128A11152880308312AC
:1026B6000313BC063D08AD003E08AE003F08AF0060
:1026C6003A08B0003B08B1003C08B2000A128A156D
:1026D600BA260A168A11831203132D08BA002E0889
:1026E600BB002F08BC00772B08008B1E7B2B7C2B96
:1026F6008C2B0B1D7F2B802B8C2B0B113D308100DF
:10270600013083160313E8070318E90A0030E907C6
:102716008C2B73088312FF0072088A0071088400EC
:10272600700E8300FE0E7E0E0900F5000430F400E4
:102736007408F6005330F4007408F700A32BA32B9B
:102746000130F702031DA82BA92BA32BAA2B0130BE
:10275600F602031DAF2BB02B9D2BB12B0130F502DA
:10276600031DB62BB72B992BB82B0800F70077085B
:1027760083120313A800A901AA012808A0002908AA
:10278600A1002A08A2008E30AB002B08A300A401EA
:102796000A168A1104270A168A11831203132008BF
:1027A600A5002108A6002208A700D92B0800F600DC
:1027B6008312031308080F397604880089148910D8
:1027C6007608F40004300310F40DFF3E031DE62BDB
:1027D60008080F3974048800891489100D30F40034
:1027E6007408F500F72BF72B0130F502031DFC2BBF
:1027F600FD2BF72BFE2B08008312031309141A2C4A
:102806002108FF00200884000A128A1500200A16F3
:102816008A110A168A11DA230A168A1101308312DE
:102826000313A0070318A10A0030A1071A2C2108D8
:10283600FF00200884000A128A1500200A168A1151
:102846000038031D272C282C032C292C0800F701FF
:1028560083120313A91F302C312C3A2CA809A9097D
:10286600A80A0319A90AF7010314F70D3A2C280838
:10287600A0002908A100A2018E30AB002B08A300FE
:102886007708AC002C08A4000A168A1104270A1639
:102896008A11831203132008A8002108A900220820
:1028A600AA00552C0800831603138113880187019B
:1028B60089018601FF30850003309F000A168A11C0
:1028C600F3220A168A110A168A113D260A168A1159
:1028D6000A168A1119230A168A114730831203131E
:1028E600A0008030A1000A168A11FF230A168A1159
:1028F600E8300A168A1198230A168A110A168A11CE
:1029060019230A168A1108008E30F70077088312F9
:102916000313A9009C2C01300310A80CA70CA60CCD
:10292600A50CFF3E031D8F2C0130F7007708A90781
:102936009C2CFF302805031DA12CA22C8E2CA32C29
:102946002508A0002608A1002708A2002908F700EC
:102956007708A300A4010A168A1104270A168A1109
:10296600831203132008A5002108A6002208A70049
:10297600BC2C0800750874040319C22CC32CFB2C4C
:1029860083120313A1010314A10DD52C01300310EA
:10299600F40DF50DFF3E031DCA2C0130A0002008E2
:1029A600A107D52CF51FD82CD92CC92CDB2CDB2C58
:1029B60075087702031DE12C74087602031CE42CCB
:1029C600E52CEC2C7408F6027508031CF703F702D5
:1029D600EC2C01300310F50CF40CFF3E031DED2C1E
:1029E6000130A102031DF82CF92CDB2CFB2CFB2C4F
:1029F6007708F501F5077608F401F407022D0800BB
:102A0600760875047404031D092D0A2D1A2D7708FE
:102A16008400003083138000840A00308000003078
:102A2600F4000030F5000030F6004E2D4E2D7608ED
:102A36007F3983120313A000A1010130FF000310A8
:102A4600A00DA10DFF0B222D77088400200883130B
:102A56008000840A21088000750D750D0139A000DB
:102A6600A1017708840020088004840A21088004D4
:102A76007708840082308007840F00080318000A54
:102A8600FF00FF307F0780008403760880393F38D7
:102A9600F600F5134E2D080083120313B1018E3094
:102AA600AE002E08B000AD1F592D5A2D782DAA095B
:102AB600AB09AC09AD09AA0A0319AB0A0319AC0A9A
:102AC6000319AD0AB1010314B10D782D782D01302B
:102AD6000310AD0CAC0CAB0CAA0CFF3E031D6B2D0A
:102AE6000130AE002E08B007782DFF302D05031DEE
:102AF6007D2D7E2D6A2D7F2D2A08A0002B08A10092
:102B06002C08A2003008AE002E08A3003108AF0042
:102B16002F08A4000A168A1104270A168A1183129E
:102B260003132008AA002108AB002208AC009B2D45
:102B3600080083120313A201A30175087404031984
:102B4600A52DA62DE42DA1010314A10DB62D01304E
:102B56000310F40DF50DFF3E031DAB2D0130A00053
:102B66002008A107B62DF51FB92DBA2DAA2DBC2D0B
:102B7600BC2D01300310A20DA30DFF3E031DBD2D7C
:102B860075087702031DC92D74087602031CCC2D27
:102B9600CD2DD52D7408F6027508031CF703F70230
:102BA6002214D52D01300310F50CF40CFF3E031D45
:102BB600D62D0130A102031DE12DE22DBC2DE42D01
:102BC600E42D2308F501F5072208F401F407EB2D9F
:102BD600080083120313A900A501A6017408FF3E8D
:102BE600A70075080318013EFF3EA8002D2E83128C
:102BF600031325082907A00020088400831700086E
:102C0600A100A2012108A3002208A4002708290781
:102C1600A000200884000008A10025082907A200BA
:102C260022088400210880002308A000270829071D
:102C3600A10021088400200880000130A5070318A0
:102C4600A60A0030A607FF30A7070318A80AFF3018
:102C5600A8072D2E2608803AA0002808803A2002D0
:102C6600031D372E27082502031C3A2E3B2EFA2D6C
:102C76003C2E08008312031309100F300A168A111E
:102C860098230A168A113030831203138800891498
:102C9600891005300A168A1198230A168A1183129A
:102CA6000313891489102130A0002008A1005C2E8E
:102CB6005C2E0130A102031D612E622E5C2E89144A
:102CC600891005300A168A1198230A168A112030AF
:102CD600831203138800891489100D30A000200880
:102CE600A200762E762E0130A202031D7B2E7C2EAC
:102CF600762E7D2E28300A168A11DA230A168A11B4
:102D060008300A168A11DA230A168A110F300A16B3
:102D16008A11DA230A168A1106300A168A11DA236C
:102D26000A168A11080083120313A21F9B2E9C2EDB
:102D3600C22E0030A6000030A7008030A80020096F
:102D4600A9002109AA002209AB00A90A0319AA0AA7
:102D56000319AB0A2908A6072A0803182A0FB42E56
:102D6600B52EA7072B0803182B0FBA2EBB2EA807C4
:102D76002608A0002708A1002808A200C22EA51F29
:102D8600C52EC62EEC2E0030A6000030A7008030DF
:102D9600A8002309A9002409AA002509AB00A90A4D
:102DA6000319AA0A0319AB0A2908A6072A08031851
:102DB6002A0FDE2EDF2EA7072B0803182B0FE42E73
:102DC600E52EA8072608A3002708A4002808A500C2
:102DD600EC2E8030A2068030A50625082202031DAF
:102DE600FA2E24082102031DFA2E230820020318B6
:102DF600FD2EFE2E002F0310032F0314032F032F87
:102E06000800831203132308031D0A2F122F22081A
:102E160021042004031D102F112F282F122F0030FC
:102E2600A0000030A1000030A200802F802F282FA4
:102E36000130F4007408A30701300310A20CA10CA2
:102E4600A00CFF3E031D202F282FFE302205031D58
:102E56002D2F2E2F1B2F462F462F0130F4007408DE
:102E6600A3070130A007003003180130A107003086
:102E760003180130A20701300310A20CA10CA00C0C
:102E8600FF3E031D3F2FFF302205031D4B2F4C2F06
:102E9600302F592F592F0130A30201300310A00DF6
:102EA600A10DA20DFF3E031D512F592FA11F5C2F0F
:102EB6005D2F4E2F2318602F612F672FFF30A0053F
:102EC6007F30A105FF30A2050310A30C2308F400F0
:102ED600F501F60110300310F40DF50DF60DFF3E69
:102EE600031D6E2F7408A0047508A1047608A204B9
:102EF6002408031D7F2F802FA2170800033083129A
:102F06000313EA006A08F40068080A168A112923DE
:102F16000A168A1183120313670784000A128A1598
:102F26000A200A168A11EB000A128A150A200A16C6
:102F36008A11EC000A128A150A200A168A11ED0077
:102F4600F12F0330EA006A08F400FF30E80703189F
:102F5600E90AFF30E90768080A168A1129230A16C2
:102F66008A1183120313670784000A128A150A203E
:102F76000A168A11AD000A128A150A200A168A1143
:102F8600AE000A128A150A200A168A11AF006B08CB
:102F9600CA006C08CB006D08CC006408CD0065083B
:102FA600CE006608CF000A128A1571230A168A1106
:102FB600831203134A08B0004B08B1004C08B20054
:102FC6000A128A15BA260A168A11831203132D08C5
:102FD600EB002E08EC002F08ED00F12F69086804BD
:102FE600031DF62FF72FA42FF82F6B08E4006C08AB
:0A2FF600E5006D08E600FF2F08005B
:02400E007AFF37
:00000001FF
