:100000000A128A11E12F00308A000408840A82074C
:100010000034003480343F34723431343F34FE34A1
:1000200075343E34583463343D3495341D343C3497
:10003000C534AE343A34793421343934943480348C
:1000400037349334A73435345634153434340034CB
:1000500000340034003480343F34F034FF34BE3494
:10006000E234A9343E3483347634BE34AE342B3497
:100070003E343C34C334BD34D23413343D3478344C
:04008000D334BB3486
:100FC200F001F101F201F30183010A128A11E92F02
:100FD200831603138701831203138701423083169A
:100FE2000313920004308312031392002C309700F3
:0E0FF200FA2F21309500FA2F0A128A110028DA
:02400E007AFF37
:00000001FF
