:060000000A128A11122809
:10000800FE00030EF0000408F1000A08F200831253
:1000180003137F08F3000A128A11B42A0A128A11FC
:10002800F42A83120313B101B20154280A30F400F0
:100038000030F5002B08F701F7072A08F601F60744
:100048000A128A11E9210A128A117408303E8312B1
:100058000313AF0031082C07B000300884002F08C4
:10006800831380000130B1070318B20A0030B207C9
:100078000A30F4000030F5002B08F701F7072A08CA
:10008800F601F6070A128A1199210A128A117508CF
:1000980083120313AB01AB077408AA01AA075428FB
:1000A8002B082A04031D59285A281A286D286D2858
:1000B8003030AF0031082C07B000300884002F081A
:1000C800831380000130B1070318B20A0030B20769
:1000D8006D282E083202031D73282D083102031CD7
:1000E800762877285C2878283208F501F507310842
:1000F800F401F4072C080A128A1148210A128A11FD
:100108008312031331082C07AF002F0884008313D0
:1001180080013208AB01AB073108AA01AA0794286D
:1001280008000730831603139F0081138901880193
:1001380083120313091190108F018E01101290126F
:100148001011831603130C1483120313101483164F
:1001580003130C15831203130C118B170B17643040
:100168000A128A1193220A128A110A128A11EF209E
:100178000A128A110A128A1106230A128A11C4283D
:1001880064300A128A1193220A128A110A128A11F9
:1001980006230A128A11831203133508AB01AB0731
:1001A8003408AA01AA073630B3003308AC0005307A
:1001B800AD000030AE000A128A1115200A128A1109
:1001C80036300A128A11D5220A128A11C428C42884
:1001D8000A128A1112288312031309100F300A1207
:1001E8008A1193220A128A1130308312031388006D
:1001F8008914891005300A128A1193220A128A1169
:1002080083120313891489102130A0002008A1004B
:100218000E290E290130A102031D132914290E29C4
:100228008914891005300A128A1193220A128A1138
:100238002030831203138800891489100D30A00020
:100248002008A200282928290130A202031D2D29EF
:100258002E2928292F2928300A128A116E220A12DB
:100268008A1108300A128A116E220A128A110F3076
:100278000A128A116E220A128A1106300A128A118B
:100288006E220A128A11080083120313A900A5011D
:10029800A6017408FF3EA70075080318013EFF3E3B
:1002A800A80089298312031325082907A00020081C
:1002B800840083130008A100A2012108A3002208DA
:1002C800A40027082907A000200884000008A1002E
:1002D80025082907A2002208840021088000230895
:1002E800A00027082907A100210884002008800011
:1002F8000130A5070318A60A0030A607FF30A70794
:100308000318A80AFF30A80789292608803AA00000
:100318002808803A2002031D932927082502031C78
:100328009629972956299829080083120313A201B0
:10033800A301750874040319A229A329E129A101BD
:100348000314A10DB32901300310F40DF50DFF3E80
:10035800031DA8290130A0002008A107B329F51F13
:10036800B629B729A729B929B92901300310A20D3F
:10037800A30DFF3E031DBA2975087702031DC62980
:1003880074087602031CC929CA29D2297408F602FE
:100398007508031CF703F7022214D2290130031051
:1003A800F50CF40CFF3E031DD3290130A102031DF7
:1003B800DE29DF29B929E129E1292308F501F50713
:1003C8002208F401F407E8290800750874040319E1
:1003D800EE29EF29272A83120313A1010314A10D83
:1003E800012A01300310F40DF50DFF3E031DF62917
:1003F8000130A0002008A107012AF51F042A052AB8
:10040800F529072A072A75087702031D0D2A74089B
:100418007602031C102A112A182A7408F602750895
:10042800031CF703F702182A01300310F50CF40C2B
:10043800FF3E031D192A0130A102031D242A252A83
:10044800072A272A272A7708F501F5077608F401ED
:10045800F4072E2A080002308A000408840A82075A
:100468000034003480343F34723431343F34FE3445
:1004780075343E34583463343D3495341D343C343B
:10048800C534AE343A347934213439349434803430
:1004980037349334A734353456341534343400346F
:1004A80000340034003480343F34F034FF34BE3438
:1004B800E234A9343E3483347634BE34AE342B343B
:1004C8003E343C34C334BD34D23413343D347834F0
:1004D800D334BB34F6008312031308080F397604AB
:1004E8008800891489107608F40004300310F40D8C
:1004F800FF3E031D7A2A08080F39740488008914FE
:1005080089100D30F4007408F5008B2A8B2A01300D
:10051800F502031D902A912A8B2A922A0800F500D9
:100528000430F4007408F6005330F4007408F7003F
:100538009E2A9E2A0130F702031DA32AA42A9E2A76
:10054800A52A0130F602031DAA2AAB2A982AAC2A4A
:100558000130F502031DB12AB22A942AB32A0800F1
:100568000C1DB72AB82AC22AB401B5011608B5016C
:10057800B5071508B401B4070C11C22A0C1CC52A0A
:10058800C62ACA2A8F018E010C10CA2A7308FF00D6
:1005980072088A0071088400700E8300FE0E7E0EB9
:1005A800090083120313A0000914EA2A2008840012
:1005B800831300080A128A116E220A128A11013066
:1005C800F700770883120313A007EA2A200884009B
:1005D80083138008031DF12AF22ADA2AF32A080075
:1005E800F801F901B401B501B601B701B801B901C3
:1005F800BA01BB01BC01BD01BE01BF0183010A12E2
:100608008A11952883120313091001300A128A11DE
:100618006E220A128A1102300A128A1193220A12D1
:040628008A1108002B
:02400E007AFF37
:00000001FF
