:060000000A128A11122809
:10000800FE00030EF2000408F3000A08F40083124D
:1000180003137F08F5000A128A11342A0A128A117A
:10002800FC2A83120313B301B40154280A30A00038
:100038000030A1002D08A301A3072C08A201A207E4
:100048000A128A11EE210A128A1183120313200858
:10005800303EB10033082E07B20032088400310860
:10006800831380000130B3070318B40A0030B407C3
:100078000A30A0000030A1002D08A301A3072C0816
:10008800A201A2070A128A119E210A128A1183125A
:1000980003132108AD01AD072008AC01AC075428B3
:1000A8002D082C04031D59285A281A286D286D2854
:1000B8003030B10033082E07B2003208840031080E
:1000C800831380000130B3070318B40A0030B40763
:1000D8006D2830083402031D73282F083302031CCF
:1000E800762877285C2878283408A101A1073308E6
:1000F800A001A0072E080A128A114D210A128A119E
:100108008312031333082E07B100310884008313C8
:1001180080013408AD01AD073308AC01AC07942861
:1001280008000730831603139F0081138901880193
:100138008312031309118B170B1790100C108F01E2
:100148008E01101290121011831603130C148312CF
:100158000313101497111715971017148316031308
:100168000C15831203130C1164300A128A11D92258
:100178000A128A110A128A11F4200A128A110A1222
:100188008A113B230A128A11C92864300A128A117B
:10019800D9220A128A110A128A113B230A128A11D9
:1001A800831203133708AD01AD073608AC01AC075D
:1001B8003830B5003508AE000530AF000030B0006B
:1001C8000A128A1115200A128A1138300A128A1165
:1001D8001C230A128A11C928C9280A128A1112284E
:1001E8008312031309100F300A128A11D9220A1236
:1001F8008A1130308312031388008914891005305E
:100208000A128A11D9220A128A1183120313891435
:1002180089102130A4002408A500132913290130CE
:10022800A502031D182919291329891489100530D5
:100238000A128A11D9220A128A1120308312031352
:100248008800891489100D30A4002408A6002D29DF
:100258002D290130A602031D322933292D293429DD
:1002680028300A128A11B4220A128A1108300A1296
:100278008A11B4220A128A110F300A128A11B42282
:100288000A128A1106300A128A11B4220A128A1135
:10029800080083120313AB00A701A8012008FF3E42
:1002A800A90021080318013EFF3EAA008E298312E7
:1002B800031327082B07A2002208840083130008D1
:1002C800A300A4012308A5002408A60029082B07D9
:1002D800A200220884000008A30027082B07A40016
:1002E80024088400230880002508A20029082B0779
:1002F800A30023088400220880000130A707031800
:10030800A80A0030A807FF30A9070318AA0AFF3077
:10031800AA078E292808803AA2002A08803A2202D1
:10032800031D982929082702031C9B299C295B295E
:100338009D29080083120313A601A70121082004A0
:100348000319A729A829E629A5010314A50DB82989
:1003580001300310A00DA10DFF3E031DAD29013092
:10036800A4002408A507B829A11FBB29BC29AC29CA
:10037800BE29BE2901300310A60DA70DFF3E031D9F
:10038800BF2921082302031DCB2920082202031CB0
:10039800CE29CF29D7292008A2022108031CA303AC
:1003A800A3022614D72901300310A10CA00CFF3E8C
:1003B800031DD8290130A502031DE329E429BE291C
:1003C800E629E6292708A101A1072608A001A00718
:1003D800ED29080083120313210820040319F529C5
:1003E800F6292C2AA5010314A50D062A01300310AD
:1003F800A00DA10DFF3E031DFB290130A400240818
:10040800A507062AA11F092A0A2AFA290C2A0C2A52
:1004180021082302031D122A20082202031C152A80
:10042800162A1D2A2008A2022108031CA303A302DE
:100438001D2A01300310A10CA00CFF3E031D1E2A2B
:100448000130A502031D292A2A2A0C2A2C2A2C2A23
:100458002308A101A1072208A001A007332A080048
:100468000C1D372A382A622A7B087A0403193D2A88
:100478003E2A452A1608F901F9071508F801F80770
:10048800552A7809F0007909F100F00A0319F10AF0
:1004980015087007B60016080318160A7107B70082
:1004A800552A7B087A04003003190130F000F10165
:1004B8007008FA007108FB000C11622A0C1C652AEE
:1004C800662A6A2A8F018E010C106A2A7508FF00B5
:1004D80074088A0073088400720E8300FE0E7E0E74
:1004E800090002308A000408840A820700340034B4
:1004F80080343F34723431343F34FE3475343E3402
:10050800583463343D3495341D343C34C534AE34EA
:100518003A34793421343934943480343734933448
:10052800A7343534563415343434003400340034A8
:10053800003480343F34F034FF34BE34E234A9341C
:100548003E3483347634BE34AE342B343E343C34BB
:10055800C334BD34D23413343D347834D334BB344B
:1005680083120313A20008080F3922048800891493
:1005780089102208A00004300310A00DFF3E031DBF
:10058800C02A08080F3920048800891489100D3002
:10059800A0002008A100D12AD12A0130A102031D00
:1005A800D62AD72AD12AD82A080083120313A100F1
:1005B8000430A0002008A2005330A0002008A300A7
:1005C800E62AE62A0130A302031DEB2AEC2AE62AD2
:1005D800ED2A0130A202031DF22AF32AE02AF42AA6
:1005E8000130A102031DF92AFA2ADC2AFB2A080095
:1005F800F601F701F801F901B601B701B801B9012F
:10060800BA01BB01BC01BD01BE01BF01C001C101EE
:100618000A128A114B230A128A11FA000A128A1145
:100628004C230A128A11FB0083010A128A119528A9
:1006380083120313A4000914312B240884008313A4
:1006480000080A128A11B4220A128A110130831290
:100658000313A3002308A407312B24088400831361
:100668008008031D382B392B212B3A2B08008312C5
:100678000313091001300A128A11B4220A128A11CE
:1006880002300A128A11D9220A128A11080001348A
:0206980000342C
:02400E007AFF37
:00000001FF
