:060000000A128A11122809
:10000800FE00030EF8000408F9000A08FA0083123B
:1000180003137F08FB000A128A117B280A128A112F
:100028009E280A128A11D5200A128A118B178B165C
:100038003D30831203138100473083160313810078
:100048007008203E8400831300088312031386007F
:100058007408203E84000008880032281430720694
:100068007304031D3828392854280130F007031871
:10007800F10A0030F1070A3070067104031D4528A3
:1000880046284928F001F10149287008203E8400DB
:1000980083130008831203138600F201F301542826
:1000A800C83076067704031D5A285B2832280130A9
:1000B800F4070318F50A0030F5070A3074067504CA
:1000C800031D672868286B28F401F5016B2874085C
:1000D800203E840083130008831203138800F6016E
:1000E800F7013228322832280A128A1112288B1E68
:1000F8007E287F2893280B1D8228832893280B119C
:100108003D3081000130F2070318F30A0030F3078D
:100118000130F6070318F70A0030F70793287B0821
:10012800FF007A088A0079088400780E8300FE0EA2
:100138007E0E0900F001F101F201F301F401F5016D
:10014800F601F70183132A30FD000030FE00CB30A2
:10015800FF00203084000A128A11BC200A128A117A
:1001680083010A128A1115287E088A007F088200F6
:100178000A128A11B8200A128A118000840A040817
:100188007D0603190034FF0A0319FE0ABC283F3410
:1001980006345B344F3466346D347D3407347F3431
:1001A8006F348312031386018801831603138601B3
:0401B80088010800B2
:02400E007AFF37
:00000001FF
