:100000000A128A11A92E00308A000408840A820785
:100010000034543465347334743469346E34673462
:10002000203474346834653420344434693473348F
:1000300070346C34613479342034323420344C34AC
:1000400069346E34653473342034463475346E3418
:100050006334743469346F346E3461346C346934AD
:0600600074347934003411
:100D520083010A128A11732FF300831203130910FD
:100D62007308803E0A128A114E270A128A1108005D
:100D720083120313091001300A128A114E270A1234
:100D82008A1102300A128A1109270A128A110800EE
:100D9200F701F801D92EE8300A128A1109270A123E
:100DA2008A110130F7070318F80A0030F807D92E24
:100DB2007808803AF6007508803A7602031DE32E21
:100DC20074087702031CE62EE72ECC2EE82E0800CC
:100DD200F7000A128A11B9260A128A1100300A1281
:100DE2008A11AD260A128A1177080A128A112A2755
:100DF2000A128A1140300A128A11AD260A128A1189
:100E0200750877070A128A112A270A128A1108001E
:100E1200F1000430F0007008F2005330F000700866
:100E2200F300142F142F0130F302031D192F1A2F70
:100E3200142F1B2F0130F202031D202F212F0E2F02
:100E4200222F0130F102031D272F282F0A2F292FCD
:100E52000800F400831203130914402F740884005D
:100E62000A128A1103200A128A110A128A114E27C3
:100E72000A128A110130F3007308F407402F740834
:100E820084000A128A1103200A128A110038031DF3
:100E92004B2F4C2F2F2F4D2F0800F20083120313DC
:100EA20008080F3972048800891489107208F0004A
:100EB20004300310F00DFF3E031D5A2F08080F39AE
:100EC20070048800891489100D30F0007008F10058
:100ED2006B2F6B2F0130F102031D702F712F6B2FBF
:100EE200722F080083160313890188018601850188
:100EF20007309F008312031309100130F400003001
:100F0200F5000A128A11C9260A128A110A128A11D6
:100F1200A5270A128A118D2F1030F5000030F60035
:100F220001300A128A11E9260A128A110130F400EC
:100F32000030F5000A128A11C9260A128A118D2F71
:100F42008D2F0A128A1100288312031309100F3001
:100F52000A128A1109270A128A11303083120313E6
:100F620088008914891005300A128A1109270A1289
:100F72008A1183120313891489102130F400740832
:100F8200F500C42FC42F0130F502031DC92FCA2F4B
:100F9200C42F831203138914891005300A128A118F
:100FA20009270A128A112030831203138800891438
:100FB20089100D30F4007408F600E02FE02F0130A4
:100FC200F602031DE52FE62FE02FE72F28300A1245
:100FD2008A114E270A128A1108300A128A114E27E4
:100FE2000A128A110F300A128A114E270A128A1126
:0E0FF20006300A128A114E270A128A110800D0
:02400E007AFF37
:00000001FF
