:060000000A128A11F02D26
:100BE000A001A101A201A301A401A501A601830105
:100BF0000A128A112B2E831203132608313A031D81
:100C0000022E032E062E87170713092E87130717A8
:100C1000092E0800F1000430F0007008F200533093
:100C2000F0007008F300152E152E0130F302031D9D
:100C30001A2E1B2E152E1C2E0130F202031D212E02
:100C4000222E0F2E232E0130F102031D282E292ED5
:100C50000B2E2A2E080083160313870186018113A9
:100C6000890107309F0083120313091164300A12AF
:100C70008A110A260A128A11831203138716402E3C
:100C80000A128A11CD260A128A118312031322082E
:100C9000FC007C08A6003030FC007C08A6070A1285
:100CA0008A11FB250A128A11402E402E0A128A113F
:100CB0000028F601F11F5D2E5E2E672EF009F10966
:100CC000F00A0319F10AF6010314F60D672EF31F5B
:100CD0006A2E6B2E752EF209F309F20A0319F30A34
:100CE0000130F4007408F606752EF701F80171085A
:100CF000700403197C2E7D2EBB2EF5010314F50D17
:100D00008D2E01300310F00DF10DFF3E031D822EDC
:100D10000130F4007408F5078D2EF11F902E912EEE
:100D2000812E932E932E01300310F70DF80DFF3E08
:100D3000031D942E71087302031DA02E7008720209
:100D4000031CA32EA42EAC2E7008F2027108031C03
:100D5000F303F3027714AC2E01300310F10CF00C06
:100D6000FF3E031DAD2E0130F502031DB82EB92E36
:100D7000932EBB2EBB2E7608031DBF2EC52EF70962
:100D8000F809F70A0319F80AC52E7808F101F107E6
:100D90007708F001F007CC2E080083120313A70197
:100DA000A80132300A128A110A260A128A11D82E94
:100DB000831203138601F030831603138600831217
:100DC00003130608F90004300310F90CFF3E031D5D
:100DD000E42E79080F3A031DEE2EEF2ED82EF02EBA
:100DE00032300A128A110A260A128A11F72E0130AD
:100DF0008312031327062804031DFF2E002F022F42
:100E0000762F762FA001A1012108803AFF008030C3
:100E10007F02031D0D2F04302002031C102F112F01
:100E2000132FF72EF72E83120313860121082004B7
:100E3000031D1B2F1C2F202FA9010314A90D3F2FC9
:100E4000013020062104031D262F272F2C2F0230CE
:100E5000F9007908A9003F2F023020062104031D64
:100E6000322F332F382F0430F9007908A9003F2F93
:100E70000830F9007908A9003F2F3F2F3F2F29099B
:100E8000831603138600831203130608F900043047
:100E90000310F90CFF3E031D482F7908FA00FB01EF
:100EA0007A08A4007B08A5000F3024062504031946
:100EB0005A2F5B2F602F0130A7000030A800F72EBB
:100EC0000130A0070318A10A0030A1072108803AC9
:100ED000FF0080307F02031D6F2F04302002031CAF
:100EE000722F732F132FF72EF72EF72E8312031363
:100EF00024080F3AF9007908AA000830F000003001
:100F0000F1002A08F900FA017908F2007A08F300E2
:100F10000A128A1159260A128A11013070067104C8
:100F2000031D932F942F9B2F0430F900790883120F
:100F30000313AA00EC2F0430F0000030F1008312FC
:100F400003132A08F900FA017908F2007A08F3007D
:100F50000A128A1159260A128A1101307006710488
:100F6000031DB32FB42FBB2F0330F9007908831270
:100F70000313AA00EC2F0230F0000030F1008312BE
:100F800003132A08F900FA017908F2007A08F3003D
:100F90000A128A1159260A128A1101307006710448
:100FA000031DD32FD42FDB2F0230F90079088312D1
:100FB0000313AA00EC2F831203132A08013A031D1E
:100FC000E22FE32FE72FAA010314AA0DEC2FAA01A9
:100FD000EC2FEC2FEC2FEC2F2108FA002008F90061
:100FE0000230FF000310F90DFA0DFF0BF22F2A0853
:100FF0007907A2000030031801307A07A300080027
:02400E007AFF37
:00000001FF
